{
    "_format": "hh-sol-artifact-1",
    "contractName": "Rewards",
    "sourceName": "contracts/Rewards.sol",
    "abi": [
        {
            "inputs": [
                {
                    "internalType": "string",
                    "name": "name_",
                    "type": "string"
                },
                {
                    "internalType": "string",
                    "name": "symbol_",
                    "type": "string"
                },
                {
                    "internalType": "string",
                    "name": "baseUri",
                    "type": "string"
                }
            ],
            "stateMutability": "nonpayable",
            "type": "constructor"
        },
        {
            "anonymous": false,
            "inputs": [
                {
                    "indexed": true,
                    "internalType": "address",
                    "name": "account",
                    "type": "address"
                },
                {
                    "indexed": true,
                    "internalType": "address",
                    "name": "operator",
                    "type": "address"
                },
                {
                    "indexed": false,
                    "internalType": "bool",
                    "name": "approved",
                    "type": "bool"
                }
            ],
            "name": "ApprovalForAll",
            "type": "event"
        },
        {
            "anonymous": false,
            "inputs": [
                {
                    "indexed": false,
                    "internalType": "uint256",
                    "name": "tokenId",
                    "type": "uint256"
                },
                {
                    "indexed": false,
                    "internalType": "address",
                    "name": "modifiedBy",
                    "type": "address"
                }
            ],
            "name": "MerkleRootChange",
            "type": "event"
        },
        {
            "anonymous": false,
            "inputs": [
                {
                    "indexed": true,
                    "internalType": "bytes32",
                    "name": "role",
                    "type": "bytes32"
                },
                {
                    "indexed": true,
                    "internalType": "bytes32",
                    "name": "previousAdminRole",
                    "type": "bytes32"
                },
                {
                    "indexed": true,
                    "internalType": "bytes32",
                    "name": "newAdminRole",
                    "type": "bytes32"
                }
            ],
            "name": "RoleAdminChanged",
            "type": "event"
        },
        {
            "anonymous": false,
            "inputs": [
                {
                    "indexed": true,
                    "internalType": "bytes32",
                    "name": "role",
                    "type": "bytes32"
                },
                {
                    "indexed": true,
                    "internalType": "address",
                    "name": "account",
                    "type": "address"
                },
                {
                    "indexed": true,
                    "internalType": "address",
                    "name": "sender",
                    "type": "address"
                }
            ],
            "name": "RoleGranted",
            "type": "event"
        },
        {
            "anonymous": false,
            "inputs": [
                {
                    "indexed": true,
                    "internalType": "bytes32",
                    "name": "role",
                    "type": "bytes32"
                },
                {
                    "indexed": true,
                    "internalType": "address",
                    "name": "account",
                    "type": "address"
                },
                {
                    "indexed": true,
                    "internalType": "address",
                    "name": "sender",
                    "type": "address"
                }
            ],
            "name": "RoleRevoked",
            "type": "event"
        },
        {
            "anonymous": false,
            "inputs": [
                {
                    "indexed": false,
                    "internalType": "uint256",
                    "name": "tokenId",
                    "type": "uint256"
                },
                {
                    "indexed": false,
                    "internalType": "string",
                    "name": "newUri",
                    "type": "string"
                }
            ],
            "name": "SetUri",
            "type": "event"
        },
        {
            "anonymous": false,
            "inputs": [
                {
                    "indexed": false,
                    "internalType": "uint256",
                    "name": "tokenId",
                    "type": "uint256"
                },
                {
                    "indexed": false,
                    "internalType": "address",
                    "name": "recipient",
                    "type": "address"
                }
            ],
            "name": "TokenClaim",
            "type": "event"
        },
        {
            "anonymous": false,
            "inputs": [
                {
                    "indexed": false,
                    "internalType": "uint256",
                    "name": "tokenId",
                    "type": "uint256"
                },
                {
                    "indexed": false,
                    "internalType": "address",
                    "name": "issuer",
                    "type": "address"
                }
            ],
            "name": "TokenCreated",
            "type": "event"
        },
        {
            "anonymous": false,
            "inputs": [
                {
                    "indexed": true,
                    "internalType": "address",
                    "name": "operator",
                    "type": "address"
                },
                {
                    "indexed": true,
                    "internalType": "address",
                    "name": "from",
                    "type": "address"
                },
                {
                    "indexed": true,
                    "internalType": "address",
                    "name": "to",
                    "type": "address"
                },
                {
                    "indexed": false,
                    "internalType": "uint256[]",
                    "name": "ids",
                    "type": "uint256[]"
                },
                {
                    "indexed": false,
                    "internalType": "uint256[]",
                    "name": "values",
                    "type": "uint256[]"
                }
            ],
            "name": "TransferBatch",
            "type": "event"
        },
        {
            "anonymous": false,
            "inputs": [
                {
                    "indexed": true,
                    "internalType": "address",
                    "name": "operator",
                    "type": "address"
                },
                {
                    "indexed": true,
                    "internalType": "address",
                    "name": "from",
                    "type": "address"
                },
                {
                    "indexed": true,
                    "internalType": "address",
                    "name": "to",
                    "type": "address"
                },
                {
                    "indexed": false,
                    "internalType": "uint256",
                    "name": "id",
                    "type": "uint256"
                },
                {
                    "indexed": false,
                    "internalType": "uint256",
                    "name": "value",
                    "type": "uint256"
                }
            ],
            "name": "TransferSingle",
            "type": "event"
        },
        {
            "anonymous": false,
            "inputs": [
                {
                    "indexed": false,
                    "internalType": "string",
                    "name": "value",
                    "type": "string"
                },
                {
                    "indexed": true,
                    "internalType": "uint256",
                    "name": "id",
                    "type": "uint256"
                }
            ],
            "name": "URI",
            "type": "event"
        },
        {
            "anonymous": false,
            "inputs": [
                {
                    "indexed": false,
                    "internalType": "uint256",
                    "name": "totalNew",
                    "type": "uint256"
                },
                {
                    "indexed": false,
                    "internalType": "uint256",
                    "name": "totalRevoke",
                    "type": "uint256"
                }
            ],
            "name": "UpdateIssuers",
            "type": "event"
        },
        {
            "inputs": [],
            "name": "DEFAULT_ADMIN_ROLE",
            "outputs": [
                {
                    "internalType": "bytes32",
                    "name": "",
                    "type": "bytes32"
                }
            ],
            "stateMutability": "view",
            "type": "function"
        },
        {
            "inputs": [],
            "name": "ISSUER_ROLE",
            "outputs": [
                {
                    "internalType": "bytes32",
                    "name": "",
                    "type": "bytes32"
                }
            ],
            "stateMutability": "view",
            "type": "function"
        },
        {
            "inputs": [],
            "name": "_blockAllIssuers",
            "outputs": [
                {
                    "internalType": "bool",
                    "name": "",
                    "type": "bool"
                }
            ],
            "stateMutability": "view",
            "type": "function"
        },
        {
            "inputs": [
                {
                    "internalType": "address",
                    "name": "account",
                    "type": "address"
                },
                {
                    "internalType": "uint256",
                    "name": "id",
                    "type": "uint256"
                }
            ],
            "name": "balanceOf",
            "outputs": [
                {
                    "internalType": "uint256",
                    "name": "",
                    "type": "uint256"
                }
            ],
            "stateMutability": "view",
            "type": "function"
        },
        {
            "inputs": [
                {
                    "internalType": "address[]",
                    "name": "accounts",
                    "type": "address[]"
                },
                {
                    "internalType": "uint256[]",
                    "name": "ids",
                    "type": "uint256[]"
                }
            ],
            "name": "balanceOfBatch",
            "outputs": [
                {
                    "internalType": "uint256[]",
                    "name": "",
                    "type": "uint256[]"
                }
            ],
            "stateMutability": "view",
            "type": "function"
        },
        {
            "inputs": [
                {
                    "internalType": "uint256",
                    "name": "tokenId",
                    "type": "uint256"
                },
                {
                    "internalType": "bool",
                    "name": "newStatus",
                    "type": "bool"
                }
            ],
            "name": "blockTokenMint",
            "outputs": [],
            "stateMutability": "nonpayable",
            "type": "function"
        },
        {
            "inputs": [
                {
                    "internalType": "bool",
                    "name": "newStatus",
                    "type": "bool"
                }
            ],
            "name": "blockTokensIssuing",
            "outputs": [],
            "stateMutability": "nonpayable",
            "type": "function"
        },
        {
            "inputs": [
                {
                    "internalType": "string",
                    "name": "tokenURI",
                    "type": "string"
                },
                {
                    "internalType": "bytes32",
                    "name": "merkleRootHash",
                    "type": "bytes32"
                }
            ],
            "name": "createToken",
            "outputs": [],
            "stateMutability": "nonpayable",
            "type": "function"
        },
        {
            "inputs": [],
            "name": "getAllListedTokens",
            "outputs": [
                {
                    "components": [
                        {
                            "internalType": "uint256",
                            "name": "tokenId",
                            "type": "uint256"
                        },
                        {
                            "internalType": "address",
                            "name": "issuer",
                            "type": "address"
                        },
                        {
                            "internalType": "bytes32",
                            "name": "merkletRoot",
                            "type": "bytes32"
                        },
                        {
                            "internalType": "bool",
                            "name": "claimable",
                            "type": "bool"
                        },
                        {
                            "internalType": "address[]",
                            "name": "owners",
                            "type": "address[]"
                        }
                    ],
                    "internalType": "struct Rewards.ListedToken[]",
                    "name": "",
                    "type": "tuple[]"
                }
            ],
            "stateMutability": "view",
            "type": "function"
        },
        {
            "inputs": [],
            "name": "getMyTokens",
            "outputs": [
                {
                    "components": [
                        {
                            "internalType": "uint256",
                            "name": "tokenId",
                            "type": "uint256"
                        },
                        {
                            "internalType": "address",
                            "name": "issuer",
                            "type": "address"
                        },
                        {
                            "internalType": "bytes32",
                            "name": "merkletRoot",
                            "type": "bytes32"
                        },
                        {
                            "internalType": "bool",
                            "name": "claimable",
                            "type": "bool"
                        },
                        {
                            "internalType": "address[]",
                            "name": "owners",
                            "type": "address[]"
                        }
                    ],
                    "internalType": "struct Rewards.ListedToken[]",
                    "name": "",
                    "type": "tuple[]"
                }
            ],
            "stateMutability": "view",
            "type": "function"
        },
        {
            "inputs": [
                {
                    "internalType": "bytes32",
                    "name": "role",
                    "type": "bytes32"
                }
            ],
            "name": "getRoleAdmin",
            "outputs": [
                {
                    "internalType": "bytes32",
                    "name": "",
                    "type": "bytes32"
                }
            ],
            "stateMutability": "view",
            "type": "function"
        },
        {
            "inputs": [],
            "name": "getTokenId",
            "outputs": [
                {
                    "internalType": "uint256",
                    "name": "",
                    "type": "uint256"
                }
            ],
            "stateMutability": "view",
            "type": "function"
        },
        {
            "inputs": [
                {
                    "internalType": "bytes32",
                    "name": "role",
                    "type": "bytes32"
                },
                {
                    "internalType": "address",
                    "name": "account",
                    "type": "address"
                }
            ],
            "name": "grantRole",
            "outputs": [],
            "stateMutability": "nonpayable",
            "type": "function"
        },
        {
            "inputs": [
                {
                    "internalType": "bytes32",
                    "name": "role",
                    "type": "bytes32"
                },
                {
                    "internalType": "address",
                    "name": "account",
                    "type": "address"
                }
            ],
            "name": "hasRole",
            "outputs": [
                {
                    "internalType": "bool",
                    "name": "",
                    "type": "bool"
                }
            ],
            "stateMutability": "view",
            "type": "function"
        },
        {
            "inputs": [
                {
                    "internalType": "address",
                    "name": "account",
                    "type": "address"
                },
                {
                    "internalType": "address",
                    "name": "operator",
                    "type": "address"
                }
            ],
            "name": "isApprovedForAll",
            "outputs": [
                {
                    "internalType": "bool",
                    "name": "",
                    "type": "bool"
                }
            ],
            "stateMutability": "view",
            "type": "function"
        },
        {
            "inputs": [
                {
                    "internalType": "uint256",
                    "name": "tokenId",
                    "type": "uint256"
                }
            ],
            "name": "isTokenMintable",
            "outputs": [
                {
                    "internalType": "bool",
                    "name": "",
                    "type": "bool"
                }
            ],
            "stateMutability": "view",
            "type": "function"
        },
        {
            "inputs": [
                {
                    "internalType": "address",
                    "name": "to",
                    "type": "address"
                },
                {
                    "internalType": "uint256",
                    "name": "tokenId",
                    "type": "uint256"
                },
                {
                    "internalType": "bytes32[]",
                    "name": "merkleProof",
                    "type": "bytes32[]"
                }
            ],
            "name": "mint",
            "outputs": [],
            "stateMutability": "nonpayable",
            "type": "function"
        },
        {
            "inputs": [],
            "name": "name",
            "outputs": [
                {
                    "internalType": "string",
                    "name": "",
                    "type": "string"
                }
            ],
            "stateMutability": "view",
            "type": "function"
        },
        {
            "inputs": [
                {
                    "internalType": "bytes32",
                    "name": "role",
                    "type": "bytes32"
                },
                {
                    "internalType": "address",
                    "name": "account",
                    "type": "address"
                }
            ],
            "name": "renounceRole",
            "outputs": [],
            "stateMutability": "nonpayable",
            "type": "function"
        },
        {
            "inputs": [
                {
                    "internalType": "bytes32",
                    "name": "role",
                    "type": "bytes32"
                },
                {
                    "internalType": "address",
                    "name": "account",
                    "type": "address"
                }
            ],
            "name": "revokeRole",
            "outputs": [],
            "stateMutability": "nonpayable",
            "type": "function"
        },
        {
            "inputs": [
                {
                    "internalType": "address",
                    "name": "from",
                    "type": "address"
                },
                {
                    "internalType": "address",
                    "name": "to",
                    "type": "address"
                },
                {
                    "internalType": "uint256[]",
                    "name": "ids",
                    "type": "uint256[]"
                },
                {
                    "internalType": "uint256[]",
                    "name": "amounts",
                    "type": "uint256[]"
                },
                {
                    "internalType": "bytes",
                    "name": "data",
                    "type": "bytes"
                }
            ],
            "name": "safeBatchTransferFrom",
            "outputs": [],
            "stateMutability": "nonpayable",
            "type": "function"
        },
        {
            "inputs": [
                {
                    "internalType": "address",
                    "name": "from",
                    "type": "address"
                },
                {
                    "internalType": "address",
                    "name": "to",
                    "type": "address"
                },
                {
                    "internalType": "uint256",
                    "name": "id",
                    "type": "uint256"
                },
                {
                    "internalType": "uint256",
                    "name": "amount",
                    "type": "uint256"
                },
                {
                    "internalType": "bytes",
                    "name": "data",
                    "type": "bytes"
                }
            ],
            "name": "safeTransferFrom",
            "outputs": [],
            "stateMutability": "nonpayable",
            "type": "function"
        },
        {
            "inputs": [
                {
                    "internalType": "address",
                    "name": "operator",
                    "type": "address"
                },
                {
                    "internalType": "bool",
                    "name": "approved",
                    "type": "bool"
                }
            ],
            "name": "setApprovalForAll",
            "outputs": [],
            "stateMutability": "nonpayable",
            "type": "function"
        },
        {
            "inputs": [
                {
                    "internalType": "uint256",
                    "name": "tokenId",
                    "type": "uint256"
                },
                {
                    "internalType": "bytes32",
                    "name": "merkleRootHash",
                    "type": "bytes32"
                }
            ],
            "name": "setMerkleRoot",
            "outputs": [],
            "stateMutability": "nonpayable",
            "type": "function"
        },
        {
            "inputs": [
                {
                    "internalType": "bytes4",
                    "name": "interfaceId",
                    "type": "bytes4"
                }
            ],
            "name": "supportsInterface",
            "outputs": [
                {
                    "internalType": "bool",
                    "name": "",
                    "type": "bool"
                }
            ],
            "stateMutability": "view",
            "type": "function"
        },
        {
            "inputs": [],
            "name": "symbol",
            "outputs": [
                {
                    "internalType": "string",
                    "name": "",
                    "type": "string"
                }
            ],
            "stateMutability": "view",
            "type": "function"
        },
        {
            "inputs": [
                {
                    "internalType": "string",
                    "name": "baseURI",
                    "type": "string"
                }
            ],
            "name": "updateBaseURI",
            "outputs": [],
            "stateMutability": "nonpayable",
            "type": "function"
        },
        {
            "inputs": [
                {
                    "internalType": "address[]",
                    "name": "toAdd",
                    "type": "address[]"
                },
                {
                    "internalType": "address[]",
                    "name": "toRemove",
                    "type": "address[]"
                }
            ],
            "name": "updateTokenIssuersBatch",
            "outputs": [],
            "stateMutability": "nonpayable",
            "type": "function"
        },
        {
            "inputs": [
                {
                    "internalType": "uint256",
                    "name": "tokenId",
                    "type": "uint256"
                },
                {
                    "internalType": "string",
                    "name": "tokenURI",
                    "type": "string"
                }
            ],
            "name": "updateTokenURI",
            "outputs": [],
            "stateMutability": "nonpayable",
            "type": "function"
        },
        {
            "inputs": [
                {
                    "internalType": "uint256",
                    "name": "tokenId",
                    "type": "uint256"
                }
            ],
            "name": "uri",
            "outputs": [
                {
                    "internalType": "string",
                    "name": "",
                    "type": "string"
                }
            ],
            "stateMutability": "view",
            "type": "function"
        }
    ],
    "bytecode": "0x6080604052604051806020016040528060008152506004908162000024919062000512565b503480156200003257600080fd5b50604051620060643803806200606483398181016040528101906200005891906200075d565b806200006a81620000f060201b60201c565b5082600690816200007c919062000512565b5081600790816200008e919062000512565b50620000a0816200010560201b60201c565b620000b56000801b336200011e60201b60201c565b620000e77f114e74f6ea3bd819998f78687bfcb11b140da08e9b7d222fa9c1f1ba1f2aa122336200011e60201b60201c565b50505062000816565b806002908162000101919062000512565b5050565b6200011b816200021060201b62001b3b1760201c565b50565b6200013082826200022560201b60201c565b6200020c5760016003600084815260200190815260200160002060000160008373ffffffffffffffffffffffffffffffffffffffff1673ffffffffffffffffffffffffffffffffffffffff16815260200190815260200160002060006101000a81548160ff021916908315150217905550620001b16200029060201b60201c565b73ffffffffffffffffffffffffffffffffffffffff168173ffffffffffffffffffffffffffffffffffffffff16837f2f8788117e7eff1d82e926ec794901d17c78024a50270940304540a733656f0d60405160405180910390a45b5050565b806004908162000221919062000512565b5050565b60006003600084815260200190815260200160002060000160008373ffffffffffffffffffffffffffffffffffffffff1673ffffffffffffffffffffffffffffffffffffffff16815260200190815260200160002060009054906101000a900460ff16905092915050565b600033905090565b600081519050919050565b7f4e487b7100000000000000000000000000000000000000000000000000000000600052604160045260246000fd5b7f4e487b7100000000000000000000000000000000000000000000000000000000600052602260045260246000fd5b600060028204905060018216806200031a57607f821691505b60208210810362000330576200032f620002d2565b5b50919050565b60008190508160005260206000209050919050565b60006020601f8301049050919050565b600082821b905092915050565b6000600883026200039a7fffffffffffffffffffffffffffffffffffffffffffffffffffffffffffffffff826200035b565b620003a686836200035b565b95508019841693508086168417925050509392505050565b6000819050919050565b6000819050919050565b6000620003f3620003ed620003e784620003be565b620003c8565b620003be565b9050919050565b6000819050919050565b6200040f83620003d2565b620004276200041e82620003fa565b84845462000368565b825550505050565b600090565b6200043e6200042f565b6200044b81848462000404565b505050565b5b8181101562000473576200046760008262000434565b60018101905062000451565b5050565b601f821115620004c2576200048c8162000336565b62000497846200034b565b81016020851015620004a7578190505b620004bf620004b6856200034b565b83018262000450565b50505b505050565b600082821c905092915050565b6000620004e760001984600802620004c7565b1980831691505092915050565b6000620005028383620004d4565b9150826002028217905092915050565b6200051d8262000298565b67ffffffffffffffff811115620005395762000538620002a3565b5b62000545825462000301565b6200055282828562000477565b600060209050601f8311600181146200058a576000841562000575578287015190505b620005818582620004f4565b865550620005f1565b601f1984166200059a8662000336565b60005b82811015620005c4578489015182556001820191506020850194506020810190506200059d565b86831015620005e45784890151620005e0601f891682620004d4565b8355505b6001600288020188555050505b505050505050565b6000604051905090565b600080fd5b600080fd5b600080fd5b600080fd5b6000601f19601f8301169050919050565b620006338262000617565b810181811067ffffffffffffffff82111715620006555762000654620002a3565b5b80604052505050565b60006200066a620005f9565b905062000678828262000628565b919050565b600067ffffffffffffffff8211156200069b576200069a620002a3565b5b620006a68262000617565b9050602081019050919050565b60005b83811015620006d3578082015181840152602081019050620006b6565b60008484015250505050565b6000620006f6620006f0846200067d565b6200065e565b90508281526020810184848401111562000715576200071462000612565b5b62000722848285620006b3565b509392505050565b600082601f8301126200074257620007416200060d565b5b815162000754848260208601620006df565b91505092915050565b60008060006060848603121562000779576200077862000603565b5b600084015167ffffffffffffffff8111156200079a576200079962000608565b5b620007a8868287016200072a565b935050602084015167ffffffffffffffff811115620007cc57620007cb62000608565b5b620007da868287016200072a565b925050604084015167ffffffffffffffff811115620007fe57620007fd62000608565b5b6200080c868287016200072a565b9150509250925092565b61583e80620008266000396000f3fe608060405234801561001057600080fd5b50600436106101d95760003560e01c80635b3b136a1161010457806395d89b41116100a2578063bb81f25c11610071578063bb81f25c14610552578063d547741f1461056e578063e985e9c51461058a578063f242432a146105ba576101d9565b806395d89b41146104dc578063a217fddf146104fa578063a22cb46514610518578063a50d998314610534576101d9565b806382aefa24116100de57806382aefa24146104565780638e7ad1f71461047457806391d1485414610490578063931688cb146104c0576101d9565b80635b3b136a146103fe578063641ce1401461041c5780637107732b14610438576101d9565b806318712c211161017c5780632f2ff15d1161014b5780632f2ff15d1461036657806336568abe146103825780634e1273f41461039e578063516bad81146103ce576101d9565b806318712c21146102e257806318e97fd1146102fe578063248a9ca31461031a5780632eb2c2d61461034a576101d9565b806306fdde03116101b857806306fdde031461025c5780630e89341c1461027a5780630f35bb10146102aa578063127884c7146102c6576101d9565b8062fdd58e146101de578063010a38f51461020e57806301ffc9a71461022c575b600080fd5b6101f860048036038101906101f391906133ec565b6105d6565b604051610205919061343b565b60405180910390f35b61021661069e565b604051610223919061343b565b60405180910390f35b610246600480360381019061024191906134ae565b6106af565b60405161025391906134f6565b60405180910390f35b6102646106c1565b60405161027191906135a1565b60405180910390f35b610294600480360381019061028f91906135c3565b610753565b6040516102a191906135a1565b60405180910390f35b6102c460048036038101906102bf9190613655565b610765565b005b6102e060048036038101906102db919061383c565b6108bb565b005b6102fc60048036038101906102f79190613898565b610a56565b005b610318600480360381019061031391906138d8565b610b91565b005b610334600480360381019061032f9190613934565b610c82565b6040516103419190613970565b60405180910390f35b610364600480360381019061035f9190613aef565b610ca2565b005b610380600480360381019061037b9190613bbe565b610d43565b005b61039c60048036038101906103979190613bbe565b610d64565b005b6103b860048036038101906103b39190613cc1565b610de7565b6040516103c59190613df7565b60405180910390f35b6103e860048036038101906103e391906135c3565b610f00565b6040516103f591906134f6565b60405180910390f35b610406610f2d565b604051610413919061402d565b60405180910390f35b610436600480360381019061043191906140a5565b611228565b005b610440611533565b60405161044d91906134f6565b60405180910390f35b61045e611546565b60405161046b9190613970565b60405180910390f35b61048e60048036038101906104899190614145565b61156a565b005b6104aa60048036038101906104a59190613bbe565b61167f565b6040516104b791906134f6565b60405180910390f35b6104da60048036038101906104d59190614185565b6116ea565b005b6104e4611704565b6040516104f191906135a1565b60405180910390f35b610502611796565b60405161050f9190613970565b60405180910390f35b610532600480360381019061052d91906141ce565b61179d565b005b61053c6117b3565b604051610549919061402d565b60405180910390f35b61056c6004803603810190610567919061420e565b6119ba565b005b61058860048036038101906105839190613bbe565b6119e5565b005b6105a4600480360381019061059f919061423b565b611a06565b6040516105b191906134f6565b60405180910390f35b6105d460048036038101906105cf919061427b565b611a9a565b005b60008073ffffffffffffffffffffffffffffffffffffffff168373ffffffffffffffffffffffffffffffffffffffff1603610646576040517f08c379a000000000000000000000000000000000000000000000000000000000815260040161063d90614384565b60405180910390fd5b60008083815260200190815260200160002060008473ffffffffffffffffffffffffffffffffffffffff1673ffffffffffffffffffffffffffffffffffffffff16815260200190815260200160002054905092915050565b60006106aa6008611b4e565b905090565b60006106ba82611b5c565b9050919050565b6060600680546106d0906143d3565b80601f01602080910402602001604051908101604052809291908181526020018280546106fc906143d3565b80156107495780601f1061071e57610100808354040283529160200191610749565b820191906000526020600020905b81548152906001019060200180831161072c57829003601f168201915b5050505050905090565b606061075e82611bd6565b9050919050565b6000801b61077281611cbb565b60008060005b878790508110156107f6576107d47f114e74f6ea3bd819998f78687bfcb11b140da08e9b7d222fa9c1f1ba1f2aa1228989848181106107ba576107b9614404565b5b90506020020160208101906107cf9190614433565b611ccf565b6001836107e1919061448f565b925080806107ee906144c3565b915050610778565b5060005b85859050811015610878576108567f114e74f6ea3bd819998f78687bfcb11b140da08e9b7d222fa9c1f1ba1f2aa12287878481811061083c5761083b614404565b5b90506020020160208101906108519190614433565b611db0565b600182610863919061448f565b91508080610870906144c3565b9150506107fa565b507f04278866b0d6f498929e34b779b3e8a8bb641f8dd86bba2ba266221bcea912c382826040516108aa92919061450b565b60405180910390a150505050505050565b7f114e74f6ea3bd819998f78687bfcb11b140da08e9b7d222fa9c1f1ba1f2aa1226108e581611cbb565b60001515600960009054906101000a900460ff1615151480610910575061090f6000801b3361167f565b5b61094f576040517f08c379a0000000000000000000000000000000000000000000000000000000008152600401610946906145a6565b60405180910390fd5b6109596008611e92565b60006109656008611b4e565b90506109718185611ea8565b61098d3382600160405180602001604052806000815250611eef565b6000600a60008381526020019081526020016000209050818160000181905550338160010160006101000a81548173ffffffffffffffffffffffffffffffffffffffff021916908373ffffffffffffffffffffffffffffffffffffffff16021790555083816002018190555060018160030160006101000a81548160ff0219169083151502179055507fc331dc3e37e2ab4d6e65d42a119ffdfab8481b9be24d26704f9f4b4a331d4dd08233604051610a479291906145d5565b60405180910390a15050505050565b7f114e74f6ea3bd819998f78687bfcb11b140da08e9b7d222fa9c1f1ba1f2aa122610a8081611cbb565b3373ffffffffffffffffffffffffffffffffffffffff16600a600085815260200190815260200160002060010160009054906101000a900473ffffffffffffffffffffffffffffffffffffffff1673ffffffffffffffffffffffffffffffffffffffff161480610af95750610af86000801b3361167f565b5b610b38576040517f08c379a0000000000000000000000000000000000000000000000000000000008152600401610b2f90614670565b60405180910390fd5b81600a6000858152602001908152602001600020600201819055507fab7a725d533f85521366ed27c01a524d7b26c426eb6e7ab6dbb3376c4b30520a8333604051610b849291906145d5565b60405180910390a1505050565b7f114e74f6ea3bd819998f78687bfcb11b140da08e9b7d222fa9c1f1ba1f2aa122610bbb81611cbb565b3373ffffffffffffffffffffffffffffffffffffffff16600a600085815260200190815260200160002060010160009054906101000a900473ffffffffffffffffffffffffffffffffffffffff1673ffffffffffffffffffffffffffffffffffffffff161480610c345750610c336000801b3361167f565b5b610c73576040517f08c379a0000000000000000000000000000000000000000000000000000000008152600401610c6a90614702565b60405180910390fd5b610c7d8383611ea8565b505050565b600060036000838152602001908152602001600020600101549050919050565b610caa61209f565b73ffffffffffffffffffffffffffffffffffffffff168573ffffffffffffffffffffffffffffffffffffffff161480610cf05750610cef85610cea61209f565b611a06565b5b610d2f576040517f08c379a0000000000000000000000000000000000000000000000000000000008152600401610d2690614794565b60405180910390fd5b610d3c85858585856120a7565b5050505050565b610d4c82610c82565b610d5581611cbb565b610d5f8383611ccf565b505050565b610d6c61209f565b73ffffffffffffffffffffffffffffffffffffffff168173ffffffffffffffffffffffffffffffffffffffff1614610dd9576040517f08c379a0000000000000000000000000000000000000000000000000000000008152600401610dd090614826565b60405180910390fd5b610de38282611db0565b5050565b60608151835114610e2d576040517f08c379a0000000000000000000000000000000000000000000000000000000008152600401610e24906148b8565b60405180910390fd5b6000835167ffffffffffffffff811115610e4a57610e496136db565b5b604051908082528060200260200182016040528015610e785781602001602082028036833780820191505090505b50905060005b8451811015610ef557610ec5858281518110610e9d57610e9c614404565b5b6020026020010151858381518110610eb857610eb7614404565b5b60200260200101516105d6565b828281518110610ed857610ed7614404565b5b60200260200101818152505080610eee906144c3565b9050610e7e565b508091505092915050565b6000600a600083815260200190815260200160002060030160009054906101000a900460ff169050919050565b60606000610f3b6008611b4e565b90506000805b82811015610fd6576000600182610f58919061448f565b90506000600b600083815260200190815260200160002060003373ffffffffffffffffffffffffffffffffffffffff1673ffffffffffffffffffffffffffffffffffffffff1681526020019081526020016000205414610fc257600183610fbf919061448f565b92505b508080610fce906144c3565b915050610f41565b5060008167ffffffffffffffff811115610ff357610ff26136db565b5b60405190808252806020026020018201604052801561102c57816020015b6110196132fa565b8152602001906001900390816110115790505b5090506000805b8481101561121d57600060018261104a919061448f565b90506000600b600083815260200190815260200160002060003373ffffffffffffffffffffffffffffffffffffffff1673ffffffffffffffffffffffffffffffffffffffff1681526020019081526020016000205414611209576000600a60008381526020019081526020016000209050806040518060a0016040529081600082015481526020016001820160009054906101000a900473ffffffffffffffffffffffffffffffffffffffff1673ffffffffffffffffffffffffffffffffffffffff1673ffffffffffffffffffffffffffffffffffffffff168152602001600282015481526020016003820160009054906101000a900460ff16151515158152602001600482018054806020026020016040519081016040528092919081815260200182805480156111d157602002820191906000526020600020905b8160009054906101000a900473ffffffffffffffffffffffffffffffffffffffff1673ffffffffffffffffffffffffffffffffffffffff1681526020019060010190808311611187575b5050505050815250508585815181106111ed576111ec614404565b5b6020026020010181905250600184611205919061448f565b9350505b508080611215906144c3565b915050611033565b508194505050505090565b6000801b61123581611cbb565b6000600a60008681526020019081526020016000209050600073ffffffffffffffffffffffffffffffffffffffff168160010160009054906101000a900473ffffffffffffffffffffffffffffffffffffffff1673ffffffffffffffffffffffffffffffffffffffff16036112df576040517f08c379a00000000000000000000000000000000000000000000000000000000081526004016112d690614924565b60405180910390fd5b6000600b600087815260200190815260200160002060008873ffffffffffffffffffffffffffffffffffffffff1673ffffffffffffffffffffffffffffffffffffffff1681526020019081526020016000205414611372576040517f08c379a0000000000000000000000000000000000000000000000000000000008152600401611369906149b6565b60405180910390fd5b600115158160030160009054906101000a900460ff161515146113ca576040517f08c379a00000000000000000000000000000000000000000000000000000000081526004016113c190614a48565b60405180910390fd5b6113d6858786866123c8565b611415576040517f08c379a000000000000000000000000000000000000000000000000000000000815260040161140c90614ada565b60405180910390fd5b6114318686600160405180602001604052806000815250611eef565b80600401869080600181540180825580915050600190039060005260206000200160009091909190916101000a81548173ffffffffffffffffffffffffffffffffffffffff021916908373ffffffffffffffffffffffffffffffffffffffff1602179055508060040180549050600b600087815260200190815260200160002060008873ffffffffffffffffffffffffffffffffffffffff1673ffffffffffffffffffffffffffffffffffffffff168152602001908152602001600020819055507f1e0bb8ab2abf6f7333777a74ef4804b481fd910f8120c3b65adbdb6e09f6106985876040516115239291906145d5565b60405180910390a1505050505050565b600960009054906101000a900460ff1681565b7f114e74f6ea3bd819998f78687bfcb11b140da08e9b7d222fa9c1f1ba1f2aa12281565b7f114e74f6ea3bd819998f78687bfcb11b140da08e9b7d222fa9c1f1ba1f2aa12261159481611cbb565b3373ffffffffffffffffffffffffffffffffffffffff16600a600085815260200190815260200160002060010160009054906101000a900473ffffffffffffffffffffffffffffffffffffffff1673ffffffffffffffffffffffffffffffffffffffff16148061160d575061160c6000801b3361167f565b5b61164c576040517f08c379a000000000000000000000000000000000000000000000000000000000815260040161164390614b6c565b60405180910390fd5b81600a600085815260200190815260200160002060030160006101000a81548160ff021916908315150217905550505050565b60006003600084815260200190815260200160002060000160008373ffffffffffffffffffffffffffffffffffffffff1673ffffffffffffffffffffffffffffffffffffffff16815260200190815260200160002060009054906101000a900460ff16905092915050565b6000801b6116f781611cbb565b61170082611b3b565b5050565b606060078054611713906143d3565b80601f016020809104026020016040519081016040528092919081815260200182805461173f906143d3565b801561178c5780601f106117615761010080835404028352916020019161178c565b820191906000526020600020905b81548152906001019060200180831161176f57829003601f168201915b5050505050905090565b6000801b81565b6117af6117a861209f565b83836124b6565b5050565b606060006117c16008611b4e565b905060008167ffffffffffffffff8111156117df576117de6136db565b5b60405190808252806020026020018201604052801561181857816020015b6118056132fa565b8152602001906001900390816117fd5790505b5090506000805b838110156119b0576000600182611836919061448f565b90506000600a60008381526020019081526020016000209050806040518060a0016040529081600082015481526020016001820160009054906101000a900473ffffffffffffffffffffffffffffffffffffffff1673ffffffffffffffffffffffffffffffffffffffff1673ffffffffffffffffffffffffffffffffffffffff168152602001600282015481526020016003820160009054906101000a900460ff161515151581526020016004820180548060200260200160405190810160405280929190818152602001828054801561196557602002820191906000526020600020905b8160009054906101000a900473ffffffffffffffffffffffffffffffffffffffff1673ffffffffffffffffffffffffffffffffffffffff168152602001906001019080831161191b575b50505050508152505085858151811061198157611980614404565b5b6020026020010181905250600184611999919061448f565b9350505080806119a8906144c3565b91505061181f565b5081935050505090565b6000801b6119c781611cbb565b81600960006101000a81548160ff0219169083151502179055505050565b6119ee82610c82565b6119f781611cbb565b611a018383611db0565b505050565b6000600160008473ffffffffffffffffffffffffffffffffffffffff1673ffffffffffffffffffffffffffffffffffffffff16815260200190815260200160002060008373ffffffffffffffffffffffffffffffffffffffff1673ffffffffffffffffffffffffffffffffffffffff16815260200190815260200160002060009054906101000a900460ff16905092915050565b611aa261209f565b73ffffffffffffffffffffffffffffffffffffffff168573ffffffffffffffffffffffffffffffffffffffff161480611ae85750611ae785611ae261209f565b611a06565b5b611b27576040517f08c379a0000000000000000000000000000000000000000000000000000000008152600401611b1e90614794565b60405180910390fd5b611b348585858585612622565b5050505050565b8060049081611b4a9190614d38565b5050565b600081600001549050919050565b60007f7965db0b000000000000000000000000000000000000000000000000000000007bffffffffffffffffffffffffffffffffffffffffffffffffffffffff1916827bffffffffffffffffffffffffffffffffffffffffffffffffffffffff19161480611bcf5750611bce826128bd565b5b9050919050565b60606000600560008481526020019081526020016000208054611bf8906143d3565b80601f0160208091040260200160405190810160405280929190818152602001828054611c24906143d3565b8015611c715780601f10611c4657610100808354040283529160200191611c71565b820191906000526020600020905b815481529060010190602001808311611c5457829003601f168201915b505050505090506000815111611c8f57611c8a8361299f565b611cb3565b600481604051602001611ca3929190614ec9565b6040516020818303038152906040525b915050919050565b611ccc81611cc761209f565b612a33565b50565b611cd9828261167f565b611dac5760016003600084815260200190815260200160002060000160008373ffffffffffffffffffffffffffffffffffffffff1673ffffffffffffffffffffffffffffffffffffffff16815260200190815260200160002060006101000a81548160ff021916908315150217905550611d5161209f565b73ffffffffffffffffffffffffffffffffffffffff168173ffffffffffffffffffffffffffffffffffffffff16837f2f8788117e7eff1d82e926ec794901d17c78024a50270940304540a733656f0d60405160405180910390a45b5050565b611dba828261167f565b15611e8e5760006003600084815260200190815260200160002060000160008373ffffffffffffffffffffffffffffffffffffffff1673ffffffffffffffffffffffffffffffffffffffff16815260200190815260200160002060006101000a81548160ff021916908315150217905550611e3361209f565b73ffffffffffffffffffffffffffffffffffffffff168173ffffffffffffffffffffffffffffffffffffffff16837ff6391f5c32d9c69d2a47ea670b442974b53935d1edc7fd64eb21e047a839171b60405160405180910390a45b5050565b6001816000016000828254019250508190555050565b611eb28282612ab8565b7fcb8a581c366c006d079f78b3f29b10e2bf252c6a9df7fb60286aa83c09bbd0b18282604051611ee3929190614eed565b60405180910390a15050565b600073ffffffffffffffffffffffffffffffffffffffff168473ffffffffffffffffffffffffffffffffffffffff1603611f5e576040517f08c379a0000000000000000000000000000000000000000000000000000000008152600401611f5590614f8f565b60405180910390fd5b6000611f6861209f565b90506000611f7585612b1d565b90506000611f8285612b1d565b9050611f9383600089858589612b97565b8460008088815260200190815260200160002060008973ffffffffffffffffffffffffffffffffffffffff1673ffffffffffffffffffffffffffffffffffffffff1681526020019081526020016000206000828254611ff2919061448f565b925050819055508673ffffffffffffffffffffffffffffffffffffffff16600073ffffffffffffffffffffffffffffffffffffffff168473ffffffffffffffffffffffffffffffffffffffff167fc3d58168c5ae7397731d063d5bbf3d657854427343f4c083240f7aacaa2d0f62898960405161207092919061450b565b60405180910390a461208783600089858589612b9f565b61209683600089898989612ba7565b50505050505050565b600033905090565b81518351146120eb576040517f08c379a00000000000000000000000000000000000000000000000000000000081526004016120e290615021565b60405180910390fd5b600073ffffffffffffffffffffffffffffffffffffffff168473ffffffffffffffffffffffffffffffffffffffff160361215a576040517f08c379a0000000000000000000000000000000000000000000000000000000008152600401612151906150b3565b60405180910390fd5b600061216461209f565b9050612174818787878787612b97565b60005b845181101561232557600085828151811061219557612194614404565b5b6020026020010151905060008583815181106121b4576121b3614404565b5b60200260200101519050600080600084815260200190815260200160002060008b73ffffffffffffffffffffffffffffffffffffffff1673ffffffffffffffffffffffffffffffffffffffff16815260200190815260200160002054905081811015612255576040517f08c379a000000000000000000000000000000000000000000000000000000000815260040161224c90615145565b60405180910390fd5b81810360008085815260200190815260200160002060008c73ffffffffffffffffffffffffffffffffffffffff1673ffffffffffffffffffffffffffffffffffffffff168152602001908152602001600020819055508160008085815260200190815260200160002060008b73ffffffffffffffffffffffffffffffffffffffff1673ffffffffffffffffffffffffffffffffffffffff168152602001908152602001600020600082825461230a919061448f565b925050819055505050508061231e906144c3565b9050612177565b508473ffffffffffffffffffffffffffffffffffffffff168673ffffffffffffffffffffffffffffffffffffffff168273ffffffffffffffffffffffffffffffffffffffff167f4a39dc06d4c0dbc64b70af90fd698a233a518aa5d07e595d983b8c0526c8f7fb878760405161239c929190615165565b60405180910390a46123b2818787878787612b9f565b6123c0818787878787612d7e565b505050505050565b600080600a600087815260200190815260200160002090506000801b816002015403612429576040517f08c379a00000000000000000000000000000000000000000000000000000000081526004016124209061520e565b60405180910390fd5b6000816002015490506000866040516020016124459190615276565b6040516020818303038152906040528051906020012090506124a9868680806020026020016040519081016040528093929190818152602001838360200280828437600081840152601f19601f820116905080830192505050505050508383612f55565b9350505050949350505050565b8173ffffffffffffffffffffffffffffffffffffffff168373ffffffffffffffffffffffffffffffffffffffff1603612524576040517f08c379a000000000000000000000000000000000000000000000000000000000815260040161251b90615303565b60405180910390fd5b80600160008573ffffffffffffffffffffffffffffffffffffffff1673ffffffffffffffffffffffffffffffffffffffff16815260200190815260200160002060008473ffffffffffffffffffffffffffffffffffffffff1673ffffffffffffffffffffffffffffffffffffffff16815260200190815260200160002060006101000a81548160ff0219169083151502179055508173ffffffffffffffffffffffffffffffffffffffff168373ffffffffffffffffffffffffffffffffffffffff167f17307eab39ab6107e8899845ad3d59bd9653f200f220920489ca2b5937696c318360405161261591906134f6565b60405180910390a3505050565b600073ffffffffffffffffffffffffffffffffffffffff168473ffffffffffffffffffffffffffffffffffffffff1603612691576040517f08c379a0000000000000000000000000000000000000000000000000000000008152600401612688906150b3565b60405180910390fd5b600061269b61209f565b905060006126a885612b1d565b905060006126b585612b1d565b90506126c5838989858589612b97565b600080600088815260200190815260200160002060008a73ffffffffffffffffffffffffffffffffffffffff1673ffffffffffffffffffffffffffffffffffffffff1681526020019081526020016000205490508581101561275c576040517f08c379a000000000000000000000000000000000000000000000000000000000815260040161275390615145565b60405180910390fd5b85810360008089815260200190815260200160002060008b73ffffffffffffffffffffffffffffffffffffffff1673ffffffffffffffffffffffffffffffffffffffff168152602001908152602001600020819055508560008089815260200190815260200160002060008a73ffffffffffffffffffffffffffffffffffffffff1673ffffffffffffffffffffffffffffffffffffffff1681526020019081526020016000206000828254612811919061448f565b925050819055508773ffffffffffffffffffffffffffffffffffffffff168973ffffffffffffffffffffffffffffffffffffffff168573ffffffffffffffffffffffffffffffffffffffff167fc3d58168c5ae7397731d063d5bbf3d657854427343f4c083240f7aacaa2d0f628a8a60405161288e92919061450b565b60405180910390a46128a4848a8a86868a612b9f565b6128b2848a8a8a8a8a612ba7565b505050505050505050565b60007fd9b67a26000000000000000000000000000000000000000000000000000000007bffffffffffffffffffffffffffffffffffffffffffffffffffffffff1916827bffffffffffffffffffffffffffffffffffffffffffffffffffffffff1916148061298857507f0e89341c000000000000000000000000000000000000000000000000000000007bffffffffffffffffffffffffffffffffffffffffffffffffffffffff1916827bffffffffffffffffffffffffffffffffffffffffffffffffffffffff1916145b80612998575061299782612f6c565b5b9050919050565b6060600280546129ae906143d3565b80601f01602080910402602001604051908101604052809291908181526020018280546129da906143d3565b8015612a275780601f106129fc57610100808354040283529160200191612a27565b820191906000526020600020905b815481529060010190602001808311612a0a57829003601f168201915b50505050509050919050565b612a3d828261167f565b612ab457612a4a81612fd6565b612a588360001c6020613003565b604051602001612a699291906153bb565b6040516020818303038152906040526040517f08c379a0000000000000000000000000000000000000000000000000000000008152600401612aab91906135a1565b60405180910390fd5b5050565b80600560008481526020019081526020016000209081612ad89190614d38565b50817f6bb7ff708619ba0610cba295a58592e0451dee2622938c8755667688daf3529b612b0484610753565b604051612b1191906135a1565b60405180910390a25050565b60606000600167ffffffffffffffff811115612b3c57612b3b6136db565b5b604051908082528060200260200182016040528015612b6a5781602001602082028036833780820191505090505b5090508281600081518110612b8257612b81614404565b5b60200260200101818152505080915050919050565b505050505050565b505050505050565b612bc68473ffffffffffffffffffffffffffffffffffffffff1661323f565b15612d76578373ffffffffffffffffffffffffffffffffffffffff1663f23a6e6187878686866040518663ffffffff1660e01b8152600401612c0c95949392919061544a565b6020604051808303816000875af1925050508015612c4857506040513d601f19601f82011682018060405250810190612c4591906154b9565b60015b612ced57612c546154f3565b806308c379a003612cb05750612c68615515565b80612c735750612cb2565b806040517f08c379a0000000000000000000000000000000000000000000000000000000008152600401612ca791906135a1565b60405180910390fd5b505b6040517f08c379a0000000000000000000000000000000000000000000000000000000008152600401612ce490615617565b60405180910390fd5b63f23a6e6160e01b7bffffffffffffffffffffffffffffffffffffffffffffffffffffffff1916817bffffffffffffffffffffffffffffffffffffffffffffffffffffffff191614612d74576040517f08c379a0000000000000000000000000000000000000000000000000000000008152600401612d6b906156a9565b60405180910390fd5b505b505050505050565b612d9d8473ffffffffffffffffffffffffffffffffffffffff1661323f565b15612f4d578373ffffffffffffffffffffffffffffffffffffffff1663bc197c8187878686866040518663ffffffff1660e01b8152600401612de39594939291906156c9565b6020604051808303816000875af1925050508015612e1f57506040513d601f19601f82011682018060405250810190612e1c91906154b9565b60015b612ec457612e2b6154f3565b806308c379a003612e875750612e3f615515565b80612e4a5750612e89565b806040517f08c379a0000000000000000000000000000000000000000000000000000000008152600401612e7e91906135a1565b60405180910390fd5b505b6040517f08c379a0000000000000000000000000000000000000000000000000000000008152600401612ebb90615617565b60405180910390fd5b63bc197c8160e01b7bffffffffffffffffffffffffffffffffffffffffffffffffffffffff1916817bffffffffffffffffffffffffffffffffffffffffffffffffffffffff191614612f4b576040517f08c379a0000000000000000000000000000000000000000000000000000000008152600401612f42906156a9565b60405180910390fd5b505b505050505050565b600082612f628584613262565b1490509392505050565b60007f01ffc9a7000000000000000000000000000000000000000000000000000000007bffffffffffffffffffffffffffffffffffffffffffffffffffffffff1916827bffffffffffffffffffffffffffffffffffffffffffffffffffffffff1916149050919050565b6060612ffc8273ffffffffffffffffffffffffffffffffffffffff16601460ff16613003565b9050919050565b6060600060028360026130169190615731565b613020919061448f565b67ffffffffffffffff811115613039576130386136db565b5b6040519080825280601f01601f19166020018201604052801561306b5781602001600182028036833780820191505090505b5090507f3000000000000000000000000000000000000000000000000000000000000000816000815181106130a3576130a2614404565b5b60200101907effffffffffffffffffffffffffffffffffffffffffffffffffffffffffffff1916908160001a9053507f78000000000000000000000000000000000000000000000000000000000000008160018151811061310757613106614404565b5b60200101907effffffffffffffffffffffffffffffffffffffffffffffffffffffffffffff1916908160001a905350600060018460026131479190615731565b613151919061448f565b90505b60018111156131f1577f3031323334353637383961626364656600000000000000000000000000000000600f86166010811061319357613192614404565b5b1a60f81b8282815181106131aa576131a9614404565b5b60200101907effffffffffffffffffffffffffffffffffffffffffffffffffffffffffffff1916908160001a905350600485901c9450806131ea90615773565b9050613154565b5060008414613235576040517f08c379a000000000000000000000000000000000000000000000000000000000815260040161322c906157e8565b60405180910390fd5b8091505092915050565b6000808273ffffffffffffffffffffffffffffffffffffffff163b119050919050565b60008082905060005b84518110156132ad576132988286838151811061328b5761328a614404565b5b60200260200101516132b8565b915080806132a5906144c3565b91505061326b565b508091505092915050565b60008183106132d0576132cb82846132e3565b6132db565b6132da83836132e3565b5b905092915050565b600082600052816020526040600020905092915050565b6040518060a0016040528060008152602001600073ffffffffffffffffffffffffffffffffffffffff16815260200160008019168152602001600015158152602001606081525090565b6000604051905090565b600080fd5b600080fd5b600073ffffffffffffffffffffffffffffffffffffffff82169050919050565b600061338382613358565b9050919050565b61339381613378565b811461339e57600080fd5b50565b6000813590506133b08161338a565b92915050565b6000819050919050565b6133c9816133b6565b81146133d457600080fd5b50565b6000813590506133e6816133c0565b92915050565b600080604083850312156134035761340261334e565b5b6000613411858286016133a1565b9250506020613422858286016133d7565b9150509250929050565b613435816133b6565b82525050565b6000602082019050613450600083018461342c565b92915050565b60007fffffffff0000000000000000000000000000000000000000000000000000000082169050919050565b61348b81613456565b811461349657600080fd5b50565b6000813590506134a881613482565b92915050565b6000602082840312156134c4576134c361334e565b5b60006134d284828501613499565b91505092915050565b60008115159050919050565b6134f0816134db565b82525050565b600060208201905061350b60008301846134e7565b92915050565b600081519050919050565b600082825260208201905092915050565b60005b8381101561354b578082015181840152602081019050613530565b60008484015250505050565b6000601f19601f8301169050919050565b600061357382613511565b61357d818561351c565b935061358d81856020860161352d565b61359681613557565b840191505092915050565b600060208201905081810360008301526135bb8184613568565b905092915050565b6000602082840312156135d9576135d861334e565b5b60006135e7848285016133d7565b91505092915050565b600080fd5b600080fd5b600080fd5b60008083601f840112613615576136146135f0565b5b8235905067ffffffffffffffff811115613632576136316135f5565b5b60208301915083602082028301111561364e5761364d6135fa565b5b9250929050565b6000806000806040858703121561366f5761366e61334e565b5b600085013567ffffffffffffffff81111561368d5761368c613353565b5b613699878288016135ff565b9450945050602085013567ffffffffffffffff8111156136bc576136bb613353565b5b6136c8878288016135ff565b925092505092959194509250565b600080fd5b7f4e487b7100000000000000000000000000000000000000000000000000000000600052604160045260246000fd5b61371382613557565b810181811067ffffffffffffffff82111715613732576137316136db565b5b80604052505050565b6000613745613344565b9050613751828261370a565b919050565b600067ffffffffffffffff821115613771576137706136db565b5b61377a82613557565b9050602081019050919050565b82818337600083830152505050565b60006137a96137a484613756565b61373b565b9050828152602081018484840111156137c5576137c46136d6565b5b6137d0848285613787565b509392505050565b600082601f8301126137ed576137ec6135f0565b5b81356137fd848260208601613796565b91505092915050565b6000819050919050565b61381981613806565b811461382457600080fd5b50565b60008135905061383681613810565b92915050565b600080604083850312156138535761385261334e565b5b600083013567ffffffffffffffff81111561387157613870613353565b5b61387d858286016137d8565b925050602061388e85828601613827565b9150509250929050565b600080604083850312156138af576138ae61334e565b5b60006138bd858286016133d7565b92505060206138ce85828601613827565b9150509250929050565b600080604083850312156138ef576138ee61334e565b5b60006138fd858286016133d7565b925050602083013567ffffffffffffffff81111561391e5761391d613353565b5b61392a858286016137d8565b9150509250929050565b60006020828403121561394a5761394961334e565b5b600061395884828501613827565b91505092915050565b61396a81613806565b82525050565b60006020820190506139856000830184613961565b92915050565b600067ffffffffffffffff8211156139a6576139a56136db565b5b602082029050602081019050919050565b60006139ca6139c58461398b565b61373b565b905080838252602082019050602084028301858111156139ed576139ec6135fa565b5b835b81811015613a165780613a0288826133d7565b8452602084019350506020810190506139ef565b5050509392505050565b600082601f830112613a3557613a346135f0565b5b8135613a458482602086016139b7565b91505092915050565b600067ffffffffffffffff821115613a6957613a686136db565b5b613a7282613557565b9050602081019050919050565b6000613a92613a8d84613a4e565b61373b565b905082815260208101848484011115613aae57613aad6136d6565b5b613ab9848285613787565b509392505050565b600082601f830112613ad657613ad56135f0565b5b8135613ae6848260208601613a7f565b91505092915050565b600080600080600060a08688031215613b0b57613b0a61334e565b5b6000613b19888289016133a1565b9550506020613b2a888289016133a1565b945050604086013567ffffffffffffffff811115613b4b57613b4a613353565b5b613b5788828901613a20565b935050606086013567ffffffffffffffff811115613b7857613b77613353565b5b613b8488828901613a20565b925050608086013567ffffffffffffffff811115613ba557613ba4613353565b5b613bb188828901613ac1565b9150509295509295909350565b60008060408385031215613bd557613bd461334e565b5b6000613be385828601613827565b9250506020613bf4858286016133a1565b9150509250929050565b600067ffffffffffffffff821115613c1957613c186136db565b5b602082029050602081019050919050565b6000613c3d613c3884613bfe565b61373b565b90508083825260208201905060208402830185811115613c6057613c5f6135fa565b5b835b81811015613c895780613c7588826133a1565b845260208401935050602081019050613c62565b5050509392505050565b600082601f830112613ca857613ca76135f0565b5b8135613cb8848260208601613c2a565b91505092915050565b60008060408385031215613cd857613cd761334e565b5b600083013567ffffffffffffffff811115613cf657613cf5613353565b5b613d0285828601613c93565b925050602083013567ffffffffffffffff811115613d2357613d22613353565b5b613d2f85828601613a20565b9150509250929050565b600081519050919050565b600082825260208201905092915050565b6000819050602082019050919050565b613d6e816133b6565b82525050565b6000613d808383613d65565b60208301905092915050565b6000602082019050919050565b6000613da482613d39565b613dae8185613d44565b9350613db983613d55565b8060005b83811015613dea578151613dd18882613d74565b9750613ddc83613d8c565b925050600181019050613dbd565b5085935050505092915050565b60006020820190508181036000830152613e118184613d99565b905092915050565b600081519050919050565b600082825260208201905092915050565b6000819050602082019050919050565b613e4e81613378565b82525050565b613e5d81613806565b82525050565b613e6c816134db565b82525050565b600081519050919050565b600082825260208201905092915050565b6000819050602082019050919050565b6000613eaa8383613e45565b60208301905092915050565b6000602082019050919050565b6000613ece82613e72565b613ed88185613e7d565b9350613ee383613e8e565b8060005b83811015613f14578151613efb8882613e9e565b9750613f0683613eb6565b925050600181019050613ee7565b5085935050505092915050565b600060a083016000830151613f396000860182613d65565b506020830151613f4c6020860182613e45565b506040830151613f5f6040860182613e54565b506060830151613f726060860182613e63565b5060808301518482036080860152613f8a8282613ec3565b9150508091505092915050565b6000613fa38383613f21565b905092915050565b6000602082019050919050565b6000613fc382613e19565b613fcd8185613e24565b935083602082028501613fdf85613e35565b8060005b8581101561401b5784840389528151613ffc8582613f97565b945061400783613fab565b925060208a01995050600181019050613fe3565b50829750879550505050505092915050565b600060208201905081810360008301526140478184613fb8565b905092915050565b60008083601f840112614065576140646135f0565b5b8235905067ffffffffffffffff811115614082576140816135f5565b5b60208301915083602082028301111561409e5761409d6135fa565b5b9250929050565b600080600080606085870312156140bf576140be61334e565b5b60006140cd878288016133a1565b94505060206140de878288016133d7565b935050604085013567ffffffffffffffff8111156140ff576140fe613353565b5b61410b8782880161404f565b925092505092959194509250565b614122816134db565b811461412d57600080fd5b50565b60008135905061413f81614119565b92915050565b6000806040838503121561415c5761415b61334e565b5b600061416a858286016133d7565b925050602061417b85828601614130565b9150509250929050565b60006020828403121561419b5761419a61334e565b5b600082013567ffffffffffffffff8111156141b9576141b8613353565b5b6141c5848285016137d8565b91505092915050565b600080604083850312156141e5576141e461334e565b5b60006141f3858286016133a1565b925050602061420485828601614130565b9150509250929050565b6000602082840312156142245761422361334e565b5b600061423284828501614130565b91505092915050565b600080604083850312156142525761425161334e565b5b6000614260858286016133a1565b9250506020614271858286016133a1565b9150509250929050565b600080600080600060a086880312156142975761429661334e565b5b60006142a5888289016133a1565b95505060206142b6888289016133a1565b94505060406142c7888289016133d7565b93505060606142d8888289016133d7565b925050608086013567ffffffffffffffff8111156142f9576142f8613353565b5b61430588828901613ac1565b9150509295509295909350565b7f455243313135353a2061646472657373207a65726f206973206e6f742061207660008201527f616c6964206f776e657200000000000000000000000000000000000000000000602082015250565b600061436e602a8361351c565b915061437982614312565b604082019050919050565b6000602082019050818103600083015261439d81614361565b9050919050565b7f4e487b7100000000000000000000000000000000000000000000000000000000600052602260045260246000fd5b600060028204905060018216806143eb57607f821691505b6020821081036143fe576143fd6143a4565b5b50919050565b7f4e487b7100000000000000000000000000000000000000000000000000000000600052603260045260246000fd5b6000602082840312156144495761444861334e565b5b6000614457848285016133a1565b91505092915050565b7f4e487b7100000000000000000000000000000000000000000000000000000000600052601160045260246000fd5b600061449a826133b6565b91506144a5836133b6565b92508282019050808211156144bd576144bc614460565b5b92915050565b60006144ce826133b6565b91507fffffffffffffffffffffffffffffffffffffffffffffffffffffffffffffffff8203614500576144ff614460565b5b600182019050919050565b6000604082019050614520600083018561342c565b61452d602083018461342c565b9392505050565b7f43616e6e6f742063726561746520746f6b656e7320617420746869732074696d60008201527f652e000000000000000000000000000000000000000000000000000000000000602082015250565b600061459060228361351c565b915061459b82614534565b604082019050919050565b600060208201905081810360008301526145bf81614583565b9050919050565b6145cf81613378565b82525050565b60006040820190506145ea600083018561342c565b6145f760208301846145c6565b9392505050565b7f416374696f6e206e6f7420616c6c6f7765643a20736574206d65726b6c65207260008201527f6f6f740000000000000000000000000000000000000000000000000000000000602082015250565b600061465a60238361351c565b9150614665826145fe565b604082019050919050565b600060208201905081810360008301526146898161464d565b9050919050565b7f416374696f6e206e6f7420616c6c6f7765643a20757064617465546f6b656e5560008201527f5249000000000000000000000000000000000000000000000000000000000000602082015250565b60006146ec60228361351c565b91506146f782614690565b604082019050919050565b6000602082019050818103600083015261471b816146df565b9050919050565b7f455243313135353a2063616c6c6572206973206e6f7420746f6b656e206f776e60008201527f6572206f7220617070726f766564000000000000000000000000000000000000602082015250565b600061477e602e8361351c565b915061478982614722565b604082019050919050565b600060208201905081810360008301526147ad81614771565b9050919050565b7f416363657373436f6e74726f6c3a2063616e206f6e6c792072656e6f756e636560008201527f20726f6c657320666f722073656c660000000000000000000000000000000000602082015250565b6000614810602f8361351c565b915061481b826147b4565b604082019050919050565b6000602082019050818103600083015261483f81614803565b9050919050565b7f455243313135353a206163636f756e747320616e6420696473206c656e67746860008201527f206d69736d617463680000000000000000000000000000000000000000000000602082015250565b60006148a260298361351c565b91506148ad82614846565b604082019050919050565b600060208201905081810360008301526148d181614895565b9050919050565b7f496e76616c696420746f6b656e20696400000000000000000000000000000000600082015250565b600061490e60108361351c565b9150614919826148d8565b602082019050919050565b6000602082019050818103600083015261493d81614901565b9050919050565b7f546f6b656e20616c726561647920636c61696d6564206279207468697320776160008201527f6c6c657400000000000000000000000000000000000000000000000000000000602082015250565b60006149a060248361351c565b91506149ab82614944565b604082019050919050565b600060208201905081810360008301526149cf81614993565b9050919050565b7f546f6b656e206973206e6f7420636c61696d61626c652061742074686973206d60008201527f6f6d656e74000000000000000000000000000000000000000000000000000000602082015250565b6000614a3260258361351c565b9150614a3d826149d6565b604082019050919050565b60006020820190508181036000830152614a6181614a25565b9050919050565b7f41646472657373206973206e6f7420616c6c6f77656420746f20636c61696d2060008201527f7468652072657175657374656420746f6b656e00000000000000000000000000602082015250565b6000614ac460338361351c565b9150614acf82614a68565b604082019050919050565b60006020820190508181036000830152614af381614ab7565b9050919050565b7f416374696f6e206e6f7420616c6c6f7765643a20626c6f636b546f6b656e4d6960008201527f6e74000000000000000000000000000000000000000000000000000000000000602082015250565b6000614b5660228361351c565b9150614b6182614afa565b604082019050919050565b60006020820190508181036000830152614b8581614b49565b9050919050565b60008190508160005260206000209050919050565b60006020601f8301049050919050565b600082821b905092915050565b600060088302614bee7fffffffffffffffffffffffffffffffffffffffffffffffffffffffffffffffff82614bb1565b614bf88683614bb1565b95508019841693508086168417925050509392505050565b6000819050919050565b6000614c35614c30614c2b846133b6565b614c10565b6133b6565b9050919050565b6000819050919050565b614c4f83614c1a565b614c63614c5b82614c3c565b848454614bbe565b825550505050565b600090565b614c78614c6b565b614c83818484614c46565b505050565b5b81811015614ca757614c9c600082614c70565b600181019050614c89565b5050565b601f821115614cec57614cbd81614b8c565b614cc684614ba1565b81016020851015614cd5578190505b614ce9614ce185614ba1565b830182614c88565b50505b505050565b600082821c905092915050565b6000614d0f60001984600802614cf1565b1980831691505092915050565b6000614d288383614cfe565b9150826002028217905092915050565b614d4182613511565b67ffffffffffffffff811115614d5a57614d596136db565b5b614d6482546143d3565b614d6f828285614cab565b600060209050601f831160018114614da25760008415614d90578287015190505b614d9a8582614d1c565b865550614e02565b601f198416614db086614b8c565b60005b82811015614dd857848901518255600182019150602085019450602081019050614db3565b86831015614df55784890151614df1601f891682614cfe565b8355505b6001600288020188555050505b505050505050565b600081905092915050565b60008154614e22816143d3565b614e2c8186614e0a565b94506001821660008114614e475760018114614e5c57614e8f565b60ff1983168652811515820286019350614e8f565b614e6585614b8c565b60005b83811015614e8757815481890152600182019150602081019050614e68565b838801955050505b50505092915050565b6000614ea382613511565b614ead8185614e0a565b9350614ebd81856020860161352d565b80840191505092915050565b6000614ed58285614e15565b9150614ee18284614e98565b91508190509392505050565b6000604082019050614f02600083018561342c565b8181036020830152614f148184613568565b90509392505050565b7f455243313135353a206d696e7420746f20746865207a65726f2061646472657360008201527f7300000000000000000000000000000000000000000000000000000000000000602082015250565b6000614f7960218361351c565b9150614f8482614f1d565b604082019050919050565b60006020820190508181036000830152614fa881614f6c565b9050919050565b7f455243313135353a2069647320616e6420616d6f756e7473206c656e6774682060008201527f6d69736d61746368000000000000000000000000000000000000000000000000602082015250565b600061500b60288361351c565b915061501682614faf565b604082019050919050565b6000602082019050818103600083015261503a81614ffe565b9050919050565b7f455243313135353a207472616e7366657220746f20746865207a65726f20616460008201527f6472657373000000000000000000000000000000000000000000000000000000602082015250565b600061509d60258361351c565b91506150a882615041565b604082019050919050565b600060208201905081810360008301526150cc81615090565b9050919050565b7f455243313135353a20696e73756666696369656e742062616c616e636520666f60008201527f72207472616e7366657200000000000000000000000000000000000000000000602082015250565b600061512f602a8361351c565b915061513a826150d3565b604082019050919050565b6000602082019050818103600083015261515e81615122565b9050919050565b6000604082019050818103600083015261517f8185613d99565b905081810360208301526151938184613d99565b90509392505050565b7f4e6f2077686974656c69737420666f756e6420666f722072657175657374656460008201527f20746f6b656e0000000000000000000000000000000000000000000000000000602082015250565b60006151f860268361351c565b91506152038261519c565b604082019050919050565b60006020820190508181036000830152615227816151eb565b9050919050565b60008160601b9050919050565b60006152468261522e565b9050919050565b60006152588261523b565b9050919050565b61527061526b82613378565b61524d565b82525050565b6000615282828461525f565b60148201915081905092915050565b7f455243313135353a2073657474696e6720617070726f76616c2073746174757360008201527f20666f722073656c660000000000000000000000000000000000000000000000602082015250565b60006152ed60298361351c565b91506152f882615291565b604082019050919050565b6000602082019050818103600083015261531c816152e0565b9050919050565b7f416363657373436f6e74726f6c3a206163636f756e7420000000000000000000600082015250565b6000615359601783614e0a565b915061536482615323565b601782019050919050565b7f206973206d697373696e6720726f6c6520000000000000000000000000000000600082015250565b60006153a5601183614e0a565b91506153b08261536f565b601182019050919050565b60006153c68261534c565b91506153d28285614e98565b91506153dd82615398565b91506153e98284614e98565b91508190509392505050565b600081519050919050565b600082825260208201905092915050565b600061541c826153f5565b6154268185615400565b935061543681856020860161352d565b61543f81613557565b840191505092915050565b600060a08201905061545f60008301886145c6565b61546c60208301876145c6565b615479604083018661342c565b615486606083018561342c565b81810360808301526154988184615411565b90509695505050505050565b6000815190506154b381613482565b92915050565b6000602082840312156154cf576154ce61334e565b5b60006154dd848285016154a4565b91505092915050565b60008160e01c9050919050565b600060033d11156155125760046000803e61550f6000516154e6565b90505b90565b600060443d106155a257615527613344565b60043d036004823e80513d602482011167ffffffffffffffff8211171561554f5750506155a2565b808201805167ffffffffffffffff81111561556d57505050506155a2565b80602083010160043d03850181111561558a5750505050506155a2565b6155998260200185018661370a565b82955050505050505b90565b7f455243313135353a207472616e7366657220746f206e6f6e2d4552433131353560008201527f526563656976657220696d706c656d656e746572000000000000000000000000602082015250565b600061560160348361351c565b915061560c826155a5565b604082019050919050565b60006020820190508181036000830152615630816155f4565b9050919050565b7f455243313135353a204552433131353552656365697665722072656a6563746560008201527f6420746f6b656e73000000000000000000000000000000000000000000000000602082015250565b600061569360288361351c565b915061569e82615637565b604082019050919050565b600060208201905081810360008301526156c281615686565b9050919050565b600060a0820190506156de60008301886145c6565b6156eb60208301876145c6565b81810360408301526156fd8186613d99565b905081810360608301526157118185613d99565b905081810360808301526157258184615411565b90509695505050505050565b600061573c826133b6565b9150615747836133b6565b9250828202615755816133b6565b9150828204841483151761576c5761576b614460565b5b5092915050565b600061577e826133b6565b91506000820361579157615790614460565b5b600182039050919050565b7f537472696e67733a20686578206c656e67746820696e73756666696369656e74600082015250565b60006157d260208361351c565b91506157dd8261579c565b602082019050919050565b60006020820190508181036000830152615801816157c5565b905091905056fea26469706673582212207eb9addde8c0f6b2782b13b04b428fe94157ce3e755c23c1b4e5d5c8c9cbcc5964736f6c63430008120033",
    "linkReferences": {},
    "deployedLinkReferences": {}
}