{
  "_format": "hh-sol-artifact-1",
  "contractName": "Rewards",
  "sourceName": "contracts/Rewards.sol",
  "abi": [
    {
      "inputs": [
        {
          "internalType": "string",
          "name": "name_",
          "type": "string"
        },
        {
          "internalType": "string",
          "name": "symbol_",
          "type": "string"
        },
        {
          "internalType": "string",
          "name": "baseUri",
          "type": "string"
        }
      ],
      "stateMutability": "nonpayable",
      "type": "constructor"
    },
    {
      "anonymous": false,
      "inputs": [
        {
          "indexed": true,
          "internalType": "address",
          "name": "account",
          "type": "address"
        },
        {
          "indexed": true,
          "internalType": "address",
          "name": "operator",
          "type": "address"
        },
        {
          "indexed": false,
          "internalType": "bool",
          "name": "approved",
          "type": "bool"
        }
      ],
      "name": "ApprovalForAll",
      "type": "event"
    },
    {
      "anonymous": false,
      "inputs": [
        {
          "indexed": false,
          "internalType": "uint256",
          "name": "tokenId",
          "type": "uint256"
        },
        {
          "indexed": false,
          "internalType": "address",
          "name": "modifiedBy",
          "type": "address"
        }
      ],
      "name": "MerkleRootChange",
      "type": "event"
    },
    {
      "anonymous": false,
      "inputs": [
        {
          "indexed": true,
          "internalType": "bytes32",
          "name": "role",
          "type": "bytes32"
        },
        {
          "indexed": true,
          "internalType": "bytes32",
          "name": "previousAdminRole",
          "type": "bytes32"
        },
        {
          "indexed": true,
          "internalType": "bytes32",
          "name": "newAdminRole",
          "type": "bytes32"
        }
      ],
      "name": "RoleAdminChanged",
      "type": "event"
    },
    {
      "anonymous": false,
      "inputs": [
        {
          "indexed": true,
          "internalType": "bytes32",
          "name": "role",
          "type": "bytes32"
        },
        {
          "indexed": true,
          "internalType": "address",
          "name": "account",
          "type": "address"
        },
        {
          "indexed": true,
          "internalType": "address",
          "name": "sender",
          "type": "address"
        }
      ],
      "name": "RoleGranted",
      "type": "event"
    },
    {
      "anonymous": false,
      "inputs": [
        {
          "indexed": true,
          "internalType": "bytes32",
          "name": "role",
          "type": "bytes32"
        },
        {
          "indexed": true,
          "internalType": "address",
          "name": "account",
          "type": "address"
        },
        {
          "indexed": true,
          "internalType": "address",
          "name": "sender",
          "type": "address"
        }
      ],
      "name": "RoleRevoked",
      "type": "event"
    },
    {
      "anonymous": false,
      "inputs": [
        {
          "indexed": false,
          "internalType": "uint256",
          "name": "tokenId",
          "type": "uint256"
        },
        {
          "indexed": false,
          "internalType": "string",
          "name": "newUri",
          "type": "string"
        }
      ],
      "name": "SetUri",
      "type": "event"
    },
    {
      "anonymous": false,
      "inputs": [
        {
          "indexed": false,
          "internalType": "uint256",
          "name": "tokenId",
          "type": "uint256"
        },
        {
          "indexed": false,
          "internalType": "address",
          "name": "recipient",
          "type": "address"
        }
      ],
      "name": "TokenClaim",
      "type": "event"
    },
    {
      "anonymous": false,
      "inputs": [
        {
          "indexed": false,
          "internalType": "uint256",
          "name": "tokenId",
          "type": "uint256"
        },
        {
          "indexed": false,
          "internalType": "address",
          "name": "issuer",
          "type": "address"
        }
      ],
      "name": "TokenCreated",
      "type": "event"
    },
    {
      "anonymous": false,
      "inputs": [
        {
          "indexed": true,
          "internalType": "address",
          "name": "operator",
          "type": "address"
        },
        {
          "indexed": true,
          "internalType": "address",
          "name": "from",
          "type": "address"
        },
        {
          "indexed": true,
          "internalType": "address",
          "name": "to",
          "type": "address"
        },
        {
          "indexed": false,
          "internalType": "uint256[]",
          "name": "ids",
          "type": "uint256[]"
        },
        {
          "indexed": false,
          "internalType": "uint256[]",
          "name": "values",
          "type": "uint256[]"
        }
      ],
      "name": "TransferBatch",
      "type": "event"
    },
    {
      "anonymous": false,
      "inputs": [
        {
          "indexed": true,
          "internalType": "address",
          "name": "operator",
          "type": "address"
        },
        {
          "indexed": true,
          "internalType": "address",
          "name": "from",
          "type": "address"
        },
        {
          "indexed": true,
          "internalType": "address",
          "name": "to",
          "type": "address"
        },
        {
          "indexed": false,
          "internalType": "uint256",
          "name": "id",
          "type": "uint256"
        },
        {
          "indexed": false,
          "internalType": "uint256",
          "name": "value",
          "type": "uint256"
        }
      ],
      "name": "TransferSingle",
      "type": "event"
    },
    {
      "anonymous": false,
      "inputs": [
        {
          "indexed": false,
          "internalType": "string",
          "name": "value",
          "type": "string"
        },
        {
          "indexed": true,
          "internalType": "uint256",
          "name": "id",
          "type": "uint256"
        }
      ],
      "name": "URI",
      "type": "event"
    },
    {
      "anonymous": false,
      "inputs": [
        {
          "indexed": false,
          "internalType": "uint256",
          "name": "totalNew",
          "type": "uint256"
        },
        {
          "indexed": false,
          "internalType": "uint256",
          "name": "totalRevoke",
          "type": "uint256"
        }
      ],
      "name": "UpdateIssuers",
      "type": "event"
    },
    {
      "inputs": [],
      "name": "DEFAULT_ADMIN_ROLE",
      "outputs": [
        {
          "internalType": "bytes32",
          "name": "",
          "type": "bytes32"
        }
      ],
      "stateMutability": "view",
      "type": "function"
    },
    {
      "inputs": [],
      "name": "ISSUER_ROLE",
      "outputs": [
        {
          "internalType": "bytes32",
          "name": "",
          "type": "bytes32"
        }
      ],
      "stateMutability": "view",
      "type": "function"
    },
    {
      "inputs": [],
      "name": "_blockAllIssuers",
      "outputs": [
        {
          "internalType": "bool",
          "name": "",
          "type": "bool"
        }
      ],
      "stateMutability": "view",
      "type": "function"
    },
    {
      "inputs": [
        {
          "internalType": "address",
          "name": "account",
          "type": "address"
        },
        {
          "internalType": "uint256",
          "name": "id",
          "type": "uint256"
        }
      ],
      "name": "balanceOf",
      "outputs": [
        {
          "internalType": "uint256",
          "name": "",
          "type": "uint256"
        }
      ],
      "stateMutability": "view",
      "type": "function"
    },
    {
      "inputs": [
        {
          "internalType": "address[]",
          "name": "accounts",
          "type": "address[]"
        },
        {
          "internalType": "uint256[]",
          "name": "ids",
          "type": "uint256[]"
        }
      ],
      "name": "balanceOfBatch",
      "outputs": [
        {
          "internalType": "uint256[]",
          "name": "",
          "type": "uint256[]"
        }
      ],
      "stateMutability": "view",
      "type": "function"
    },
    {
      "inputs": [
        {
          "internalType": "bool",
          "name": "newStatus",
          "type": "bool"
        }
      ],
      "name": "blockTokensIssuing",
      "outputs": [],
      "stateMutability": "nonpayable",
      "type": "function"
    },
    {
      "inputs": [
        {
          "internalType": "string",
          "name": "tokenURI",
          "type": "string"
        },
        {
          "internalType": "bytes32",
          "name": "merkleRootHash",
          "type": "bytes32"
        }
      ],
      "name": "createToken",
      "outputs": [],
      "stateMutability": "nonpayable",
      "type": "function"
    },
    {
      "inputs": [],
      "name": "getAllListedTokens",
      "outputs": [
        {
          "components": [
            {
              "internalType": "uint256",
              "name": "tokenId",
              "type": "uint256"
            },
            {
              "internalType": "address",
              "name": "issuer",
              "type": "address"
            },
            {
              "internalType": "bytes32",
              "name": "merkletRoot",
              "type": "bytes32"
            },
            {
              "internalType": "bool",
              "name": "claimable",
              "type": "bool"
            },
            {
              "internalType": "address[]",
              "name": "claimers",
              "type": "address[]"
            }
          ],
          "internalType": "struct Rewards.ListedToken[]",
          "name": "",
          "type": "tuple[]"
        }
      ],
      "stateMutability": "view",
      "type": "function"
    },
    {
      "inputs": [],
      "name": "getMyTokens",
      "outputs": [
        {
          "components": [
            {
              "internalType": "uint256",
              "name": "tokenId",
              "type": "uint256"
            },
            {
              "internalType": "address",
              "name": "issuer",
              "type": "address"
            },
            {
              "internalType": "bytes32",
              "name": "merkletRoot",
              "type": "bytes32"
            },
            {
              "internalType": "bool",
              "name": "claimable",
              "type": "bool"
            },
            {
              "internalType": "address[]",
              "name": "claimers",
              "type": "address[]"
            }
          ],
          "internalType": "struct Rewards.ListedToken[]",
          "name": "",
          "type": "tuple[]"
        }
      ],
      "stateMutability": "view",
      "type": "function"
    },
    {
      "inputs": [
        {
          "internalType": "bytes32",
          "name": "role",
          "type": "bytes32"
        }
      ],
      "name": "getRoleAdmin",
      "outputs": [
        {
          "internalType": "bytes32",
          "name": "",
          "type": "bytes32"
        }
      ],
      "stateMutability": "view",
      "type": "function"
    },
    {
      "inputs": [],
      "name": "getTokenId",
      "outputs": [
        {
          "internalType": "uint256",
          "name": "",
          "type": "uint256"
        }
      ],
      "stateMutability": "view",
      "type": "function"
    },
    {
      "inputs": [
        {
          "internalType": "bytes32",
          "name": "role",
          "type": "bytes32"
        },
        {
          "internalType": "address",
          "name": "account",
          "type": "address"
        }
      ],
      "name": "grantRole",
      "outputs": [],
      "stateMutability": "nonpayable",
      "type": "function"
    },
    {
      "inputs": [
        {
          "internalType": "bytes32",
          "name": "role",
          "type": "bytes32"
        },
        {
          "internalType": "address",
          "name": "account",
          "type": "address"
        }
      ],
      "name": "hasRole",
      "outputs": [
        {
          "internalType": "bool",
          "name": "",
          "type": "bool"
        }
      ],
      "stateMutability": "view",
      "type": "function"
    },
    {
      "inputs": [
        {
          "internalType": "address",
          "name": "account",
          "type": "address"
        },
        {
          "internalType": "address",
          "name": "operator",
          "type": "address"
        }
      ],
      "name": "isApprovedForAll",
      "outputs": [
        {
          "internalType": "bool",
          "name": "",
          "type": "bool"
        }
      ],
      "stateMutability": "view",
      "type": "function"
    },
    {
      "inputs": [
        {
          "internalType": "address",
          "name": "to",
          "type": "address"
        },
        {
          "internalType": "uint256",
          "name": "tokenId",
          "type": "uint256"
        },
        {
          "internalType": "bytes32[]",
          "name": "merkleProof",
          "type": "bytes32[]"
        }
      ],
      "name": "mint",
      "outputs": [],
      "stateMutability": "nonpayable",
      "type": "function"
    },
    {
      "inputs": [],
      "name": "name",
      "outputs": [
        {
          "internalType": "string",
          "name": "",
          "type": "string"
        }
      ],
      "stateMutability": "view",
      "type": "function"
    },
    {
      "inputs": [
        {
          "internalType": "bytes32",
          "name": "role",
          "type": "bytes32"
        },
        {
          "internalType": "address",
          "name": "account",
          "type": "address"
        }
      ],
      "name": "renounceRole",
      "outputs": [],
      "stateMutability": "nonpayable",
      "type": "function"
    },
    {
      "inputs": [
        {
          "internalType": "bytes32",
          "name": "role",
          "type": "bytes32"
        },
        {
          "internalType": "address",
          "name": "account",
          "type": "address"
        }
      ],
      "name": "revokeRole",
      "outputs": [],
      "stateMutability": "nonpayable",
      "type": "function"
    },
    {
      "inputs": [
        {
          "internalType": "address",
          "name": "from",
          "type": "address"
        },
        {
          "internalType": "address",
          "name": "to",
          "type": "address"
        },
        {
          "internalType": "uint256[]",
          "name": "ids",
          "type": "uint256[]"
        },
        {
          "internalType": "uint256[]",
          "name": "amounts",
          "type": "uint256[]"
        },
        {
          "internalType": "bytes",
          "name": "data",
          "type": "bytes"
        }
      ],
      "name": "safeBatchTransferFrom",
      "outputs": [],
      "stateMutability": "nonpayable",
      "type": "function"
    },
    {
      "inputs": [
        {
          "internalType": "address",
          "name": "from",
          "type": "address"
        },
        {
          "internalType": "address",
          "name": "to",
          "type": "address"
        },
        {
          "internalType": "uint256",
          "name": "id",
          "type": "uint256"
        },
        {
          "internalType": "uint256",
          "name": "amount",
          "type": "uint256"
        },
        {
          "internalType": "bytes",
          "name": "data",
          "type": "bytes"
        }
      ],
      "name": "safeTransferFrom",
      "outputs": [],
      "stateMutability": "nonpayable",
      "type": "function"
    },
    {
      "inputs": [
        {
          "internalType": "address",
          "name": "operator",
          "type": "address"
        },
        {
          "internalType": "bool",
          "name": "approved",
          "type": "bool"
        }
      ],
      "name": "setApprovalForAll",
      "outputs": [],
      "stateMutability": "nonpayable",
      "type": "function"
    },
    {
      "inputs": [
        {
          "internalType": "uint256",
          "name": "tokenId",
          "type": "uint256"
        },
        {
          "internalType": "bytes32",
          "name": "merkleRootHash",
          "type": "bytes32"
        }
      ],
      "name": "setMerkleRoot",
      "outputs": [],
      "stateMutability": "nonpayable",
      "type": "function"
    },
    {
      "inputs": [
        {
          "internalType": "bytes4",
          "name": "interfaceId",
          "type": "bytes4"
        }
      ],
      "name": "supportsInterface",
      "outputs": [
        {
          "internalType": "bool",
          "name": "",
          "type": "bool"
        }
      ],
      "stateMutability": "view",
      "type": "function"
    },
    {
      "inputs": [],
      "name": "symbol",
      "outputs": [
        {
          "internalType": "string",
          "name": "",
          "type": "string"
        }
      ],
      "stateMutability": "view",
      "type": "function"
    },
    {
      "inputs": [
        {
          "internalType": "string",
          "name": "baseURI",
          "type": "string"
        }
      ],
      "name": "updateBaseURI",
      "outputs": [],
      "stateMutability": "nonpayable",
      "type": "function"
    },
    {
      "inputs": [
        {
          "internalType": "address[]",
          "name": "toAdd",
          "type": "address[]"
        },
        {
          "internalType": "address[]",
          "name": "toRemove",
          "type": "address[]"
        }
      ],
      "name": "updateTokenIssuersBatch",
      "outputs": [],
      "stateMutability": "nonpayable",
      "type": "function"
    },
    {
      "inputs": [
        {
          "internalType": "uint256",
          "name": "tokenId",
          "type": "uint256"
        },
        {
          "internalType": "string",
          "name": "tokenURI",
          "type": "string"
        }
      ],
      "name": "updateTokenURI",
      "outputs": [],
      "stateMutability": "nonpayable",
      "type": "function"
    },
    {
      "inputs": [
        {
          "internalType": "uint256",
          "name": "tokenId",
          "type": "uint256"
        }
      ],
      "name": "uri",
      "outputs": [
        {
          "internalType": "string",
          "name": "",
          "type": "string"
        }
      ],
      "stateMutability": "view",
      "type": "function"
    }
  ],
  "bytecode": "0x6080604052604051806020016040528060008152506004908162000024919062000512565b503480156200003257600080fd5b5060405162005dd238038062005dd283398181016040528101906200005891906200075d565b806200006a81620000f060201b60201c565b5082600690816200007c919062000512565b5081600790816200008e919062000512565b50620000a0816200010560201b60201c565b620000b56000801b336200011e60201b60201c565b620000e77f114e74f6ea3bd819998f78687bfcb11b140da08e9b7d222fa9c1f1ba1f2aa122336200011e60201b60201c565b50505062000816565b806002908162000101919062000512565b5050565b6200011b816200021060201b6200197b1760201c565b50565b6200013082826200022560201b60201c565b6200020c5760016003600084815260200190815260200160002060000160008373ffffffffffffffffffffffffffffffffffffffff1673ffffffffffffffffffffffffffffffffffffffff16815260200190815260200160002060006101000a81548160ff021916908315150217905550620001b16200029060201b60201c565b73ffffffffffffffffffffffffffffffffffffffff168173ffffffffffffffffffffffffffffffffffffffff16837f2f8788117e7eff1d82e926ec794901d17c78024a50270940304540a733656f0d60405160405180910390a45b5050565b806004908162000221919062000512565b5050565b60006003600084815260200190815260200160002060000160008373ffffffffffffffffffffffffffffffffffffffff1673ffffffffffffffffffffffffffffffffffffffff16815260200190815260200160002060009054906101000a900460ff16905092915050565b600033905090565b600081519050919050565b7f4e487b7100000000000000000000000000000000000000000000000000000000600052604160045260246000fd5b7f4e487b7100000000000000000000000000000000000000000000000000000000600052602260045260246000fd5b600060028204905060018216806200031a57607f821691505b60208210810362000330576200032f620002d2565b5b50919050565b60008190508160005260206000209050919050565b60006020601f8301049050919050565b600082821b905092915050565b6000600883026200039a7fffffffffffffffffffffffffffffffffffffffffffffffffffffffffffffffff826200035b565b620003a686836200035b565b95508019841693508086168417925050509392505050565b6000819050919050565b6000819050919050565b6000620003f3620003ed620003e784620003be565b620003c8565b620003be565b9050919050565b6000819050919050565b6200040f83620003d2565b620004276200041e82620003fa565b84845462000368565b825550505050565b600090565b6200043e6200042f565b6200044b81848462000404565b505050565b5b8181101562000473576200046760008262000434565b60018101905062000451565b5050565b601f821115620004c2576200048c8162000336565b62000497846200034b565b81016020851015620004a7578190505b620004bf620004b6856200034b565b83018262000450565b50505b505050565b600082821c905092915050565b6000620004e760001984600802620004c7565b1980831691505092915050565b6000620005028383620004d4565b9150826002028217905092915050565b6200051d8262000298565b67ffffffffffffffff811115620005395762000538620002a3565b5b62000545825462000301565b6200055282828562000477565b600060209050601f8311600181146200058a576000841562000575578287015190505b620005818582620004f4565b865550620005f1565b601f1984166200059a8662000336565b60005b82811015620005c4578489015182556001820191506020850194506020810190506200059d565b86831015620005e45784890151620005e0601f891682620004d4565b8355505b6001600288020188555050505b505050505050565b6000604051905090565b600080fd5b600080fd5b600080fd5b600080fd5b6000601f19601f8301169050919050565b620006338262000617565b810181811067ffffffffffffffff82111715620006555762000654620002a3565b5b80604052505050565b60006200066a620005f9565b905062000678828262000628565b919050565b600067ffffffffffffffff8211156200069b576200069a620002a3565b5b620006a68262000617565b9050602081019050919050565b60005b83811015620006d3578082015181840152602081019050620006b6565b60008484015250505050565b6000620006f6620006f0846200067d565b6200065e565b90508281526020810184848401111562000715576200071462000612565b5b62000722848285620006b3565b509392505050565b600082601f8301126200074257620007416200060d565b5b815162000754848260208601620006df565b91505092915050565b60008060006060848603121562000779576200077862000603565b5b600084015167ffffffffffffffff8111156200079a576200079962000608565b5b620007a8868287016200072a565b935050602084015167ffffffffffffffff811115620007cc57620007cb62000608565b5b620007da868287016200072a565b925050604084015167ffffffffffffffff811115620007fe57620007fd62000608565b5b6200080c868287016200072a565b9150509250925092565b6155ac80620008266000396000f3fe608060405234801561001057600080fd5b50600436106101c35760003560e01c80635b3b136a116100f9578063a217fddf11610097578063bb81f25c11610071578063bb81f25c146104f0578063d547741f1461050c578063e985e9c514610528578063f242432a14610558576101c3565b8063a217fddf14610498578063a22cb465146104b6578063a50d9983146104d2576101c3565b806382aefa24116100d357806382aefa241461041057806391d148541461042e578063931688cb1461045e57806395d89b411461047a576101c3565b80635b3b136a146103b8578063641ce140146103d65780637107732b146103f2576101c3565b806318712c21116101665780632eb2c2d6116101405780632eb2c2d6146103345780632f2ff15d1461035057806336568abe1461036c5780634e1273f414610388576101c3565b806318712c21146102cc57806318e97fd1146102e8578063248a9ca314610304576101c3565b806306fdde03116101a257806306fdde03146102465780630e89341c146102645780630f35bb1014610294578063127884c7146102b0576101c3565b8062fdd58e146101c8578063010a38f5146101f857806301ffc9a714610216575b600080fd5b6101e260048036038101906101dd919061322c565b610574565b6040516101ef919061327b565b60405180910390f35b61020061063c565b60405161020d919061327b565b60405180910390f35b610230600480360381019061022b91906132ee565b61064d565b60405161023d9190613336565b60405180910390f35b61024e61065f565b60405161025b91906133e1565b60405180910390f35b61027e60048036038101906102799190613403565b6106f1565b60405161028b91906133e1565b60405180910390f35b6102ae60048036038101906102a99190613495565b610703565b005b6102ca60048036038101906102c5919061367c565b610859565b005b6102e660048036038101906102e191906136d8565b6109d8565b005b61030260048036038101906102fd9190613718565b610b13565b005b61031e60048036038101906103199190613774565b610c04565b60405161032b91906137b0565b60405180910390f35b61034e6004803603810190610349919061392f565b610c24565b005b61036a600480360381019061036591906139fe565b610cc5565b005b610386600480360381019061038191906139fe565b610ce6565b005b6103a2600480360381019061039d9190613b01565b610d69565b6040516103af9190613c37565b60405180910390f35b6103c0610e82565b6040516103cd9190613e6d565b60405180910390f35b6103f060048036038101906103eb9190613ee5565b61117d565b005b6103fa611488565b6040516104079190613336565b60405180910390f35b61041861149b565b60405161042591906137b0565b60405180910390f35b610448600480360381019061044391906139fe565b6114bf565b6040516104559190613336565b60405180910390f35b61047860048036038101906104739190613f59565b61152a565b005b610482611544565b60405161048f91906133e1565b60405180910390f35b6104a06115d6565b6040516104ad91906137b0565b60405180910390f35b6104d060048036038101906104cb9190613fce565b6115dd565b005b6104da6115f3565b6040516104e79190613e6d565b60405180910390f35b61050a6004803603810190610505919061400e565b6117fa565b005b610526600480360381019061052191906139fe565b611825565b005b610542600480360381019061053d919061403b565b611846565b60405161054f9190613336565b60405180910390f35b610572600480360381019061056d919061407b565b6118da565b005b60008073ffffffffffffffffffffffffffffffffffffffff168373ffffffffffffffffffffffffffffffffffffffff16036105e4576040517f08c379a00000000000000000000000000000000000000000000000000000000081526004016105db90614184565b60405180910390fd5b60008083815260200190815260200160002060008473ffffffffffffffffffffffffffffffffffffffff1673ffffffffffffffffffffffffffffffffffffffff16815260200190815260200160002054905092915050565b6000610648600861198e565b905090565b60006106588261199c565b9050919050565b60606006805461066e906141d3565b80601f016020809104026020016040519081016040528092919081815260200182805461069a906141d3565b80156106e75780601f106106bc576101008083540402835291602001916106e7565b820191906000526020600020905b8154815290600101906020018083116106ca57829003601f168201915b5050505050905090565b60606106fc82611a16565b9050919050565b6000801b61071081611afb565b60008060005b87879050811015610794576107727f114e74f6ea3bd819998f78687bfcb11b140da08e9b7d222fa9c1f1ba1f2aa12289898481811061075857610757614204565b5b905060200201602081019061076d9190614233565b611b0f565b60018361077f919061428f565b9250808061078c906142c3565b915050610716565b5060005b85859050811015610816576107f47f114e74f6ea3bd819998f78687bfcb11b140da08e9b7d222fa9c1f1ba1f2aa1228787848181106107da576107d9614204565b5b90506020020160208101906107ef9190614233565b611bf0565b600182610801919061428f565b9150808061080e906142c3565b915050610798565b507f04278866b0d6f498929e34b779b3e8a8bb641f8dd86bba2ba266221bcea912c3828260405161084892919061430b565b60405180910390a150505050505050565b7f114e74f6ea3bd819998f78687bfcb11b140da08e9b7d222fa9c1f1ba1f2aa12261088381611afb565b60001515600960009054906101000a900460ff16151514806108ae57506108ad6000801b336114bf565b5b6108ed576040517f08c379a00000000000000000000000000000000000000000000000000000000081526004016108e4906143a6565b60405180910390fd5b6108f76008611cd2565b6000610903600861198e565b905061090f8185611ce8565b6000600a60008381526020019081526020016000209050818160000181905550338160010160006101000a81548173ffffffffffffffffffffffffffffffffffffffff021916908373ffffffffffffffffffffffffffffffffffffffff16021790555083816002018190555060018160030160006101000a81548160ff0219169083151502179055507fc331dc3e37e2ab4d6e65d42a119ffdfab8481b9be24d26704f9f4b4a331d4dd082336040516109c99291906143d5565b60405180910390a15050505050565b7f114e74f6ea3bd819998f78687bfcb11b140da08e9b7d222fa9c1f1ba1f2aa122610a0281611afb565b3373ffffffffffffffffffffffffffffffffffffffff16600a600085815260200190815260200160002060010160009054906101000a900473ffffffffffffffffffffffffffffffffffffffff1673ffffffffffffffffffffffffffffffffffffffff161480610a7b5750610a7a6000801b336114bf565b5b610aba576040517f08c379a0000000000000000000000000000000000000000000000000000000008152600401610ab190614470565b60405180910390fd5b81600a6000858152602001908152602001600020600201819055507fab7a725d533f85521366ed27c01a524d7b26c426eb6e7ab6dbb3376c4b30520a8333604051610b069291906143d5565b60405180910390a1505050565b7f114e74f6ea3bd819998f78687bfcb11b140da08e9b7d222fa9c1f1ba1f2aa122610b3d81611afb565b3373ffffffffffffffffffffffffffffffffffffffff16600a600085815260200190815260200160002060010160009054906101000a900473ffffffffffffffffffffffffffffffffffffffff1673ffffffffffffffffffffffffffffffffffffffff161480610bb65750610bb56000801b336114bf565b5b610bf5576040517f08c379a0000000000000000000000000000000000000000000000000000000008152600401610bec90614502565b60405180910390fd5b610bff8383611ce8565b505050565b600060036000838152602001908152602001600020600101549050919050565b610c2c611d2f565b73ffffffffffffffffffffffffffffffffffffffff168573ffffffffffffffffffffffffffffffffffffffff161480610c725750610c7185610c6c611d2f565b611846565b5b610cb1576040517f08c379a0000000000000000000000000000000000000000000000000000000008152600401610ca890614594565b60405180910390fd5b610cbe8585858585611d37565b5050505050565b610cce82610c04565b610cd781611afb565b610ce18383611b0f565b505050565b610cee611d2f565b73ffffffffffffffffffffffffffffffffffffffff168173ffffffffffffffffffffffffffffffffffffffff1614610d5b576040517f08c379a0000000000000000000000000000000000000000000000000000000008152600401610d5290614626565b60405180910390fd5b610d658282611bf0565b5050565b60608151835114610daf576040517f08c379a0000000000000000000000000000000000000000000000000000000008152600401610da6906146b8565b60405180910390fd5b6000835167ffffffffffffffff811115610dcc57610dcb61351b565b5b604051908082528060200260200182016040528015610dfa5781602001602082028036833780820191505090505b50905060005b8451811015610e7757610e47858281518110610e1f57610e1e614204565b5b6020026020010151858381518110610e3a57610e39614204565b5b6020026020010151610574565b828281518110610e5a57610e59614204565b5b60200260200101818152505080610e70906142c3565b9050610e00565b508091505092915050565b60606000610e90600861198e565b90506000805b82811015610f2b576000600182610ead919061428f565b90506000600b600083815260200190815260200160002060003373ffffffffffffffffffffffffffffffffffffffff1673ffffffffffffffffffffffffffffffffffffffff1681526020019081526020016000205414610f1757600183610f14919061428f565b92505b508080610f23906142c3565b915050610e96565b5060008167ffffffffffffffff811115610f4857610f4761351b565b5b604051908082528060200260200182016040528015610f8157816020015b610f6e61313a565b815260200190600190039081610f665790505b5090506000805b84811015611172576000600182610f9f919061428f565b90506000600b600083815260200190815260200160002060003373ffffffffffffffffffffffffffffffffffffffff1673ffffffffffffffffffffffffffffffffffffffff168152602001908152602001600020541461115e576000600a60008381526020019081526020016000209050806040518060a0016040529081600082015481526020016001820160009054906101000a900473ffffffffffffffffffffffffffffffffffffffff1673ffffffffffffffffffffffffffffffffffffffff1673ffffffffffffffffffffffffffffffffffffffff168152602001600282015481526020016003820160009054906101000a900460ff161515151581526020016004820180548060200260200160405190810160405280929190818152602001828054801561112657602002820191906000526020600020905b8160009054906101000a900473ffffffffffffffffffffffffffffffffffffffff1673ffffffffffffffffffffffffffffffffffffffff16815260200190600101908083116110dc575b50505050508152505085858151811061114257611141614204565b5b602002602001018190525060018461115a919061428f565b9350505b50808061116a906142c3565b915050610f88565b508194505050505090565b6000801b61118a81611afb565b6000600a60008681526020019081526020016000209050600073ffffffffffffffffffffffffffffffffffffffff168160010160009054906101000a900473ffffffffffffffffffffffffffffffffffffffff1673ffffffffffffffffffffffffffffffffffffffff1603611234576040517f08c379a000000000000000000000000000000000000000000000000000000000815260040161122b90614724565b60405180910390fd5b6000600b600087815260200190815260200160002060008873ffffffffffffffffffffffffffffffffffffffff1673ffffffffffffffffffffffffffffffffffffffff16815260200190815260200160002054146112c7576040517f08c379a00000000000000000000000000000000000000000000000000000000081526004016112be906147b6565b60405180910390fd5b600115158160030160009054906101000a900460ff1615151461131f576040517f08c379a000000000000000000000000000000000000000000000000000000000815260040161131690614848565b60405180910390fd5b61132b85878686612058565b61136a576040517f08c379a0000000000000000000000000000000000000000000000000000000008152600401611361906148da565b60405180910390fd5b6113868686600160405180602001604052806000815250612146565b80600401869080600181540180825580915050600190039060005260206000200160009091909190916101000a81548173ffffffffffffffffffffffffffffffffffffffff021916908373ffffffffffffffffffffffffffffffffffffffff1602179055508060040180549050600b600087815260200190815260200160002060008873ffffffffffffffffffffffffffffffffffffffff1673ffffffffffffffffffffffffffffffffffffffff168152602001908152602001600020819055507f1e0bb8ab2abf6f7333777a74ef4804b481fd910f8120c3b65adbdb6e09f6106985876040516114789291906143d5565b60405180910390a1505050505050565b600960009054906101000a900460ff1681565b7f114e74f6ea3bd819998f78687bfcb11b140da08e9b7d222fa9c1f1ba1f2aa12281565b60006003600084815260200190815260200160002060000160008373ffffffffffffffffffffffffffffffffffffffff1673ffffffffffffffffffffffffffffffffffffffff16815260200190815260200160002060009054906101000a900460ff16905092915050565b6000801b61153781611afb565b6115408261197b565b5050565b606060078054611553906141d3565b80601f016020809104026020016040519081016040528092919081815260200182805461157f906141d3565b80156115cc5780601f106115a1576101008083540402835291602001916115cc565b820191906000526020600020905b8154815290600101906020018083116115af57829003601f168201915b5050505050905090565b6000801b81565b6115ef6115e8611d2f565b83836122f6565b5050565b60606000611601600861198e565b905060008167ffffffffffffffff81111561161f5761161e61351b565b5b60405190808252806020026020018201604052801561165857816020015b61164561313a565b81526020019060019003908161163d5790505b5090506000805b838110156117f0576000600182611676919061428f565b90506000600a60008381526020019081526020016000209050806040518060a0016040529081600082015481526020016001820160009054906101000a900473ffffffffffffffffffffffffffffffffffffffff1673ffffffffffffffffffffffffffffffffffffffff1673ffffffffffffffffffffffffffffffffffffffff168152602001600282015481526020016003820160009054906101000a900460ff16151515158152602001600482018054806020026020016040519081016040528092919081815260200182805480156117a557602002820191906000526020600020905b8160009054906101000a900473ffffffffffffffffffffffffffffffffffffffff1673ffffffffffffffffffffffffffffffffffffffff168152602001906001019080831161175b575b5050505050815250508585815181106117c1576117c0614204565b5b60200260200101819052506001846117d9919061428f565b9350505080806117e8906142c3565b91505061165f565b5081935050505090565b6000801b61180781611afb565b81600960006101000a81548160ff0219169083151502179055505050565b61182e82610c04565b61183781611afb565b6118418383611bf0565b505050565b6000600160008473ffffffffffffffffffffffffffffffffffffffff1673ffffffffffffffffffffffffffffffffffffffff16815260200190815260200160002060008373ffffffffffffffffffffffffffffffffffffffff1673ffffffffffffffffffffffffffffffffffffffff16815260200190815260200160002060009054906101000a900460ff16905092915050565b6118e2611d2f565b73ffffffffffffffffffffffffffffffffffffffff168573ffffffffffffffffffffffffffffffffffffffff161480611928575061192785611922611d2f565b611846565b5b611967576040517f08c379a000000000000000000000000000000000000000000000000000000000815260040161195e90614594565b60405180910390fd5b6119748585858585612462565b5050505050565b806004908161198a9190614aa6565b5050565b600081600001549050919050565b60007f7965db0b000000000000000000000000000000000000000000000000000000007bffffffffffffffffffffffffffffffffffffffffffffffffffffffff1916827bffffffffffffffffffffffffffffffffffffffffffffffffffffffff19161480611a0f5750611a0e826126fd565b5b9050919050565b60606000600560008481526020019081526020016000208054611a38906141d3565b80601f0160208091040260200160405190810160405280929190818152602001828054611a64906141d3565b8015611ab15780601f10611a8657610100808354040283529160200191611ab1565b820191906000526020600020905b815481529060010190602001808311611a9457829003601f168201915b505050505090506000815111611acf57611aca836127df565b611af3565b600481604051602001611ae3929190614c37565b6040516020818303038152906040525b915050919050565b611b0c81611b07611d2f565b612873565b50565b611b1982826114bf565b611bec5760016003600084815260200190815260200160002060000160008373ffffffffffffffffffffffffffffffffffffffff1673ffffffffffffffffffffffffffffffffffffffff16815260200190815260200160002060006101000a81548160ff021916908315150217905550611b91611d2f565b73ffffffffffffffffffffffffffffffffffffffff168173ffffffffffffffffffffffffffffffffffffffff16837f2f8788117e7eff1d82e926ec794901d17c78024a50270940304540a733656f0d60405160405180910390a45b5050565b611bfa82826114bf565b15611cce5760006003600084815260200190815260200160002060000160008373ffffffffffffffffffffffffffffffffffffffff1673ffffffffffffffffffffffffffffffffffffffff16815260200190815260200160002060006101000a81548160ff021916908315150217905550611c73611d2f565b73ffffffffffffffffffffffffffffffffffffffff168173ffffffffffffffffffffffffffffffffffffffff16837ff6391f5c32d9c69d2a47ea670b442974b53935d1edc7fd64eb21e047a839171b60405160405180910390a45b5050565b6001816000016000828254019250508190555050565b611cf282826128f8565b7fcb8a581c366c006d079f78b3f29b10e2bf252c6a9df7fb60286aa83c09bbd0b18282604051611d23929190614c5b565b60405180910390a15050565b600033905090565b8151835114611d7b576040517f08c379a0000000000000000000000000000000000000000000000000000000008152600401611d7290614cfd565b60405180910390fd5b600073ffffffffffffffffffffffffffffffffffffffff168473ffffffffffffffffffffffffffffffffffffffff1603611dea576040517f08c379a0000000000000000000000000000000000000000000000000000000008152600401611de190614d8f565b60405180910390fd5b6000611df4611d2f565b9050611e0481878787878761295d565b60005b8451811015611fb5576000858281518110611e2557611e24614204565b5b602002602001015190506000858381518110611e4457611e43614204565b5b60200260200101519050600080600084815260200190815260200160002060008b73ffffffffffffffffffffffffffffffffffffffff1673ffffffffffffffffffffffffffffffffffffffff16815260200190815260200160002054905081811015611ee5576040517f08c379a0000000000000000000000000000000000000000000000000000000008152600401611edc90614e21565b60405180910390fd5b81810360008085815260200190815260200160002060008c73ffffffffffffffffffffffffffffffffffffffff1673ffffffffffffffffffffffffffffffffffffffff168152602001908152602001600020819055508160008085815260200190815260200160002060008b73ffffffffffffffffffffffffffffffffffffffff1673ffffffffffffffffffffffffffffffffffffffff1681526020019081526020016000206000828254611f9a919061428f565b9250508190555050505080611fae906142c3565b9050611e07565b508473ffffffffffffffffffffffffffffffffffffffff168673ffffffffffffffffffffffffffffffffffffffff168273ffffffffffffffffffffffffffffffffffffffff167f4a39dc06d4c0dbc64b70af90fd698a233a518aa5d07e595d983b8c0526c8f7fb878760405161202c929190614e41565b60405180910390a4612042818787878787612965565b61205081878787878761296d565b505050505050565b600080600a600087815260200190815260200160002090506000801b8160020154036120b9576040517f08c379a00000000000000000000000000000000000000000000000000000000081526004016120b090614eea565b60405180910390fd5b6000816002015490506000866040516020016120d59190614f52565b604051602081830303815290604052805190602001209050612139868680806020026020016040519081016040528093929190818152602001838360200280828437600081840152601f19601f820116905080830192505050505050508383612b44565b9350505050949350505050565b600073ffffffffffffffffffffffffffffffffffffffff168473ffffffffffffffffffffffffffffffffffffffff16036121b5576040517f08c379a00000000000000000000000000000000000000000000000000000000081526004016121ac90614fdf565b60405180910390fd5b60006121bf611d2f565b905060006121cc85612b5b565b905060006121d985612b5b565b90506121ea8360008985858961295d565b8460008088815260200190815260200160002060008973ffffffffffffffffffffffffffffffffffffffff1673ffffffffffffffffffffffffffffffffffffffff1681526020019081526020016000206000828254612249919061428f565b925050819055508673ffffffffffffffffffffffffffffffffffffffff16600073ffffffffffffffffffffffffffffffffffffffff168473ffffffffffffffffffffffffffffffffffffffff167fc3d58168c5ae7397731d063d5bbf3d657854427343f4c083240f7aacaa2d0f6289896040516122c792919061430b565b60405180910390a46122de83600089858589612965565b6122ed83600089898989612bd5565b50505050505050565b8173ffffffffffffffffffffffffffffffffffffffff168373ffffffffffffffffffffffffffffffffffffffff1603612364576040517f08c379a000000000000000000000000000000000000000000000000000000000815260040161235b90615071565b60405180910390fd5b80600160008573ffffffffffffffffffffffffffffffffffffffff1673ffffffffffffffffffffffffffffffffffffffff16815260200190815260200160002060008473ffffffffffffffffffffffffffffffffffffffff1673ffffffffffffffffffffffffffffffffffffffff16815260200190815260200160002060006101000a81548160ff0219169083151502179055508173ffffffffffffffffffffffffffffffffffffffff168373ffffffffffffffffffffffffffffffffffffffff167f17307eab39ab6107e8899845ad3d59bd9653f200f220920489ca2b5937696c31836040516124559190613336565b60405180910390a3505050565b600073ffffffffffffffffffffffffffffffffffffffff168473ffffffffffffffffffffffffffffffffffffffff16036124d1576040517f08c379a00000000000000000000000000000000000000000000000000000000081526004016124c890614d8f565b60405180910390fd5b60006124db611d2f565b905060006124e885612b5b565b905060006124f585612b5b565b905061250583898985858961295d565b600080600088815260200190815260200160002060008a73ffffffffffffffffffffffffffffffffffffffff1673ffffffffffffffffffffffffffffffffffffffff1681526020019081526020016000205490508581101561259c576040517f08c379a000000000000000000000000000000000000000000000000000000000815260040161259390614e21565b60405180910390fd5b85810360008089815260200190815260200160002060008b73ffffffffffffffffffffffffffffffffffffffff1673ffffffffffffffffffffffffffffffffffffffff168152602001908152602001600020819055508560008089815260200190815260200160002060008a73ffffffffffffffffffffffffffffffffffffffff1673ffffffffffffffffffffffffffffffffffffffff1681526020019081526020016000206000828254612651919061428f565b925050819055508773ffffffffffffffffffffffffffffffffffffffff168973ffffffffffffffffffffffffffffffffffffffff168573ffffffffffffffffffffffffffffffffffffffff167fc3d58168c5ae7397731d063d5bbf3d657854427343f4c083240f7aacaa2d0f628a8a6040516126ce92919061430b565b60405180910390a46126e4848a8a86868a612965565b6126f2848a8a8a8a8a612bd5565b505050505050505050565b60007fd9b67a26000000000000000000000000000000000000000000000000000000007bffffffffffffffffffffffffffffffffffffffffffffffffffffffff1916827bffffffffffffffffffffffffffffffffffffffffffffffffffffffff191614806127c857507f0e89341c000000000000000000000000000000000000000000000000000000007bffffffffffffffffffffffffffffffffffffffffffffffffffffffff1916827bffffffffffffffffffffffffffffffffffffffffffffffffffffffff1916145b806127d857506127d782612dac565b5b9050919050565b6060600280546127ee906141d3565b80601f016020809104026020016040519081016040528092919081815260200182805461281a906141d3565b80156128675780601f1061283c57610100808354040283529160200191612867565b820191906000526020600020905b81548152906001019060200180831161284a57829003601f168201915b50505050509050919050565b61287d82826114bf565b6128f45761288a81612e16565b6128988360001c6020612e43565b6040516020016128a9929190615129565b6040516020818303038152906040526040517f08c379a00000000000000000000000000000000000000000000000000000000081526004016128eb91906133e1565b60405180910390fd5b5050565b806005600084815260200190815260200160002090816129189190614aa6565b50817f6bb7ff708619ba0610cba295a58592e0451dee2622938c8755667688daf3529b612944846106f1565b60405161295191906133e1565b60405180910390a25050565b505050505050565b505050505050565b61298c8473ffffffffffffffffffffffffffffffffffffffff1661307f565b15612b3c578373ffffffffffffffffffffffffffffffffffffffff1663bc197c8187878686866040518663ffffffff1660e01b81526004016129d29594939291906151b8565b6020604051808303816000875af1925050508015612a0e57506040513d601f19601f82011682018060405250810190612a0b9190615235565b60015b612ab357612a1a61526f565b806308c379a003612a765750612a2e615291565b80612a395750612a78565b806040517f08c379a0000000000000000000000000000000000000000000000000000000008152600401612a6d91906133e1565b60405180910390fd5b505b6040517f08c379a0000000000000000000000000000000000000000000000000000000008152600401612aaa90615393565b60405180910390fd5b63bc197c8160e01b7bffffffffffffffffffffffffffffffffffffffffffffffffffffffff1916817bffffffffffffffffffffffffffffffffffffffffffffffffffffffff191614612b3a576040517f08c379a0000000000000000000000000000000000000000000000000000000008152600401612b3190615425565b60405180910390fd5b505b505050505050565b600082612b5185846130a2565b1490509392505050565b60606000600167ffffffffffffffff811115612b7a57612b7961351b565b5b604051908082528060200260200182016040528015612ba85781602001602082028036833780820191505090505b5090508281600081518110612bc057612bbf614204565b5b60200260200101818152505080915050919050565b612bf48473ffffffffffffffffffffffffffffffffffffffff1661307f565b15612da4578373ffffffffffffffffffffffffffffffffffffffff1663f23a6e6187878686866040518663ffffffff1660e01b8152600401612c3a959493929190615445565b6020604051808303816000875af1925050508015612c7657506040513d601f19601f82011682018060405250810190612c739190615235565b60015b612d1b57612c8261526f565b806308c379a003612cde5750612c96615291565b80612ca15750612ce0565b806040517f08c379a0000000000000000000000000000000000000000000000000000000008152600401612cd591906133e1565b60405180910390fd5b505b6040517f08c379a0000000000000000000000000000000000000000000000000000000008152600401612d1290615393565b60405180910390fd5b63f23a6e6160e01b7bffffffffffffffffffffffffffffffffffffffffffffffffffffffff1916817bffffffffffffffffffffffffffffffffffffffffffffffffffffffff191614612da2576040517f08c379a0000000000000000000000000000000000000000000000000000000008152600401612d9990615425565b60405180910390fd5b505b505050505050565b60007f01ffc9a7000000000000000000000000000000000000000000000000000000007bffffffffffffffffffffffffffffffffffffffffffffffffffffffff1916827bffffffffffffffffffffffffffffffffffffffffffffffffffffffff1916149050919050565b6060612e3c8273ffffffffffffffffffffffffffffffffffffffff16601460ff16612e43565b9050919050565b606060006002836002612e56919061549f565b612e60919061428f565b67ffffffffffffffff811115612e7957612e7861351b565b5b6040519080825280601f01601f191660200182016040528015612eab5781602001600182028036833780820191505090505b5090507f300000000000000000000000000000000000000000000000000000000000000081600081518110612ee357612ee2614204565b5b60200101907effffffffffffffffffffffffffffffffffffffffffffffffffffffffffffff1916908160001a9053507f780000000000000000000000000000000000000000000000000000000000000081600181518110612f4757612f46614204565b5b60200101907effffffffffffffffffffffffffffffffffffffffffffffffffffffffffffff1916908160001a90535060006001846002612f87919061549f565b612f91919061428f565b90505b6001811115613031577f3031323334353637383961626364656600000000000000000000000000000000600f861660108110612fd357612fd2614204565b5b1a60f81b828281518110612fea57612fe9614204565b5b60200101907effffffffffffffffffffffffffffffffffffffffffffffffffffffffffffff1916908160001a905350600485901c94508061302a906154e1565b9050612f94565b5060008414613075576040517f08c379a000000000000000000000000000000000000000000000000000000000815260040161306c90615556565b60405180910390fd5b8091505092915050565b6000808273ffffffffffffffffffffffffffffffffffffffff163b119050919050565b60008082905060005b84518110156130ed576130d8828683815181106130cb576130ca614204565b5b60200260200101516130f8565b915080806130e5906142c3565b9150506130ab565b508091505092915050565b60008183106131105761310b8284613123565b61311b565b61311a8383613123565b5b905092915050565b600082600052816020526040600020905092915050565b6040518060a0016040528060008152602001600073ffffffffffffffffffffffffffffffffffffffff16815260200160008019168152602001600015158152602001606081525090565b6000604051905090565b600080fd5b600080fd5b600073ffffffffffffffffffffffffffffffffffffffff82169050919050565b60006131c382613198565b9050919050565b6131d3816131b8565b81146131de57600080fd5b50565b6000813590506131f0816131ca565b92915050565b6000819050919050565b613209816131f6565b811461321457600080fd5b50565b60008135905061322681613200565b92915050565b600080604083850312156132435761324261318e565b5b6000613251858286016131e1565b925050602061326285828601613217565b9150509250929050565b613275816131f6565b82525050565b6000602082019050613290600083018461326c565b92915050565b60007fffffffff0000000000000000000000000000000000000000000000000000000082169050919050565b6132cb81613296565b81146132d657600080fd5b50565b6000813590506132e8816132c2565b92915050565b6000602082840312156133045761330361318e565b5b6000613312848285016132d9565b91505092915050565b60008115159050919050565b6133308161331b565b82525050565b600060208201905061334b6000830184613327565b92915050565b600081519050919050565b600082825260208201905092915050565b60005b8381101561338b578082015181840152602081019050613370565b60008484015250505050565b6000601f19601f8301169050919050565b60006133b382613351565b6133bd818561335c565b93506133cd81856020860161336d565b6133d681613397565b840191505092915050565b600060208201905081810360008301526133fb81846133a8565b905092915050565b6000602082840312156134195761341861318e565b5b600061342784828501613217565b91505092915050565b600080fd5b600080fd5b600080fd5b60008083601f84011261345557613454613430565b5b8235905067ffffffffffffffff81111561347257613471613435565b5b60208301915083602082028301111561348e5761348d61343a565b5b9250929050565b600080600080604085870312156134af576134ae61318e565b5b600085013567ffffffffffffffff8111156134cd576134cc613193565b5b6134d98782880161343f565b9450945050602085013567ffffffffffffffff8111156134fc576134fb613193565b5b6135088782880161343f565b925092505092959194509250565b600080fd5b7f4e487b7100000000000000000000000000000000000000000000000000000000600052604160045260246000fd5b61355382613397565b810181811067ffffffffffffffff821117156135725761357161351b565b5b80604052505050565b6000613585613184565b9050613591828261354a565b919050565b600067ffffffffffffffff8211156135b1576135b061351b565b5b6135ba82613397565b9050602081019050919050565b82818337600083830152505050565b60006135e96135e484613596565b61357b565b90508281526020810184848401111561360557613604613516565b5b6136108482856135c7565b509392505050565b600082601f83011261362d5761362c613430565b5b813561363d8482602086016135d6565b91505092915050565b6000819050919050565b61365981613646565b811461366457600080fd5b50565b60008135905061367681613650565b92915050565b600080604083850312156136935761369261318e565b5b600083013567ffffffffffffffff8111156136b1576136b0613193565b5b6136bd85828601613618565b92505060206136ce85828601613667565b9150509250929050565b600080604083850312156136ef576136ee61318e565b5b60006136fd85828601613217565b925050602061370e85828601613667565b9150509250929050565b6000806040838503121561372f5761372e61318e565b5b600061373d85828601613217565b925050602083013567ffffffffffffffff81111561375e5761375d613193565b5b61376a85828601613618565b9150509250929050565b60006020828403121561378a5761378961318e565b5b600061379884828501613667565b91505092915050565b6137aa81613646565b82525050565b60006020820190506137c560008301846137a1565b92915050565b600067ffffffffffffffff8211156137e6576137e561351b565b5b602082029050602081019050919050565b600061380a613805846137cb565b61357b565b9050808382526020820190506020840283018581111561382d5761382c61343a565b5b835b8181101561385657806138428882613217565b84526020840193505060208101905061382f565b5050509392505050565b600082601f83011261387557613874613430565b5b81356138858482602086016137f7565b91505092915050565b600067ffffffffffffffff8211156138a9576138a861351b565b5b6138b282613397565b9050602081019050919050565b60006138d26138cd8461388e565b61357b565b9050828152602081018484840111156138ee576138ed613516565b5b6138f98482856135c7565b509392505050565b600082601f83011261391657613915613430565b5b81356139268482602086016138bf565b91505092915050565b600080600080600060a0868803121561394b5761394a61318e565b5b6000613959888289016131e1565b955050602061396a888289016131e1565b945050604086013567ffffffffffffffff81111561398b5761398a613193565b5b61399788828901613860565b935050606086013567ffffffffffffffff8111156139b8576139b7613193565b5b6139c488828901613860565b925050608086013567ffffffffffffffff8111156139e5576139e4613193565b5b6139f188828901613901565b9150509295509295909350565b60008060408385031215613a1557613a1461318e565b5b6000613a2385828601613667565b9250506020613a34858286016131e1565b9150509250929050565b600067ffffffffffffffff821115613a5957613a5861351b565b5b602082029050602081019050919050565b6000613a7d613a7884613a3e565b61357b565b90508083825260208201905060208402830185811115613aa057613a9f61343a565b5b835b81811015613ac95780613ab588826131e1565b845260208401935050602081019050613aa2565b5050509392505050565b600082601f830112613ae857613ae7613430565b5b8135613af8848260208601613a6a565b91505092915050565b60008060408385031215613b1857613b1761318e565b5b600083013567ffffffffffffffff811115613b3657613b35613193565b5b613b4285828601613ad3565b925050602083013567ffffffffffffffff811115613b6357613b62613193565b5b613b6f85828601613860565b9150509250929050565b600081519050919050565b600082825260208201905092915050565b6000819050602082019050919050565b613bae816131f6565b82525050565b6000613bc08383613ba5565b60208301905092915050565b6000602082019050919050565b6000613be482613b79565b613bee8185613b84565b9350613bf983613b95565b8060005b83811015613c2a578151613c118882613bb4565b9750613c1c83613bcc565b925050600181019050613bfd565b5085935050505092915050565b60006020820190508181036000830152613c518184613bd9565b905092915050565b600081519050919050565b600082825260208201905092915050565b6000819050602082019050919050565b613c8e816131b8565b82525050565b613c9d81613646565b82525050565b613cac8161331b565b82525050565b600081519050919050565b600082825260208201905092915050565b6000819050602082019050919050565b6000613cea8383613c85565b60208301905092915050565b6000602082019050919050565b6000613d0e82613cb2565b613d188185613cbd565b9350613d2383613cce565b8060005b83811015613d54578151613d3b8882613cde565b9750613d4683613cf6565b925050600181019050613d27565b5085935050505092915050565b600060a083016000830151613d796000860182613ba5565b506020830151613d8c6020860182613c85565b506040830151613d9f6040860182613c94565b506060830151613db26060860182613ca3565b5060808301518482036080860152613dca8282613d03565b9150508091505092915050565b6000613de38383613d61565b905092915050565b6000602082019050919050565b6000613e0382613c59565b613e0d8185613c64565b935083602082028501613e1f85613c75565b8060005b85811015613e5b5784840389528151613e3c8582613dd7565b9450613e4783613deb565b925060208a01995050600181019050613e23565b50829750879550505050505092915050565b60006020820190508181036000830152613e878184613df8565b905092915050565b60008083601f840112613ea557613ea4613430565b5b8235905067ffffffffffffffff811115613ec257613ec1613435565b5b602083019150836020820283011115613ede57613edd61343a565b5b9250929050565b60008060008060608587031215613eff57613efe61318e565b5b6000613f0d878288016131e1565b9450506020613f1e87828801613217565b935050604085013567ffffffffffffffff811115613f3f57613f3e613193565b5b613f4b87828801613e8f565b925092505092959194509250565b600060208284031215613f6f57613f6e61318e565b5b600082013567ffffffffffffffff811115613f8d57613f8c613193565b5b613f9984828501613618565b91505092915050565b613fab8161331b565b8114613fb657600080fd5b50565b600081359050613fc881613fa2565b92915050565b60008060408385031215613fe557613fe461318e565b5b6000613ff3858286016131e1565b925050602061400485828601613fb9565b9150509250929050565b6000602082840312156140245761402361318e565b5b600061403284828501613fb9565b91505092915050565b600080604083850312156140525761405161318e565b5b6000614060858286016131e1565b9250506020614071858286016131e1565b9150509250929050565b600080600080600060a086880312156140975761409661318e565b5b60006140a5888289016131e1565b95505060206140b6888289016131e1565b94505060406140c788828901613217565b93505060606140d888828901613217565b925050608086013567ffffffffffffffff8111156140f9576140f8613193565b5b61410588828901613901565b9150509295509295909350565b7f455243313135353a2061646472657373207a65726f206973206e6f742061207660008201527f616c6964206f776e657200000000000000000000000000000000000000000000602082015250565b600061416e602a8361335c565b915061417982614112565b604082019050919050565b6000602082019050818103600083015261419d81614161565b9050919050565b7f4e487b7100000000000000000000000000000000000000000000000000000000600052602260045260246000fd5b600060028204905060018216806141eb57607f821691505b6020821081036141fe576141fd6141a4565b5b50919050565b7f4e487b7100000000000000000000000000000000000000000000000000000000600052603260045260246000fd5b6000602082840312156142495761424861318e565b5b6000614257848285016131e1565b91505092915050565b7f4e487b7100000000000000000000000000000000000000000000000000000000600052601160045260246000fd5b600061429a826131f6565b91506142a5836131f6565b92508282019050808211156142bd576142bc614260565b5b92915050565b60006142ce826131f6565b91507fffffffffffffffffffffffffffffffffffffffffffffffffffffffffffffffff8203614300576142ff614260565b5b600182019050919050565b6000604082019050614320600083018561326c565b61432d602083018461326c565b9392505050565b7f43616e6e6f742063726561746520746f6b656e7320617420746869732074696d60008201527f652e000000000000000000000000000000000000000000000000000000000000602082015250565b600061439060228361335c565b915061439b82614334565b604082019050919050565b600060208201905081810360008301526143bf81614383565b9050919050565b6143cf816131b8565b82525050565b60006040820190506143ea600083018561326c565b6143f760208301846143c6565b9392505050565b7f416374696f6e206e6f7420616c6c6f7765643a20736574206d65726b6c65207260008201527f6f6f740000000000000000000000000000000000000000000000000000000000602082015250565b600061445a60238361335c565b9150614465826143fe565b604082019050919050565b600060208201905081810360008301526144898161444d565b9050919050565b7f416374696f6e206e6f7420616c6c6f7765643a20757064617465546f6b656e5560008201527f5249000000000000000000000000000000000000000000000000000000000000602082015250565b60006144ec60228361335c565b91506144f782614490565b604082019050919050565b6000602082019050818103600083015261451b816144df565b9050919050565b7f455243313135353a2063616c6c6572206973206e6f7420746f6b656e206f776e60008201527f6572206f7220617070726f766564000000000000000000000000000000000000602082015250565b600061457e602e8361335c565b915061458982614522565b604082019050919050565b600060208201905081810360008301526145ad81614571565b9050919050565b7f416363657373436f6e74726f6c3a2063616e206f6e6c792072656e6f756e636560008201527f20726f6c657320666f722073656c660000000000000000000000000000000000602082015250565b6000614610602f8361335c565b915061461b826145b4565b604082019050919050565b6000602082019050818103600083015261463f81614603565b9050919050565b7f455243313135353a206163636f756e747320616e6420696473206c656e67746860008201527f206d69736d617463680000000000000000000000000000000000000000000000602082015250565b60006146a260298361335c565b91506146ad82614646565b604082019050919050565b600060208201905081810360008301526146d181614695565b9050919050565b7f496e76616c696420746f6b656e20696400000000000000000000000000000000600082015250565b600061470e60108361335c565b9150614719826146d8565b602082019050919050565b6000602082019050818103600083015261473d81614701565b9050919050565b7f546f6b656e20616c726561647920636c61696d6564206279207468697320776160008201527f6c6c657400000000000000000000000000000000000000000000000000000000602082015250565b60006147a060248361335c565b91506147ab82614744565b604082019050919050565b600060208201905081810360008301526147cf81614793565b9050919050565b7f546f6b656e206973206e6f7420636c61696d61626c652061742074686973206d60008201527f6f6d656e74000000000000000000000000000000000000000000000000000000602082015250565b600061483260258361335c565b915061483d826147d6565b604082019050919050565b6000602082019050818103600083015261486181614825565b9050919050565b7f41646472657373206973206e6f7420616c6c6f77656420746f20636c61696d2060008201527f7468652072657175657374656420746f6b656e00000000000000000000000000602082015250565b60006148c460338361335c565b91506148cf82614868565b604082019050919050565b600060208201905081810360008301526148f3816148b7565b9050919050565b60008190508160005260206000209050919050565b60006020601f8301049050919050565b600082821b905092915050565b60006008830261495c7fffffffffffffffffffffffffffffffffffffffffffffffffffffffffffffffff8261491f565b614966868361491f565b95508019841693508086168417925050509392505050565b6000819050919050565b60006149a361499e614999846131f6565b61497e565b6131f6565b9050919050565b6000819050919050565b6149bd83614988565b6149d16149c9826149aa565b84845461492c565b825550505050565b600090565b6149e66149d9565b6149f18184846149b4565b505050565b5b81811015614a1557614a0a6000826149de565b6001810190506149f7565b5050565b601f821115614a5a57614a2b816148fa565b614a348461490f565b81016020851015614a43578190505b614a57614a4f8561490f565b8301826149f6565b50505b505050565b600082821c905092915050565b6000614a7d60001984600802614a5f565b1980831691505092915050565b6000614a968383614a6c565b9150826002028217905092915050565b614aaf82613351565b67ffffffffffffffff811115614ac857614ac761351b565b5b614ad282546141d3565b614add828285614a19565b600060209050601f831160018114614b105760008415614afe578287015190505b614b088582614a8a565b865550614b70565b601f198416614b1e866148fa565b60005b82811015614b4657848901518255600182019150602085019450602081019050614b21565b86831015614b635784890151614b5f601f891682614a6c565b8355505b6001600288020188555050505b505050505050565b600081905092915050565b60008154614b90816141d3565b614b9a8186614b78565b94506001821660008114614bb55760018114614bca57614bfd565b60ff1983168652811515820286019350614bfd565b614bd3856148fa565b60005b83811015614bf557815481890152600182019150602081019050614bd6565b838801955050505b50505092915050565b6000614c1182613351565b614c1b8185614b78565b9350614c2b81856020860161336d565b80840191505092915050565b6000614c438285614b83565b9150614c4f8284614c06565b91508190509392505050565b6000604082019050614c70600083018561326c565b8181036020830152614c8281846133a8565b90509392505050565b7f455243313135353a2069647320616e6420616d6f756e7473206c656e6774682060008201527f6d69736d61746368000000000000000000000000000000000000000000000000602082015250565b6000614ce760288361335c565b9150614cf282614c8b565b604082019050919050565b60006020820190508181036000830152614d1681614cda565b9050919050565b7f455243313135353a207472616e7366657220746f20746865207a65726f20616460008201527f6472657373000000000000000000000000000000000000000000000000000000602082015250565b6000614d7960258361335c565b9150614d8482614d1d565b604082019050919050565b60006020820190508181036000830152614da881614d6c565b9050919050565b7f455243313135353a20696e73756666696369656e742062616c616e636520666f60008201527f72207472616e7366657200000000000000000000000000000000000000000000602082015250565b6000614e0b602a8361335c565b9150614e1682614daf565b604082019050919050565b60006020820190508181036000830152614e3a81614dfe565b9050919050565b60006040820190508181036000830152614e5b8185613bd9565b90508181036020830152614e6f8184613bd9565b90509392505050565b7f4e6f2077686974656c69737420666f756e6420666f722072657175657374656460008201527f20746f6b656e0000000000000000000000000000000000000000000000000000602082015250565b6000614ed460268361335c565b9150614edf82614e78565b604082019050919050565b60006020820190508181036000830152614f0381614ec7565b9050919050565b60008160601b9050919050565b6000614f2282614f0a565b9050919050565b6000614f3482614f17565b9050919050565b614f4c614f47826131b8565b614f29565b82525050565b6000614f5e8284614f3b565b60148201915081905092915050565b7f455243313135353a206d696e7420746f20746865207a65726f2061646472657360008201527f7300000000000000000000000000000000000000000000000000000000000000602082015250565b6000614fc960218361335c565b9150614fd482614f6d565b604082019050919050565b60006020820190508181036000830152614ff881614fbc565b9050919050565b7f455243313135353a2073657474696e6720617070726f76616c2073746174757360008201527f20666f722073656c660000000000000000000000000000000000000000000000602082015250565b600061505b60298361335c565b915061506682614fff565b604082019050919050565b6000602082019050818103600083015261508a8161504e565b9050919050565b7f416363657373436f6e74726f6c3a206163636f756e7420000000000000000000600082015250565b60006150c7601783614b78565b91506150d282615091565b601782019050919050565b7f206973206d697373696e6720726f6c6520000000000000000000000000000000600082015250565b6000615113601183614b78565b915061511e826150dd565b601182019050919050565b6000615134826150ba565b91506151408285614c06565b915061514b82615106565b91506151578284614c06565b91508190509392505050565b600081519050919050565b600082825260208201905092915050565b600061518a82615163565b615194818561516e565b93506151a481856020860161336d565b6151ad81613397565b840191505092915050565b600060a0820190506151cd60008301886143c6565b6151da60208301876143c6565b81810360408301526151ec8186613bd9565b905081810360608301526152008185613bd9565b90508181036080830152615214818461517f565b90509695505050505050565b60008151905061522f816132c2565b92915050565b60006020828403121561524b5761524a61318e565b5b600061525984828501615220565b91505092915050565b60008160e01c9050919050565b600060033d111561528e5760046000803e61528b600051615262565b90505b90565b600060443d1061531e576152a3613184565b60043d036004823e80513d602482011167ffffffffffffffff821117156152cb57505061531e565b808201805167ffffffffffffffff8111156152e9575050505061531e565b80602083010160043d03850181111561530657505050505061531e565b6153158260200185018661354a565b82955050505050505b90565b7f455243313135353a207472616e7366657220746f206e6f6e2d4552433131353560008201527f526563656976657220696d706c656d656e746572000000000000000000000000602082015250565b600061537d60348361335c565b915061538882615321565b604082019050919050565b600060208201905081810360008301526153ac81615370565b9050919050565b7f455243313135353a204552433131353552656365697665722072656a6563746560008201527f6420746f6b656e73000000000000000000000000000000000000000000000000602082015250565b600061540f60288361335c565b915061541a826153b3565b604082019050919050565b6000602082019050818103600083015261543e81615402565b9050919050565b600060a08201905061545a60008301886143c6565b61546760208301876143c6565b615474604083018661326c565b615481606083018561326c565b8181036080830152615493818461517f565b90509695505050505050565b60006154aa826131f6565b91506154b5836131f6565b92508282026154c3816131f6565b915082820484148315176154da576154d9614260565b5b5092915050565b60006154ec826131f6565b9150600082036154ff576154fe614260565b5b600182039050919050565b7f537472696e67733a20686578206c656e67746820696e73756666696369656e74600082015250565b600061554060208361335c565b915061554b8261550a565b602082019050919050565b6000602082019050818103600083015261556f81615533565b905091905056fea26469706673582212207ee0e28f75117f436c8aca28befb3e53abd0fea18da41c549b7a6e68d1d81b5464736f6c63430008120033",
  "linkReferences": {},
  "deployedLinkReferences": {}
}