{
  "_format": "hh-sol-artifact-1",
  "contractName": "Rewards",
  "sourceName": "contracts/Rewards.sol",
  "abi": [
    {
      "inputs": [
        {
          "internalType": "string",
          "name": "name",
          "type": "string"
        },
        {
          "internalType": "string",
          "name": "baseUri",
          "type": "string"
        }
      ],
      "stateMutability": "nonpayable",
      "type": "constructor"
    },
    {
      "anonymous": false,
      "inputs": [
        {
          "indexed": true,
          "internalType": "address",
          "name": "account",
          "type": "address"
        },
        {
          "indexed": true,
          "internalType": "address",
          "name": "operator",
          "type": "address"
        },
        {
          "indexed": false,
          "internalType": "bool",
          "name": "approved",
          "type": "bool"
        }
      ],
      "name": "ApprovalForAll",
      "type": "event"
    },
    {
      "anonymous": false,
      "inputs": [
        {
          "indexed": true,
          "internalType": "bytes32",
          "name": "role",
          "type": "bytes32"
        },
        {
          "indexed": true,
          "internalType": "bytes32",
          "name": "previousAdminRole",
          "type": "bytes32"
        },
        {
          "indexed": true,
          "internalType": "bytes32",
          "name": "newAdminRole",
          "type": "bytes32"
        }
      ],
      "name": "RoleAdminChanged",
      "type": "event"
    },
    {
      "anonymous": false,
      "inputs": [
        {
          "indexed": true,
          "internalType": "bytes32",
          "name": "role",
          "type": "bytes32"
        },
        {
          "indexed": true,
          "internalType": "address",
          "name": "account",
          "type": "address"
        },
        {
          "indexed": true,
          "internalType": "address",
          "name": "sender",
          "type": "address"
        }
      ],
      "name": "RoleGranted",
      "type": "event"
    },
    {
      "anonymous": false,
      "inputs": [
        {
          "indexed": true,
          "internalType": "bytes32",
          "name": "role",
          "type": "bytes32"
        },
        {
          "indexed": true,
          "internalType": "address",
          "name": "account",
          "type": "address"
        },
        {
          "indexed": true,
          "internalType": "address",
          "name": "sender",
          "type": "address"
        }
      ],
      "name": "RoleRevoked",
      "type": "event"
    },
    {
      "anonymous": false,
      "inputs": [
        {
          "indexed": false,
          "internalType": "address",
          "name": "issuer",
          "type": "address"
        },
        {
          "indexed": false,
          "internalType": "uint256",
          "name": "tokenId",
          "type": "uint256"
        }
      ],
      "name": "TokenCreated",
      "type": "event"
    },
    {
      "anonymous": false,
      "inputs": [
        {
          "indexed": true,
          "internalType": "address",
          "name": "operator",
          "type": "address"
        },
        {
          "indexed": true,
          "internalType": "address",
          "name": "from",
          "type": "address"
        },
        {
          "indexed": true,
          "internalType": "address",
          "name": "to",
          "type": "address"
        },
        {
          "indexed": false,
          "internalType": "uint256[]",
          "name": "ids",
          "type": "uint256[]"
        },
        {
          "indexed": false,
          "internalType": "uint256[]",
          "name": "values",
          "type": "uint256[]"
        }
      ],
      "name": "TransferBatch",
      "type": "event"
    },
    {
      "anonymous": false,
      "inputs": [
        {
          "indexed": true,
          "internalType": "address",
          "name": "operator",
          "type": "address"
        },
        {
          "indexed": true,
          "internalType": "address",
          "name": "from",
          "type": "address"
        },
        {
          "indexed": true,
          "internalType": "address",
          "name": "to",
          "type": "address"
        },
        {
          "indexed": false,
          "internalType": "uint256",
          "name": "id",
          "type": "uint256"
        },
        {
          "indexed": false,
          "internalType": "uint256",
          "name": "value",
          "type": "uint256"
        }
      ],
      "name": "TransferSingle",
      "type": "event"
    },
    {
      "anonymous": false,
      "inputs": [
        {
          "indexed": false,
          "internalType": "string",
          "name": "value",
          "type": "string"
        },
        {
          "indexed": true,
          "internalType": "uint256",
          "name": "id",
          "type": "uint256"
        }
      ],
      "name": "URI",
      "type": "event"
    },
    {
      "inputs": [],
      "name": "DEFAULT_ADMIN_ROLE",
      "outputs": [
        {
          "internalType": "bytes32",
          "name": "",
          "type": "bytes32"
        }
      ],
      "stateMutability": "view",
      "type": "function"
    },
    {
      "inputs": [],
      "name": "ISSUER_ROLE",
      "outputs": [
        {
          "internalType": "bytes32",
          "name": "",
          "type": "bytes32"
        }
      ],
      "stateMutability": "view",
      "type": "function"
    },
    {
      "inputs": [],
      "name": "_blockAllIssuers",
      "outputs": [
        {
          "internalType": "bool",
          "name": "",
          "type": "bool"
        }
      ],
      "stateMutability": "view",
      "type": "function"
    },
    {
      "inputs": [
        {
          "internalType": "address",
          "name": "addr",
          "type": "address"
        }
      ],
      "name": "addTokenIssuer",
      "outputs": [],
      "stateMutability": "nonpayable",
      "type": "function"
    },
    {
      "inputs": [
        {
          "internalType": "address[]",
          "name": "addressList",
          "type": "address[]"
        }
      ],
      "name": "addTokenIssuerBatch",
      "outputs": [],
      "stateMutability": "nonpayable",
      "type": "function"
    },
    {
      "inputs": [
        {
          "internalType": "address",
          "name": "account",
          "type": "address"
        },
        {
          "internalType": "uint256",
          "name": "id",
          "type": "uint256"
        }
      ],
      "name": "balanceOf",
      "outputs": [
        {
          "internalType": "uint256",
          "name": "",
          "type": "uint256"
        }
      ],
      "stateMutability": "view",
      "type": "function"
    },
    {
      "inputs": [
        {
          "internalType": "address[]",
          "name": "accounts",
          "type": "address[]"
        },
        {
          "internalType": "uint256[]",
          "name": "ids",
          "type": "uint256[]"
        }
      ],
      "name": "balanceOfBatch",
      "outputs": [
        {
          "internalType": "uint256[]",
          "name": "",
          "type": "uint256[]"
        }
      ],
      "stateMutability": "view",
      "type": "function"
    },
    {
      "inputs": [
        {
          "internalType": "bool",
          "name": "newStatus",
          "type": "bool"
        }
      ],
      "name": "blockTokensIssuing",
      "outputs": [],
      "stateMutability": "nonpayable",
      "type": "function"
    },
    {
      "inputs": [
        {
          "internalType": "address",
          "name": "to",
          "type": "address"
        },
        {
          "internalType": "uint256",
          "name": "tokenId",
          "type": "uint256"
        },
        {
          "internalType": "bytes32[]",
          "name": "merkleProof",
          "type": "bytes32[]"
        }
      ],
      "name": "claimToken",
      "outputs": [],
      "stateMutability": "nonpayable",
      "type": "function"
    },
    {
      "inputs": [
        {
          "internalType": "string",
          "name": "tokenURI",
          "type": "string"
        },
        {
          "internalType": "bytes32",
          "name": "merkleRootHash",
          "type": "bytes32"
        }
      ],
      "name": "createToken",
      "outputs": [],
      "stateMutability": "nonpayable",
      "type": "function"
    },
    {
      "inputs": [],
      "name": "getAllListedTokens",
      "outputs": [
        {
          "components": [
            {
              "internalType": "uint256",
              "name": "tokenId",
              "type": "uint256"
            },
            {
              "internalType": "address",
              "name": "issuer",
              "type": "address"
            },
            {
              "internalType": "bytes32",
              "name": "merkletRoot",
              "type": "bytes32"
            },
            {
              "internalType": "bool",
              "name": "claimable",
              "type": "bool"
            },
            {
              "internalType": "address[]",
              "name": "claimers",
              "type": "address[]"
            }
          ],
          "internalType": "struct Rewards.ListedToken[]",
          "name": "",
          "type": "tuple[]"
        }
      ],
      "stateMutability": "view",
      "type": "function"
    },
    {
      "inputs": [
        {
          "internalType": "bytes32",
          "name": "role",
          "type": "bytes32"
        }
      ],
      "name": "getRoleAdmin",
      "outputs": [
        {
          "internalType": "bytes32",
          "name": "",
          "type": "bytes32"
        }
      ],
      "stateMutability": "view",
      "type": "function"
    },
    {
      "inputs": [
        {
          "internalType": "bytes32",
          "name": "role",
          "type": "bytes32"
        },
        {
          "internalType": "address",
          "name": "account",
          "type": "address"
        }
      ],
      "name": "grantRole",
      "outputs": [],
      "stateMutability": "nonpayable",
      "type": "function"
    },
    {
      "inputs": [
        {
          "internalType": "bytes32",
          "name": "role",
          "type": "bytes32"
        },
        {
          "internalType": "address",
          "name": "account",
          "type": "address"
        }
      ],
      "name": "hasRole",
      "outputs": [
        {
          "internalType": "bool",
          "name": "",
          "type": "bool"
        }
      ],
      "stateMutability": "view",
      "type": "function"
    },
    {
      "inputs": [
        {
          "internalType": "address",
          "name": "account",
          "type": "address"
        },
        {
          "internalType": "address",
          "name": "operator",
          "type": "address"
        }
      ],
      "name": "isApprovedForAll",
      "outputs": [
        {
          "internalType": "bool",
          "name": "",
          "type": "bool"
        }
      ],
      "stateMutability": "view",
      "type": "function"
    },
    {
      "inputs": [
        {
          "internalType": "bytes32",
          "name": "role",
          "type": "bytes32"
        },
        {
          "internalType": "address",
          "name": "account",
          "type": "address"
        }
      ],
      "name": "renounceRole",
      "outputs": [],
      "stateMutability": "nonpayable",
      "type": "function"
    },
    {
      "inputs": [
        {
          "internalType": "bytes32",
          "name": "role",
          "type": "bytes32"
        },
        {
          "internalType": "address",
          "name": "account",
          "type": "address"
        }
      ],
      "name": "revokeRole",
      "outputs": [],
      "stateMutability": "nonpayable",
      "type": "function"
    },
    {
      "inputs": [
        {
          "internalType": "address",
          "name": "from",
          "type": "address"
        },
        {
          "internalType": "address",
          "name": "to",
          "type": "address"
        },
        {
          "internalType": "uint256[]",
          "name": "ids",
          "type": "uint256[]"
        },
        {
          "internalType": "uint256[]",
          "name": "amounts",
          "type": "uint256[]"
        },
        {
          "internalType": "bytes",
          "name": "data",
          "type": "bytes"
        }
      ],
      "name": "safeBatchTransferFrom",
      "outputs": [],
      "stateMutability": "nonpayable",
      "type": "function"
    },
    {
      "inputs": [
        {
          "internalType": "address",
          "name": "from",
          "type": "address"
        },
        {
          "internalType": "address",
          "name": "to",
          "type": "address"
        },
        {
          "internalType": "uint256",
          "name": "id",
          "type": "uint256"
        },
        {
          "internalType": "uint256",
          "name": "amount",
          "type": "uint256"
        },
        {
          "internalType": "bytes",
          "name": "data",
          "type": "bytes"
        }
      ],
      "name": "safeTransferFrom",
      "outputs": [],
      "stateMutability": "nonpayable",
      "type": "function"
    },
    {
      "inputs": [
        {
          "internalType": "address",
          "name": "operator",
          "type": "address"
        },
        {
          "internalType": "bool",
          "name": "approved",
          "type": "bool"
        }
      ],
      "name": "setApprovalForAll",
      "outputs": [],
      "stateMutability": "nonpayable",
      "type": "function"
    },
    {
      "inputs": [
        {
          "internalType": "uint256",
          "name": "tokenId",
          "type": "uint256"
        },
        {
          "internalType": "bytes32",
          "name": "merkleRootHash",
          "type": "bytes32"
        }
      ],
      "name": "setMerkleRoot",
      "outputs": [],
      "stateMutability": "nonpayable",
      "type": "function"
    },
    {
      "inputs": [
        {
          "internalType": "bytes4",
          "name": "interfaceId",
          "type": "bytes4"
        }
      ],
      "name": "supportsInterface",
      "outputs": [
        {
          "internalType": "bool",
          "name": "",
          "type": "bool"
        }
      ],
      "stateMutability": "view",
      "type": "function"
    },
    {
      "inputs": [
        {
          "internalType": "uint256",
          "name": "tokenId",
          "type": "uint256"
        }
      ],
      "name": "uri",
      "outputs": [
        {
          "internalType": "string",
          "name": "",
          "type": "string"
        }
      ],
      "stateMutability": "view",
      "type": "function"
    }
  ],
  "bytecode": "0x60806040526040518060200160405280600081525060049081620000249190620004ff565b503480156200003257600080fd5b50604051620055213803806200552183398181016040528101906200005891906200074a565b806200006a81620000dd60201b60201c565b5081600790816200007c9190620004ff565b506200008e81620000f260201b60201c565b620000a36000801b336200010b60201b60201c565b620000d57f114e74f6ea3bd819998f78687bfcb11b140da08e9b7d222fa9c1f1ba1f2aa122336200010b60201b60201c565b5050620007cf565b8060029081620000ee9190620004ff565b5050565b6200010881620001fd60201b620012e51760201c565b50565b6200011d82826200021260201b60201c565b620001f95760016003600084815260200190815260200160002060000160008373ffffffffffffffffffffffffffffffffffffffff1673ffffffffffffffffffffffffffffffffffffffff16815260200190815260200160002060006101000a81548160ff0219169083151502179055506200019e6200027d60201b60201c565b73ffffffffffffffffffffffffffffffffffffffff168173ffffffffffffffffffffffffffffffffffffffff16837f2f8788117e7eff1d82e926ec794901d17c78024a50270940304540a733656f0d60405160405180910390a45b5050565b80600490816200020e9190620004ff565b5050565b60006003600084815260200190815260200160002060000160008373ffffffffffffffffffffffffffffffffffffffff1673ffffffffffffffffffffffffffffffffffffffff16815260200190815260200160002060009054906101000a900460ff16905092915050565b600033905090565b600081519050919050565b7f4e487b7100000000000000000000000000000000000000000000000000000000600052604160045260246000fd5b7f4e487b7100000000000000000000000000000000000000000000000000000000600052602260045260246000fd5b600060028204905060018216806200030757607f821691505b6020821081036200031d576200031c620002bf565b5b50919050565b60008190508160005260206000209050919050565b60006020601f8301049050919050565b600082821b905092915050565b600060088302620003877fffffffffffffffffffffffffffffffffffffffffffffffffffffffffffffffff8262000348565b62000393868362000348565b95508019841693508086168417925050509392505050565b6000819050919050565b6000819050919050565b6000620003e0620003da620003d484620003ab565b620003b5565b620003ab565b9050919050565b6000819050919050565b620003fc83620003bf565b620004146200040b82620003e7565b84845462000355565b825550505050565b600090565b6200042b6200041c565b62000438818484620003f1565b505050565b5b8181101562000460576200045460008262000421565b6001810190506200043e565b5050565b601f821115620004af57620004798162000323565b620004848462000338565b8101602085101562000494578190505b620004ac620004a38562000338565b8301826200043d565b50505b505050565b600082821c905092915050565b6000620004d460001984600802620004b4565b1980831691505092915050565b6000620004ef8383620004c1565b9150826002028217905092915050565b6200050a8262000285565b67ffffffffffffffff81111562000526576200052562000290565b5b620005328254620002ee565b6200053f82828562000464565b600060209050601f83116001811462000577576000841562000562578287015190505b6200056e8582620004e1565b865550620005de565b601f198416620005878662000323565b60005b82811015620005b1578489015182556001820191506020850194506020810190506200058a565b86831015620005d15784890151620005cd601f891682620004c1565b8355505b6001600288020188555050505b505050505050565b6000604051905090565b600080fd5b600080fd5b600080fd5b600080fd5b6000601f19601f8301169050919050565b620006208262000604565b810181811067ffffffffffffffff8211171562000642576200064162000290565b5b80604052505050565b600062000657620005e6565b905062000665828262000615565b919050565b600067ffffffffffffffff82111562000688576200068762000290565b5b620006938262000604565b9050602081019050919050565b60005b83811015620006c0578082015181840152602081019050620006a3565b60008484015250505050565b6000620006e3620006dd846200066a565b6200064b565b905082815260208101848484011115620007025762000701620005ff565b5b6200070f848285620006a0565b509392505050565b600082601f8301126200072f576200072e620005fa565b5b815162000741848260208601620006cc565b91505092915050565b60008060408385031215620007645762000763620005f0565b5b600083015167ffffffffffffffff811115620007855762000784620005f5565b5b620007938582860162000717565b925050602083015167ffffffffffffffff811115620007b757620007b6620005f5565b5b620007c58582860162000717565b9150509250929050565b614d4280620007df6000396000f3fe608060405234801561001057600080fd5b506004361061014c5760003560e01c80634e1273f4116100c3578063a22cb4651161007c578063a22cb465146103ab578063a50d9983146103c7578063bb81f25c146103e5578063d547741f14610401578063e985e9c51461041d578063f242432a1461044d5761014c565b80634e1273f4146102d55780637107732b1461030557806382aefa24146103235780638bcd4f951461034157806391d148541461035d578063a217fddf1461038d5761014c565b8063248a9ca311610115578063248a9ca3146102195780632eb2c2d6146102495780632f2ff15d1461026557806336568abe146102815780634bcc5c521461029d5780634df5aa59146102b95761014c565b8062fdd58e1461015157806301ffc9a7146101815780630e89341c146101b1578063127884c7146101e157806318712c21146101fd575b600080fd5b61016b60048036038101906101669190612b5d565b610469565b6040516101789190612bac565b60405180910390f35b61019b60048036038101906101969190612c1f565b610531565b6040516101a89190612c67565b60405180910390f35b6101cb60048036038101906101c69190612c82565b610543565b6040516101d89190612d3f565b60405180910390f35b6101fb60048036038101906101f69190612ecc565b610555565b005b61021760048036038101906102129190612f28565b6106f0565b005b610233600480360381019061022e9190612f68565b6107f2565b6040516102409190612fa4565b60405180910390f35b610263600480360381019061025e9190613128565b610812565b005b61027f600480360381019061027a91906131f7565b6108b3565b005b61029b600480360381019061029691906131f7565b6108d4565b005b6102b760048036038101906102b29190613292565b610957565b005b6102d360048036038101906102ce919061335c565b610c23565b005b6102ef60048036038101906102ea919061346c565b610c87565b6040516102fc91906135a2565b60405180910390f35b61030d610da0565b60405161031a9190612c67565b60405180910390f35b61032b610db3565b6040516103389190612fa4565b60405180910390f35b61035b600480360381019061035691906135c4565b610dd7565b005b610377600480360381019061037291906131f7565b610e12565b6040516103849190612c67565b60405180910390f35b610395610e7d565b6040516103a29190612fa4565b60405180910390f35b6103c560048036038101906103c0919061361d565b610e84565b005b6103cf610e9a565b6040516103dc9190613871565b60405180910390f35b6103ff60048036038101906103fa9190613893565b611164565b005b61041b600480360381019061041691906131f7565b61118f565b005b610437600480360381019061043291906138c0565b6111b0565b6040516104449190612c67565b60405180910390f35b61046760048036038101906104629190613900565b611244565b005b60008073ffffffffffffffffffffffffffffffffffffffff168373ffffffffffffffffffffffffffffffffffffffff16036104d9576040517f08c379a00000000000000000000000000000000000000000000000000000000081526004016104d090613a09565b60405180910390fd5b60008083815260200190815260200160002060008473ffffffffffffffffffffffffffffffffffffffff1673ffffffffffffffffffffffffffffffffffffffff16815260200190815260200160002054905092915050565b600061053c826112f8565b9050919050565b606061054e82611372565b9050919050565b7f114e74f6ea3bd819998f78687bfcb11b140da08e9b7d222fa9c1f1ba1f2aa12261057f81611457565b60001515600860009054906101000a900460ff16151514806105aa57506105a96000801b33610e12565b5b6105e9576040517f08c379a00000000000000000000000000000000000000000000000000000000081526004016105e090613a9b565b60405180910390fd5b6105f3600661146b565b60006105ff6006611481565b905061061d338260016040518060200160405280600081525061148f565b610627818561163f565b6000600960008381526020019081526020016000209050818160000181905550338160010160006101000a81548173ffffffffffffffffffffffffffffffffffffffff021916908373ffffffffffffffffffffffffffffffffffffffff16021790555083816002018190555060018160030160006101000a81548160ff0219169083151502179055507f1cef2b4ec7f129e441c961eb4fae22fd3131868db6be990c6f065f35b6b53cf333836040516106e1929190613aca565b60405180910390a15050505050565b7f114e74f6ea3bd819998f78687bfcb11b140da08e9b7d222fa9c1f1ba1f2aa12261071a81611457565b3373ffffffffffffffffffffffffffffffffffffffff166009600085815260200190815260200160002060010160009054906101000a900473ffffffffffffffffffffffffffffffffffffffff1673ffffffffffffffffffffffffffffffffffffffff16148061079357506107926000801b33610e12565b5b6107d2576040517f08c379a00000000000000000000000000000000000000000000000000000000081526004016107c990613b65565b60405180910390fd5b816009600085815260200190815260200160002060020181905550505050565b600060036000838152602001908152602001600020600101549050919050565b61081a61164d565b73ffffffffffffffffffffffffffffffffffffffff168573ffffffffffffffffffffffffffffffffffffffff161480610860575061085f8561085a61164d565b6111b0565b5b61089f576040517f08c379a000000000000000000000000000000000000000000000000000000000815260040161089690613bf7565b60405180910390fd5b6108ac8585858585611655565b5050505050565b6108bc826107f2565b6108c581611457565b6108cf8383611976565b505050565b6108dc61164d565b73ffffffffffffffffffffffffffffffffffffffff168173ffffffffffffffffffffffffffffffffffffffff1614610949576040517f08c379a000000000000000000000000000000000000000000000000000000000815260040161094090613c89565b60405180910390fd5b6109538282611a57565b5050565b6000801b61096481611457565b60006009600086815260200190815260200160002090506000600a60008781526020019081526020016000209050600073ffffffffffffffffffffffffffffffffffffffff168260010160009054906101000a900473ffffffffffffffffffffffffffffffffffffffff1673ffffffffffffffffffffffffffffffffffffffff1603610a25576040517f08c379a0000000000000000000000000000000000000000000000000000000008152600401610a1c90613cf5565b60405180910390fd5b60008160010160008973ffffffffffffffffffffffffffffffffffffffff1673ffffffffffffffffffffffffffffffffffffffff1681526020019081526020016000205414610aa9576040517f08c379a0000000000000000000000000000000000000000000000000000000008152600401610aa090613d87565b60405180910390fd5b600115158260030160009054906101000a900460ff16151514610b01576040517f08c379a0000000000000000000000000000000000000000000000000000000008152600401610af890613e19565b60405180910390fd5b610b0d86888787611b39565b610b4c576040517f08c379a0000000000000000000000000000000000000000000000000000000008152600401610b4390613eab565b60405180910390fd5b610b68878760016040518060200160405280600081525061148f565b80600001879080600181540180825580915050600190039060005260206000200160009091909190916101000a81548173ffffffffffffffffffffffffffffffffffffffff021916908373ffffffffffffffffffffffffffffffffffffffff16021790555080600001805490508160010160008973ffffffffffffffffffffffffffffffffffffffff1673ffffffffffffffffffffffffffffffffffffffff1681526020019081526020016000208190555050505050505050565b6000801b610c3081611457565b60005b83839050811015610c8157610c6e848483818110610c5457610c53613ecb565b5b9050602002016020810190610c6991906135c4565b610dd7565b8080610c7990613f29565b915050610c33565b50505050565b60608151835114610ccd576040517f08c379a0000000000000000000000000000000000000000000000000000000008152600401610cc490613fe3565b60405180910390fd5b6000835167ffffffffffffffff811115610cea57610ce9612d6b565b5b604051908082528060200260200182016040528015610d185781602001602082028036833780820191505090505b50905060005b8451811015610d9557610d65858281518110610d3d57610d3c613ecb565b5b6020026020010151858381518110610d5857610d57613ecb565b5b6020026020010151610469565b828281518110610d7857610d77613ecb565b5b60200260200101818152505080610d8e90613f29565b9050610d1e565b508091505092915050565b600860009054906101000a900460ff1681565b7f114e74f6ea3bd819998f78687bfcb11b140da08e9b7d222fa9c1f1ba1f2aa12281565b6000801b610de481611457565b610e0e7f114e74f6ea3bd819998f78687bfcb11b140da08e9b7d222fa9c1f1ba1f2aa12283611976565b5050565b60006003600084815260200190815260200160002060000160008373ffffffffffffffffffffffffffffffffffffffff1673ffffffffffffffffffffffffffffffffffffffff16815260200190815260200160002060009054906101000a900460ff16905092915050565b6000801b81565b610e96610e8f61164d565b8383611c27565b5050565b60606000610ea86006611481565b905060008167ffffffffffffffff811115610ec657610ec5612d6b565b5b604051908082528060200260200182016040528015610eff57816020015b610eec612a6b565b815260200190600190039081610ee45790505b5090506000805b8381101561115a576000600182610f1d9190614003565b90506000600960008381526020019081526020016000209050806040518060a0016040529081600082015481526020016001820160009054906101000a900473ffffffffffffffffffffffffffffffffffffffff1673ffffffffffffffffffffffffffffffffffffffff1673ffffffffffffffffffffffffffffffffffffffff168152602001600282015481526020016003820160009054906101000a900460ff161515151581526020016004820180548060200260200160405190810160405280929190818152602001828054801561104c57602002820191906000526020600020905b8160009054906101000a900473ffffffffffffffffffffffffffffffffffffffff1673ffffffffffffffffffffffffffffffffffffffff1681526020019060010190808311611002575b50505050508152505085858151811061106857611067613ecb565b5b60200260200101819052506000600a600084815260200190815260200160002090508060000180548060200260200160405190810160405280929190818152602001828054801561110e57602002820191906000526020600020905b8160009054906101000a900473ffffffffffffffffffffffffffffffffffffffff1673ffffffffffffffffffffffffffffffffffffffff16815260200190600101908083116110c4575b505050505086868151811061112657611125613ecb565b5b6020026020010151608001819052506001856111429190614003565b9450505050808061115290613f29565b915050610f06565b5081935050505090565b6000801b61117181611457565b81600860006101000a81548160ff0219169083151502179055505050565b611198826107f2565b6111a181611457565b6111ab8383611a57565b505050565b6000600160008473ffffffffffffffffffffffffffffffffffffffff1673ffffffffffffffffffffffffffffffffffffffff16815260200190815260200160002060008373ffffffffffffffffffffffffffffffffffffffff1673ffffffffffffffffffffffffffffffffffffffff16815260200190815260200160002060009054906101000a900460ff16905092915050565b61124c61164d565b73ffffffffffffffffffffffffffffffffffffffff168573ffffffffffffffffffffffffffffffffffffffff16148061129257506112918561128c61164d565b6111b0565b5b6112d1576040517f08c379a00000000000000000000000000000000000000000000000000000000081526004016112c890613bf7565b60405180910390fd5b6112de8585858585611d93565b5050505050565b80600490816112f49190614243565b5050565b60007f7965db0b000000000000000000000000000000000000000000000000000000007bffffffffffffffffffffffffffffffffffffffffffffffffffffffff1916827bffffffffffffffffffffffffffffffffffffffffffffffffffffffff1916148061136b575061136a8261202e565b5b9050919050565b6060600060056000848152602001908152602001600020805461139490614066565b80601f01602080910402602001604051908101604052809291908181526020018280546113c090614066565b801561140d5780601f106113e25761010080835404028352916020019161140d565b820191906000526020600020905b8154815290600101906020018083116113f057829003601f168201915b50505050509050600081511161142b5761142683612110565b61144f565b60048160405160200161143f9291906143d4565b6040516020818303038152906040525b915050919050565b6114688161146361164d565b6121a4565b50565b6001816000016000828254019250508190555050565b600081600001549050919050565b600073ffffffffffffffffffffffffffffffffffffffff168473ffffffffffffffffffffffffffffffffffffffff16036114fe576040517f08c379a00000000000000000000000000000000000000000000000000000000081526004016114f59061446a565b60405180910390fd5b600061150861164d565b9050600061151585612229565b9050600061152285612229565b9050611533836000898585896122a3565b8460008088815260200190815260200160002060008973ffffffffffffffffffffffffffffffffffffffff1673ffffffffffffffffffffffffffffffffffffffff16815260200190815260200160002060008282546115929190614003565b925050819055508673ffffffffffffffffffffffffffffffffffffffff16600073ffffffffffffffffffffffffffffffffffffffff168473ffffffffffffffffffffffffffffffffffffffff167fc3d58168c5ae7397731d063d5bbf3d657854427343f4c083240f7aacaa2d0f62898960405161161092919061448a565b60405180910390a4611627836000898585896122ab565b611636836000898989896122b3565b50505050505050565b611649828261248a565b5050565b600033905090565b8151835114611699576040517f08c379a000000000000000000000000000000000000000000000000000000000815260040161169090614525565b60405180910390fd5b600073ffffffffffffffffffffffffffffffffffffffff168473ffffffffffffffffffffffffffffffffffffffff1603611708576040517f08c379a00000000000000000000000000000000000000000000000000000000081526004016116ff906145b7565b60405180910390fd5b600061171261164d565b90506117228187878787876122a3565b60005b84518110156118d357600085828151811061174357611742613ecb565b5b60200260200101519050600085838151811061176257611761613ecb565b5b60200260200101519050600080600084815260200190815260200160002060008b73ffffffffffffffffffffffffffffffffffffffff1673ffffffffffffffffffffffffffffffffffffffff16815260200190815260200160002054905081811015611803576040517f08c379a00000000000000000000000000000000000000000000000000000000081526004016117fa90614649565b60405180910390fd5b81810360008085815260200190815260200160002060008c73ffffffffffffffffffffffffffffffffffffffff1673ffffffffffffffffffffffffffffffffffffffff168152602001908152602001600020819055508160008085815260200190815260200160002060008b73ffffffffffffffffffffffffffffffffffffffff1673ffffffffffffffffffffffffffffffffffffffff16815260200190815260200160002060008282546118b89190614003565b92505081905550505050806118cc90613f29565b9050611725565b508473ffffffffffffffffffffffffffffffffffffffff168673ffffffffffffffffffffffffffffffffffffffff168273ffffffffffffffffffffffffffffffffffffffff167f4a39dc06d4c0dbc64b70af90fd698a233a518aa5d07e595d983b8c0526c8f7fb878760405161194a929190614669565b60405180910390a46119608187878787876122ab565b61196e8187878787876124ef565b505050505050565b6119808282610e12565b611a535760016003600084815260200190815260200160002060000160008373ffffffffffffffffffffffffffffffffffffffff1673ffffffffffffffffffffffffffffffffffffffff16815260200190815260200160002060006101000a81548160ff0219169083151502179055506119f861164d565b73ffffffffffffffffffffffffffffffffffffffff168173ffffffffffffffffffffffffffffffffffffffff16837f2f8788117e7eff1d82e926ec794901d17c78024a50270940304540a733656f0d60405160405180910390a45b5050565b611a618282610e12565b15611b355760006003600084815260200190815260200160002060000160008373ffffffffffffffffffffffffffffffffffffffff1673ffffffffffffffffffffffffffffffffffffffff16815260200190815260200160002060006101000a81548160ff021916908315150217905550611ada61164d565b73ffffffffffffffffffffffffffffffffffffffff168173ffffffffffffffffffffffffffffffffffffffff16837ff6391f5c32d9c69d2a47ea670b442974b53935d1edc7fd64eb21e047a839171b60405160405180910390a45b5050565b6000806009600087815260200190815260200160002090506000801b816002015403611b9a576040517f08c379a0000000000000000000000000000000000000000000000000000000008152600401611b9190614712565b60405180910390fd5b600081600201549050600086604051602001611bb6919061477a565b604051602081830303815290604052805190602001209050611c1a868680806020026020016040519081016040528093929190818152602001838360200280828437600081840152601f19601f8201169050808301925050505050505083836126c6565b9350505050949350505050565b8173ffffffffffffffffffffffffffffffffffffffff168373ffffffffffffffffffffffffffffffffffffffff1603611c95576040517f08c379a0000000000000000000000000000000000000000000000000000000008152600401611c8c90614807565b60405180910390fd5b80600160008573ffffffffffffffffffffffffffffffffffffffff1673ffffffffffffffffffffffffffffffffffffffff16815260200190815260200160002060008473ffffffffffffffffffffffffffffffffffffffff1673ffffffffffffffffffffffffffffffffffffffff16815260200190815260200160002060006101000a81548160ff0219169083151502179055508173ffffffffffffffffffffffffffffffffffffffff168373ffffffffffffffffffffffffffffffffffffffff167f17307eab39ab6107e8899845ad3d59bd9653f200f220920489ca2b5937696c3183604051611d869190612c67565b60405180910390a3505050565b600073ffffffffffffffffffffffffffffffffffffffff168473ffffffffffffffffffffffffffffffffffffffff1603611e02576040517f08c379a0000000000000000000000000000000000000000000000000000000008152600401611df9906145b7565b60405180910390fd5b6000611e0c61164d565b90506000611e1985612229565b90506000611e2685612229565b9050611e368389898585896122a3565b600080600088815260200190815260200160002060008a73ffffffffffffffffffffffffffffffffffffffff1673ffffffffffffffffffffffffffffffffffffffff16815260200190815260200160002054905085811015611ecd576040517f08c379a0000000000000000000000000000000000000000000000000000000008152600401611ec490614649565b60405180910390fd5b85810360008089815260200190815260200160002060008b73ffffffffffffffffffffffffffffffffffffffff1673ffffffffffffffffffffffffffffffffffffffff168152602001908152602001600020819055508560008089815260200190815260200160002060008a73ffffffffffffffffffffffffffffffffffffffff1673ffffffffffffffffffffffffffffffffffffffff1681526020019081526020016000206000828254611f829190614003565b925050819055508773ffffffffffffffffffffffffffffffffffffffff168973ffffffffffffffffffffffffffffffffffffffff168573ffffffffffffffffffffffffffffffffffffffff167fc3d58168c5ae7397731d063d5bbf3d657854427343f4c083240f7aacaa2d0f628a8a604051611fff92919061448a565b60405180910390a4612015848a8a86868a6122ab565b612023848a8a8a8a8a6122b3565b505050505050505050565b60007fd9b67a26000000000000000000000000000000000000000000000000000000007bffffffffffffffffffffffffffffffffffffffffffffffffffffffff1916827bffffffffffffffffffffffffffffffffffffffffffffffffffffffff191614806120f957507f0e89341c000000000000000000000000000000000000000000000000000000007bffffffffffffffffffffffffffffffffffffffffffffffffffffffff1916827bffffffffffffffffffffffffffffffffffffffffffffffffffffffff1916145b806121095750612108826126dd565b5b9050919050565b60606002805461211f90614066565b80601f016020809104026020016040519081016040528092919081815260200182805461214b90614066565b80156121985780601f1061216d57610100808354040283529160200191612198565b820191906000526020600020905b81548152906001019060200180831161217b57829003601f168201915b50505050509050919050565b6121ae8282610e12565b612225576121bb81612747565b6121c98360001c6020612774565b6040516020016121da9291906148bf565b6040516020818303038152906040526040517f08c379a000000000000000000000000000000000000000000000000000000000815260040161221c9190612d3f565b60405180910390fd5b5050565b60606000600167ffffffffffffffff81111561224857612247612d6b565b5b6040519080825280602002602001820160405280156122765781602001602082028036833780820191505090505b509050828160008151811061228e5761228d613ecb565b5b60200260200101818152505080915050919050565b505050505050565b505050505050565b6122d28473ffffffffffffffffffffffffffffffffffffffff166129b0565b15612482578373ffffffffffffffffffffffffffffffffffffffff1663f23a6e6187878686866040518663ffffffff1660e01b815260040161231895949392919061494e565b6020604051808303816000875af192505050801561235457506040513d601f19601f8201168201806040525081019061235191906149bd565b60015b6123f9576123606149f7565b806308c379a0036123bc5750612374614a19565b8061237f57506123be565b806040517f08c379a00000000000000000000000000000000000000000000000000000000081526004016123b39190612d3f565b60405180910390fd5b505b6040517f08c379a00000000000000000000000000000000000000000000000000000000081526004016123f090614b1b565b60405180910390fd5b63f23a6e6160e01b7bffffffffffffffffffffffffffffffffffffffffffffffffffffffff1916817bffffffffffffffffffffffffffffffffffffffffffffffffffffffff191614612480576040517f08c379a000000000000000000000000000000000000000000000000000000000815260040161247790614bad565b60405180910390fd5b505b505050505050565b806005600084815260200190815260200160002090816124aa9190614243565b50817f6bb7ff708619ba0610cba295a58592e0451dee2622938c8755667688daf3529b6124d684610543565b6040516124e39190612d3f565b60405180910390a25050565b61250e8473ffffffffffffffffffffffffffffffffffffffff166129b0565b156126be578373ffffffffffffffffffffffffffffffffffffffff1663bc197c8187878686866040518663ffffffff1660e01b8152600401612554959493929190614bcd565b6020604051808303816000875af192505050801561259057506040513d601f19601f8201168201806040525081019061258d91906149bd565b60015b6126355761259c6149f7565b806308c379a0036125f857506125b0614a19565b806125bb57506125fa565b806040517f08c379a00000000000000000000000000000000000000000000000000000000081526004016125ef9190612d3f565b60405180910390fd5b505b6040517f08c379a000000000000000000000000000000000000000000000000000000000815260040161262c90614b1b565b60405180910390fd5b63bc197c8160e01b7bffffffffffffffffffffffffffffffffffffffffffffffffffffffff1916817bffffffffffffffffffffffffffffffffffffffffffffffffffffffff1916146126bc576040517f08c379a00000000000000000000000000000000000000000000000000000000081526004016126b390614bad565b60405180910390fd5b505b505050505050565b6000826126d385846129d3565b1490509392505050565b60007f01ffc9a7000000000000000000000000000000000000000000000000000000007bffffffffffffffffffffffffffffffffffffffffffffffffffffffff1916827bffffffffffffffffffffffffffffffffffffffffffffffffffffffff1916149050919050565b606061276d8273ffffffffffffffffffffffffffffffffffffffff16601460ff16612774565b9050919050565b6060600060028360026127879190614c35565b6127919190614003565b67ffffffffffffffff8111156127aa576127a9612d6b565b5b6040519080825280601f01601f1916602001820160405280156127dc5781602001600182028036833780820191505090505b5090507f30000000000000000000000000000000000000000000000000000000000000008160008151811061281457612813613ecb565b5b60200101907effffffffffffffffffffffffffffffffffffffffffffffffffffffffffffff1916908160001a9053507f78000000000000000000000000000000000000000000000000000000000000008160018151811061287857612877613ecb565b5b60200101907effffffffffffffffffffffffffffffffffffffffffffffffffffffffffffff1916908160001a905350600060018460026128b89190614c35565b6128c29190614003565b90505b6001811115612962577f3031323334353637383961626364656600000000000000000000000000000000600f86166010811061290457612903613ecb565b5b1a60f81b82828151811061291b5761291a613ecb565b5b60200101907effffffffffffffffffffffffffffffffffffffffffffffffffffffffffffff1916908160001a905350600485901c94508061295b90614c77565b90506128c5565b50600084146129a6576040517f08c379a000000000000000000000000000000000000000000000000000000000815260040161299d90614cec565b60405180910390fd5b8091505092915050565b6000808273ffffffffffffffffffffffffffffffffffffffff163b119050919050565b60008082905060005b8451811015612a1e57612a09828683815181106129fc576129fb613ecb565b5b6020026020010151612a29565b91508080612a1690613f29565b9150506129dc565b508091505092915050565b6000818310612a4157612a3c8284612a54565b612a4c565b612a4b8383612a54565b5b905092915050565b600082600052816020526040600020905092915050565b6040518060a0016040528060008152602001600073ffffffffffffffffffffffffffffffffffffffff16815260200160008019168152602001600015158152602001606081525090565b6000604051905090565b600080fd5b600080fd5b600073ffffffffffffffffffffffffffffffffffffffff82169050919050565b6000612af482612ac9565b9050919050565b612b0481612ae9565b8114612b0f57600080fd5b50565b600081359050612b2181612afb565b92915050565b6000819050919050565b612b3a81612b27565b8114612b4557600080fd5b50565b600081359050612b5781612b31565b92915050565b60008060408385031215612b7457612b73612abf565b5b6000612b8285828601612b12565b9250506020612b9385828601612b48565b9150509250929050565b612ba681612b27565b82525050565b6000602082019050612bc16000830184612b9d565b92915050565b60007fffffffff0000000000000000000000000000000000000000000000000000000082169050919050565b612bfc81612bc7565b8114612c0757600080fd5b50565b600081359050612c1981612bf3565b92915050565b600060208284031215612c3557612c34612abf565b5b6000612c4384828501612c0a565b91505092915050565b60008115159050919050565b612c6181612c4c565b82525050565b6000602082019050612c7c6000830184612c58565b92915050565b600060208284031215612c9857612c97612abf565b5b6000612ca684828501612b48565b91505092915050565b600081519050919050565b600082825260208201905092915050565b60005b83811015612ce9578082015181840152602081019050612cce565b60008484015250505050565b6000601f19601f8301169050919050565b6000612d1182612caf565b612d1b8185612cba565b9350612d2b818560208601612ccb565b612d3481612cf5565b840191505092915050565b60006020820190508181036000830152612d598184612d06565b905092915050565b600080fd5b600080fd5b7f4e487b7100000000000000000000000000000000000000000000000000000000600052604160045260246000fd5b612da382612cf5565b810181811067ffffffffffffffff82111715612dc257612dc1612d6b565b5b80604052505050565b6000612dd5612ab5565b9050612de18282612d9a565b919050565b600067ffffffffffffffff821115612e0157612e00612d6b565b5b612e0a82612cf5565b9050602081019050919050565b82818337600083830152505050565b6000612e39612e3484612de6565b612dcb565b905082815260208101848484011115612e5557612e54612d66565b5b612e60848285612e17565b509392505050565b600082601f830112612e7d57612e7c612d61565b5b8135612e8d848260208601612e26565b91505092915050565b6000819050919050565b612ea981612e96565b8114612eb457600080fd5b50565b600081359050612ec681612ea0565b92915050565b60008060408385031215612ee357612ee2612abf565b5b600083013567ffffffffffffffff811115612f0157612f00612ac4565b5b612f0d85828601612e68565b9250506020612f1e85828601612eb7565b9150509250929050565b60008060408385031215612f3f57612f3e612abf565b5b6000612f4d85828601612b48565b9250506020612f5e85828601612eb7565b9150509250929050565b600060208284031215612f7e57612f7d612abf565b5b6000612f8c84828501612eb7565b91505092915050565b612f9e81612e96565b82525050565b6000602082019050612fb96000830184612f95565b92915050565b600067ffffffffffffffff821115612fda57612fd9612d6b565b5b602082029050602081019050919050565b600080fd5b6000613003612ffe84612fbf565b612dcb565b9050808382526020820190506020840283018581111561302657613025612feb565b5b835b8181101561304f578061303b8882612b48565b845260208401935050602081019050613028565b5050509392505050565b600082601f83011261306e5761306d612d61565b5b813561307e848260208601612ff0565b91505092915050565b600067ffffffffffffffff8211156130a2576130a1612d6b565b5b6130ab82612cf5565b9050602081019050919050565b60006130cb6130c684613087565b612dcb565b9050828152602081018484840111156130e7576130e6612d66565b5b6130f2848285612e17565b509392505050565b600082601f83011261310f5761310e612d61565b5b813561311f8482602086016130b8565b91505092915050565b600080600080600060a0868803121561314457613143612abf565b5b600061315288828901612b12565b955050602061316388828901612b12565b945050604086013567ffffffffffffffff81111561318457613183612ac4565b5b61319088828901613059565b935050606086013567ffffffffffffffff8111156131b1576131b0612ac4565b5b6131bd88828901613059565b925050608086013567ffffffffffffffff8111156131de576131dd612ac4565b5b6131ea888289016130fa565b9150509295509295909350565b6000806040838503121561320e5761320d612abf565b5b600061321c85828601612eb7565b925050602061322d85828601612b12565b9150509250929050565b600080fd5b60008083601f84011261325257613251612d61565b5b8235905067ffffffffffffffff81111561326f5761326e613237565b5b60208301915083602082028301111561328b5761328a612feb565b5b9250929050565b600080600080606085870312156132ac576132ab612abf565b5b60006132ba87828801612b12565b94505060206132cb87828801612b48565b935050604085013567ffffffffffffffff8111156132ec576132eb612ac4565b5b6132f88782880161323c565b925092505092959194509250565b60008083601f84011261331c5761331b612d61565b5b8235905067ffffffffffffffff81111561333957613338613237565b5b60208301915083602082028301111561335557613354612feb565b5b9250929050565b6000806020838503121561337357613372612abf565b5b600083013567ffffffffffffffff81111561339157613390612ac4565b5b61339d85828601613306565b92509250509250929050565b600067ffffffffffffffff8211156133c4576133c3612d6b565b5b602082029050602081019050919050565b60006133e86133e3846133a9565b612dcb565b9050808382526020820190506020840283018581111561340b5761340a612feb565b5b835b8181101561343457806134208882612b12565b84526020840193505060208101905061340d565b5050509392505050565b600082601f83011261345357613452612d61565b5b81356134638482602086016133d5565b91505092915050565b6000806040838503121561348357613482612abf565b5b600083013567ffffffffffffffff8111156134a1576134a0612ac4565b5b6134ad8582860161343e565b925050602083013567ffffffffffffffff8111156134ce576134cd612ac4565b5b6134da85828601613059565b9150509250929050565b600081519050919050565b600082825260208201905092915050565b6000819050602082019050919050565b61351981612b27565b82525050565b600061352b8383613510565b60208301905092915050565b6000602082019050919050565b600061354f826134e4565b61355981856134ef565b935061356483613500565b8060005b8381101561359557815161357c888261351f565b975061358783613537565b925050600181019050613568565b5085935050505092915050565b600060208201905081810360008301526135bc8184613544565b905092915050565b6000602082840312156135da576135d9612abf565b5b60006135e884828501612b12565b91505092915050565b6135fa81612c4c565b811461360557600080fd5b50565b600081359050613617816135f1565b92915050565b6000806040838503121561363457613633612abf565b5b600061364285828601612b12565b925050602061365385828601613608565b9150509250929050565b600081519050919050565b600082825260208201905092915050565b6000819050602082019050919050565b61369281612ae9565b82525050565b6136a181612e96565b82525050565b6136b081612c4c565b82525050565b600081519050919050565b600082825260208201905092915050565b6000819050602082019050919050565b60006136ee8383613689565b60208301905092915050565b6000602082019050919050565b6000613712826136b6565b61371c81856136c1565b9350613727836136d2565b8060005b8381101561375857815161373f88826136e2565b975061374a836136fa565b92505060018101905061372b565b5085935050505092915050565b600060a08301600083015161377d6000860182613510565b5060208301516137906020860182613689565b5060408301516137a36040860182613698565b5060608301516137b660608601826136a7565b50608083015184820360808601526137ce8282613707565b9150508091505092915050565b60006137e78383613765565b905092915050565b6000602082019050919050565b60006138078261365d565b6138118185613668565b93508360208202850161382385613679565b8060005b8581101561385f578484038952815161384085826137db565b945061384b836137ef565b925060208a01995050600181019050613827565b50829750879550505050505092915050565b6000602082019050818103600083015261388b81846137fc565b905092915050565b6000602082840312156138a9576138a8612abf565b5b60006138b784828501613608565b91505092915050565b600080604083850312156138d7576138d6612abf565b5b60006138e585828601612b12565b92505060206138f685828601612b12565b9150509250929050565b600080600080600060a0868803121561391c5761391b612abf565b5b600061392a88828901612b12565b955050602061393b88828901612b12565b945050604061394c88828901612b48565b935050606061395d88828901612b48565b925050608086013567ffffffffffffffff81111561397e5761397d612ac4565b5b61398a888289016130fa565b9150509295509295909350565b7f455243313135353a2061646472657373207a65726f206973206e6f742061207660008201527f616c6964206f776e657200000000000000000000000000000000000000000000602082015250565b60006139f3602a83612cba565b91506139fe82613997565b604082019050919050565b60006020820190508181036000830152613a22816139e6565b9050919050565b7f43616e6e6f742063726561746520746f6b656e7320617420746869732074696d60008201527f652e000000000000000000000000000000000000000000000000000000000000602082015250565b6000613a85602283612cba565b9150613a9082613a29565b604082019050919050565b60006020820190508181036000830152613ab481613a78565b9050919050565b613ac481612ae9565b82525050565b6000604082019050613adf6000830185613abb565b613aec6020830184612b9d565b9392505050565b7f416374696f6e206e6f7420616c6c6f7765643a20736574206d65726b6c65207260008201527f6f6f740000000000000000000000000000000000000000000000000000000000602082015250565b6000613b4f602383612cba565b9150613b5a82613af3565b604082019050919050565b60006020820190508181036000830152613b7e81613b42565b9050919050565b7f455243313135353a2063616c6c6572206973206e6f7420746f6b656e206f776e60008201527f6572206f7220617070726f766564000000000000000000000000000000000000602082015250565b6000613be1602e83612cba565b9150613bec82613b85565b604082019050919050565b60006020820190508181036000830152613c1081613bd4565b9050919050565b7f416363657373436f6e74726f6c3a2063616e206f6e6c792072656e6f756e636560008201527f20726f6c657320666f722073656c660000000000000000000000000000000000602082015250565b6000613c73602f83612cba565b9150613c7e82613c17565b604082019050919050565b60006020820190508181036000830152613ca281613c66565b9050919050565b7f496e76616c696420746f6b656e20696400000000000000000000000000000000600082015250565b6000613cdf601083612cba565b9150613cea82613ca9565b602082019050919050565b60006020820190508181036000830152613d0e81613cd2565b9050919050565b7f546f6b656e20616c726561647920636c61696d6564206279207468697320776160008201527f6c6c657400000000000000000000000000000000000000000000000000000000602082015250565b6000613d71602483612cba565b9150613d7c82613d15565b604082019050919050565b60006020820190508181036000830152613da081613d64565b9050919050565b7f546f6b656e206973206e6f7420636c61696d61626c652061742074686973206d60008201527f6f6d656e74000000000000000000000000000000000000000000000000000000602082015250565b6000613e03602583612cba565b9150613e0e82613da7565b604082019050919050565b60006020820190508181036000830152613e3281613df6565b9050919050565b7f41646472657373206973206e6f7420616c6c6f77656420746f20636c61696d2060008201527f7468652072657175657374656420746f6b656e00000000000000000000000000602082015250565b6000613e95603383612cba565b9150613ea082613e39565b604082019050919050565b60006020820190508181036000830152613ec481613e88565b9050919050565b7f4e487b7100000000000000000000000000000000000000000000000000000000600052603260045260246000fd5b7f4e487b7100000000000000000000000000000000000000000000000000000000600052601160045260246000fd5b6000613f3482612b27565b91507fffffffffffffffffffffffffffffffffffffffffffffffffffffffffffffffff8203613f6657613f65613efa565b5b600182019050919050565b7f455243313135353a206163636f756e747320616e6420696473206c656e67746860008201527f206d69736d617463680000000000000000000000000000000000000000000000602082015250565b6000613fcd602983612cba565b9150613fd882613f71565b604082019050919050565b60006020820190508181036000830152613ffc81613fc0565b9050919050565b600061400e82612b27565b915061401983612b27565b925082820190508082111561403157614030613efa565b5b92915050565b7f4e487b7100000000000000000000000000000000000000000000000000000000600052602260045260246000fd5b6000600282049050600182168061407e57607f821691505b60208210810361409157614090614037565b5b50919050565b60008190508160005260206000209050919050565b60006020601f8301049050919050565b600082821b905092915050565b6000600883026140f97fffffffffffffffffffffffffffffffffffffffffffffffffffffffffffffffff826140bc565b61410386836140bc565b95508019841693508086168417925050509392505050565b6000819050919050565b600061414061413b61413684612b27565b61411b565b612b27565b9050919050565b6000819050919050565b61415a83614125565b61416e61416682614147565b8484546140c9565b825550505050565b600090565b614183614176565b61418e818484614151565b505050565b5b818110156141b2576141a760008261417b565b600181019050614194565b5050565b601f8211156141f7576141c881614097565b6141d1846140ac565b810160208510156141e0578190505b6141f46141ec856140ac565b830182614193565b50505b505050565b600082821c905092915050565b600061421a600019846008026141fc565b1980831691505092915050565b60006142338383614209565b9150826002028217905092915050565b61424c82612caf565b67ffffffffffffffff81111561426557614264612d6b565b5b61426f8254614066565b61427a8282856141b6565b600060209050601f8311600181146142ad576000841561429b578287015190505b6142a58582614227565b86555061430d565b601f1984166142bb86614097565b60005b828110156142e3578489015182556001820191506020850194506020810190506142be565b8683101561430057848901516142fc601f891682614209565b8355505b6001600288020188555050505b505050505050565b600081905092915050565b6000815461432d81614066565b6143378186614315565b9450600182166000811461435257600181146143675761439a565b60ff198316865281151582028601935061439a565b61437085614097565b60005b8381101561439257815481890152600182019150602081019050614373565b838801955050505b50505092915050565b60006143ae82612caf565b6143b88185614315565b93506143c8818560208601612ccb565b80840191505092915050565b60006143e08285614320565b91506143ec82846143a3565b91508190509392505050565b7f455243313135353a206d696e7420746f20746865207a65726f2061646472657360008201527f7300000000000000000000000000000000000000000000000000000000000000602082015250565b6000614454602183612cba565b915061445f826143f8565b604082019050919050565b6000602082019050818103600083015261448381614447565b9050919050565b600060408201905061449f6000830185612b9d565b6144ac6020830184612b9d565b9392505050565b7f455243313135353a2069647320616e6420616d6f756e7473206c656e6774682060008201527f6d69736d61746368000000000000000000000000000000000000000000000000602082015250565b600061450f602883612cba565b915061451a826144b3565b604082019050919050565b6000602082019050818103600083015261453e81614502565b9050919050565b7f455243313135353a207472616e7366657220746f20746865207a65726f20616460008201527f6472657373000000000000000000000000000000000000000000000000000000602082015250565b60006145a1602583612cba565b91506145ac82614545565b604082019050919050565b600060208201905081810360008301526145d081614594565b9050919050565b7f455243313135353a20696e73756666696369656e742062616c616e636520666f60008201527f72207472616e7366657200000000000000000000000000000000000000000000602082015250565b6000614633602a83612cba565b915061463e826145d7565b604082019050919050565b6000602082019050818103600083015261466281614626565b9050919050565b600060408201905081810360008301526146838185613544565b905081810360208301526146978184613544565b90509392505050565b7f4e6f2077686974656c69737420666f756e6420666f722072657175657374656460008201527f20746f6b656e0000000000000000000000000000000000000000000000000000602082015250565b60006146fc602683612cba565b9150614707826146a0565b604082019050919050565b6000602082019050818103600083015261472b816146ef565b9050919050565b60008160601b9050919050565b600061474a82614732565b9050919050565b600061475c8261473f565b9050919050565b61477461476f82612ae9565b614751565b82525050565b60006147868284614763565b60148201915081905092915050565b7f455243313135353a2073657474696e6720617070726f76616c2073746174757360008201527f20666f722073656c660000000000000000000000000000000000000000000000602082015250565b60006147f1602983612cba565b91506147fc82614795565b604082019050919050565b60006020820190508181036000830152614820816147e4565b9050919050565b7f416363657373436f6e74726f6c3a206163636f756e7420000000000000000000600082015250565b600061485d601783614315565b915061486882614827565b601782019050919050565b7f206973206d697373696e6720726f6c6520000000000000000000000000000000600082015250565b60006148a9601183614315565b91506148b482614873565b601182019050919050565b60006148ca82614850565b91506148d682856143a3565b91506148e18261489c565b91506148ed82846143a3565b91508190509392505050565b600081519050919050565b600082825260208201905092915050565b6000614920826148f9565b61492a8185614904565b935061493a818560208601612ccb565b61494381612cf5565b840191505092915050565b600060a0820190506149636000830188613abb565b6149706020830187613abb565b61497d6040830186612b9d565b61498a6060830185612b9d565b818103608083015261499c8184614915565b90509695505050505050565b6000815190506149b781612bf3565b92915050565b6000602082840312156149d3576149d2612abf565b5b60006149e1848285016149a8565b91505092915050565b60008160e01c9050919050565b600060033d1115614a165760046000803e614a136000516149ea565b90505b90565b600060443d10614aa657614a2b612ab5565b60043d036004823e80513d602482011167ffffffffffffffff82111715614a53575050614aa6565b808201805167ffffffffffffffff811115614a715750505050614aa6565b80602083010160043d038501811115614a8e575050505050614aa6565b614a9d82602001850186612d9a565b82955050505050505b90565b7f455243313135353a207472616e7366657220746f206e6f6e2d4552433131353560008201527f526563656976657220696d706c656d656e746572000000000000000000000000602082015250565b6000614b05603483612cba565b9150614b1082614aa9565b604082019050919050565b60006020820190508181036000830152614b3481614af8565b9050919050565b7f455243313135353a204552433131353552656365697665722072656a6563746560008201527f6420746f6b656e73000000000000000000000000000000000000000000000000602082015250565b6000614b97602883612cba565b9150614ba282614b3b565b604082019050919050565b60006020820190508181036000830152614bc681614b8a565b9050919050565b600060a082019050614be26000830188613abb565b614bef6020830187613abb565b8181036040830152614c018186613544565b90508181036060830152614c158185613544565b90508181036080830152614c298184614915565b90509695505050505050565b6000614c4082612b27565b9150614c4b83612b27565b9250828202614c5981612b27565b91508282048414831517614c7057614c6f613efa565b5b5092915050565b6000614c8282612b27565b915060008203614c9557614c94613efa565b5b600182039050919050565b7f537472696e67733a20686578206c656e67746820696e73756666696369656e74600082015250565b6000614cd6602083612cba565b9150614ce182614ca0565b602082019050919050565b60006020820190508181036000830152614d0581614cc9565b905091905056fea26469706673582212204ba3f998c992054a6b9a8a50db946809ea23a010b0c155432dba4d148077b89d64736f6c63430008120033",
  "linkReferences": {},
  "deployedLinkReferences": {}
}