{
  "_format": "hh-sol-artifact-1",
  "contractName": "Rewards",
  "sourceName": "contracts/Rewards.sol",
  "abi": [
    {
      "inputs": [
        {
          "internalType": "string",
          "name": "name_",
          "type": "string"
        },
        {
          "internalType": "string",
          "name": "symbol_",
          "type": "string"
        },
        {
          "internalType": "string",
          "name": "baseUri",
          "type": "string"
        }
      ],
      "stateMutability": "nonpayable",
      "type": "constructor"
    },
    {
      "anonymous": false,
      "inputs": [
        {
          "indexed": true,
          "internalType": "address",
          "name": "account",
          "type": "address"
        },
        {
          "indexed": true,
          "internalType": "address",
          "name": "operator",
          "type": "address"
        },
        {
          "indexed": false,
          "internalType": "bool",
          "name": "approved",
          "type": "bool"
        }
      ],
      "name": "ApprovalForAll",
      "type": "event"
    },
    {
      "anonymous": false,
      "inputs": [
        {
          "indexed": false,
          "internalType": "uint256",
          "name": "tokenId",
          "type": "uint256"
        },
        {
          "indexed": false,
          "internalType": "address",
          "name": "modifiedBy",
          "type": "address"
        }
      ],
      "name": "MerkleRootChange",
      "type": "event"
    },
    {
      "anonymous": false,
      "inputs": [
        {
          "indexed": true,
          "internalType": "bytes32",
          "name": "role",
          "type": "bytes32"
        },
        {
          "indexed": true,
          "internalType": "bytes32",
          "name": "previousAdminRole",
          "type": "bytes32"
        },
        {
          "indexed": true,
          "internalType": "bytes32",
          "name": "newAdminRole",
          "type": "bytes32"
        }
      ],
      "name": "RoleAdminChanged",
      "type": "event"
    },
    {
      "anonymous": false,
      "inputs": [
        {
          "indexed": true,
          "internalType": "bytes32",
          "name": "role",
          "type": "bytes32"
        },
        {
          "indexed": true,
          "internalType": "address",
          "name": "account",
          "type": "address"
        },
        {
          "indexed": true,
          "internalType": "address",
          "name": "sender",
          "type": "address"
        }
      ],
      "name": "RoleGranted",
      "type": "event"
    },
    {
      "anonymous": false,
      "inputs": [
        {
          "indexed": true,
          "internalType": "bytes32",
          "name": "role",
          "type": "bytes32"
        },
        {
          "indexed": true,
          "internalType": "address",
          "name": "account",
          "type": "address"
        },
        {
          "indexed": true,
          "internalType": "address",
          "name": "sender",
          "type": "address"
        }
      ],
      "name": "RoleRevoked",
      "type": "event"
    },
    {
      "anonymous": false,
      "inputs": [
        {
          "indexed": false,
          "internalType": "uint256",
          "name": "tokenId",
          "type": "uint256"
        },
        {
          "indexed": false,
          "internalType": "string",
          "name": "newUri",
          "type": "string"
        }
      ],
      "name": "SetUri",
      "type": "event"
    },
    {
      "anonymous": false,
      "inputs": [
        {
          "indexed": false,
          "internalType": "uint256",
          "name": "tokenId",
          "type": "uint256"
        },
        {
          "indexed": false,
          "internalType": "address",
          "name": "recipient",
          "type": "address"
        }
      ],
      "name": "TokenClaim",
      "type": "event"
    },
    {
      "anonymous": false,
      "inputs": [
        {
          "indexed": false,
          "internalType": "uint256",
          "name": "tokenId",
          "type": "uint256"
        },
        {
          "indexed": false,
          "internalType": "address",
          "name": "issuer",
          "type": "address"
        }
      ],
      "name": "TokenCreated",
      "type": "event"
    },
    {
      "anonymous": false,
      "inputs": [
        {
          "indexed": true,
          "internalType": "address",
          "name": "operator",
          "type": "address"
        },
        {
          "indexed": true,
          "internalType": "address",
          "name": "from",
          "type": "address"
        },
        {
          "indexed": true,
          "internalType": "address",
          "name": "to",
          "type": "address"
        },
        {
          "indexed": false,
          "internalType": "uint256[]",
          "name": "ids",
          "type": "uint256[]"
        },
        {
          "indexed": false,
          "internalType": "uint256[]",
          "name": "values",
          "type": "uint256[]"
        }
      ],
      "name": "TransferBatch",
      "type": "event"
    },
    {
      "anonymous": false,
      "inputs": [
        {
          "indexed": true,
          "internalType": "address",
          "name": "operator",
          "type": "address"
        },
        {
          "indexed": true,
          "internalType": "address",
          "name": "from",
          "type": "address"
        },
        {
          "indexed": true,
          "internalType": "address",
          "name": "to",
          "type": "address"
        },
        {
          "indexed": false,
          "internalType": "uint256",
          "name": "id",
          "type": "uint256"
        },
        {
          "indexed": false,
          "internalType": "uint256",
          "name": "value",
          "type": "uint256"
        }
      ],
      "name": "TransferSingle",
      "type": "event"
    },
    {
      "anonymous": false,
      "inputs": [
        {
          "indexed": false,
          "internalType": "string",
          "name": "value",
          "type": "string"
        },
        {
          "indexed": true,
          "internalType": "uint256",
          "name": "id",
          "type": "uint256"
        }
      ],
      "name": "URI",
      "type": "event"
    },
    {
      "anonymous": false,
      "inputs": [
        {
          "indexed": false,
          "internalType": "uint256",
          "name": "totalNew",
          "type": "uint256"
        },
        {
          "indexed": false,
          "internalType": "uint256",
          "name": "totalRevoke",
          "type": "uint256"
        }
      ],
      "name": "UpdateIssuers",
      "type": "event"
    },
    {
      "inputs": [],
      "name": "DEFAULT_ADMIN_ROLE",
      "outputs": [
        {
          "internalType": "bytes32",
          "name": "",
          "type": "bytes32"
        }
      ],
      "stateMutability": "view",
      "type": "function"
    },
    {
      "inputs": [],
      "name": "ISSUER_ROLE",
      "outputs": [
        {
          "internalType": "bytes32",
          "name": "",
          "type": "bytes32"
        }
      ],
      "stateMutability": "view",
      "type": "function"
    },
    {
      "inputs": [],
      "name": "_blockAllIssuers",
      "outputs": [
        {
          "internalType": "bool",
          "name": "",
          "type": "bool"
        }
      ],
      "stateMutability": "view",
      "type": "function"
    },
    {
      "inputs": [
        {
          "internalType": "address",
          "name": "account",
          "type": "address"
        },
        {
          "internalType": "uint256",
          "name": "id",
          "type": "uint256"
        }
      ],
      "name": "balanceOf",
      "outputs": [
        {
          "internalType": "uint256",
          "name": "",
          "type": "uint256"
        }
      ],
      "stateMutability": "view",
      "type": "function"
    },
    {
      "inputs": [
        {
          "internalType": "address[]",
          "name": "accounts",
          "type": "address[]"
        },
        {
          "internalType": "uint256[]",
          "name": "ids",
          "type": "uint256[]"
        }
      ],
      "name": "balanceOfBatch",
      "outputs": [
        {
          "internalType": "uint256[]",
          "name": "",
          "type": "uint256[]"
        }
      ],
      "stateMutability": "view",
      "type": "function"
    },
    {
      "inputs": [
        {
          "internalType": "bool",
          "name": "newStatus",
          "type": "bool"
        }
      ],
      "name": "blockTokensIssuing",
      "outputs": [],
      "stateMutability": "nonpayable",
      "type": "function"
    },
    {
      "inputs": [
        {
          "internalType": "string",
          "name": "tokenURI",
          "type": "string"
        },
        {
          "internalType": "bytes32",
          "name": "merkleRootHash",
          "type": "bytes32"
        }
      ],
      "name": "createToken",
      "outputs": [],
      "stateMutability": "nonpayable",
      "type": "function"
    },
    {
      "inputs": [],
      "name": "getAllListedTokens",
      "outputs": [
        {
          "components": [
            {
              "internalType": "uint256",
              "name": "tokenId",
              "type": "uint256"
            },
            {
              "internalType": "address",
              "name": "issuer",
              "type": "address"
            },
            {
              "internalType": "bytes32",
              "name": "merkletRoot",
              "type": "bytes32"
            },
            {
              "internalType": "bool",
              "name": "claimable",
              "type": "bool"
            },
            {
              "internalType": "address[]",
              "name": "claimers",
              "type": "address[]"
            }
          ],
          "internalType": "struct Rewards.ListedToken[]",
          "name": "",
          "type": "tuple[]"
        }
      ],
      "stateMutability": "view",
      "type": "function"
    },
    {
      "inputs": [],
      "name": "getMyTokens",
      "outputs": [
        {
          "components": [
            {
              "internalType": "uint256",
              "name": "tokenId",
              "type": "uint256"
            },
            {
              "internalType": "address",
              "name": "issuer",
              "type": "address"
            },
            {
              "internalType": "bytes32",
              "name": "merkletRoot",
              "type": "bytes32"
            },
            {
              "internalType": "bool",
              "name": "claimable",
              "type": "bool"
            },
            {
              "internalType": "address[]",
              "name": "claimers",
              "type": "address[]"
            }
          ],
          "internalType": "struct Rewards.ListedToken[]",
          "name": "",
          "type": "tuple[]"
        }
      ],
      "stateMutability": "view",
      "type": "function"
    },
    {
      "inputs": [
        {
          "internalType": "bytes32",
          "name": "role",
          "type": "bytes32"
        }
      ],
      "name": "getRoleAdmin",
      "outputs": [
        {
          "internalType": "bytes32",
          "name": "",
          "type": "bytes32"
        }
      ],
      "stateMutability": "view",
      "type": "function"
    },
    {
      "inputs": [
        {
          "internalType": "bytes32",
          "name": "role",
          "type": "bytes32"
        },
        {
          "internalType": "address",
          "name": "account",
          "type": "address"
        }
      ],
      "name": "grantRole",
      "outputs": [],
      "stateMutability": "nonpayable",
      "type": "function"
    },
    {
      "inputs": [
        {
          "internalType": "bytes32",
          "name": "role",
          "type": "bytes32"
        },
        {
          "internalType": "address",
          "name": "account",
          "type": "address"
        }
      ],
      "name": "hasRole",
      "outputs": [
        {
          "internalType": "bool",
          "name": "",
          "type": "bool"
        }
      ],
      "stateMutability": "view",
      "type": "function"
    },
    {
      "inputs": [
        {
          "internalType": "address",
          "name": "account",
          "type": "address"
        },
        {
          "internalType": "address",
          "name": "operator",
          "type": "address"
        }
      ],
      "name": "isApprovedForAll",
      "outputs": [
        {
          "internalType": "bool",
          "name": "",
          "type": "bool"
        }
      ],
      "stateMutability": "view",
      "type": "function"
    },
    {
      "inputs": [
        {
          "internalType": "address",
          "name": "to",
          "type": "address"
        },
        {
          "internalType": "uint256",
          "name": "tokenId",
          "type": "uint256"
        },
        {
          "internalType": "bytes32[]",
          "name": "merkleProof",
          "type": "bytes32[]"
        }
      ],
      "name": "mint",
      "outputs": [],
      "stateMutability": "nonpayable",
      "type": "function"
    },
    {
      "inputs": [],
      "name": "name",
      "outputs": [
        {
          "internalType": "string",
          "name": "",
          "type": "string"
        }
      ],
      "stateMutability": "view",
      "type": "function"
    },
    {
      "inputs": [
        {
          "internalType": "bytes32",
          "name": "role",
          "type": "bytes32"
        },
        {
          "internalType": "address",
          "name": "account",
          "type": "address"
        }
      ],
      "name": "renounceRole",
      "outputs": [],
      "stateMutability": "nonpayable",
      "type": "function"
    },
    {
      "inputs": [
        {
          "internalType": "bytes32",
          "name": "role",
          "type": "bytes32"
        },
        {
          "internalType": "address",
          "name": "account",
          "type": "address"
        }
      ],
      "name": "revokeRole",
      "outputs": [],
      "stateMutability": "nonpayable",
      "type": "function"
    },
    {
      "inputs": [
        {
          "internalType": "address",
          "name": "from",
          "type": "address"
        },
        {
          "internalType": "address",
          "name": "to",
          "type": "address"
        },
        {
          "internalType": "uint256[]",
          "name": "ids",
          "type": "uint256[]"
        },
        {
          "internalType": "uint256[]",
          "name": "amounts",
          "type": "uint256[]"
        },
        {
          "internalType": "bytes",
          "name": "data",
          "type": "bytes"
        }
      ],
      "name": "safeBatchTransferFrom",
      "outputs": [],
      "stateMutability": "nonpayable",
      "type": "function"
    },
    {
      "inputs": [
        {
          "internalType": "address",
          "name": "from",
          "type": "address"
        },
        {
          "internalType": "address",
          "name": "to",
          "type": "address"
        },
        {
          "internalType": "uint256",
          "name": "id",
          "type": "uint256"
        },
        {
          "internalType": "uint256",
          "name": "amount",
          "type": "uint256"
        },
        {
          "internalType": "bytes",
          "name": "data",
          "type": "bytes"
        }
      ],
      "name": "safeTransferFrom",
      "outputs": [],
      "stateMutability": "nonpayable",
      "type": "function"
    },
    {
      "inputs": [
        {
          "internalType": "address",
          "name": "operator",
          "type": "address"
        },
        {
          "internalType": "bool",
          "name": "approved",
          "type": "bool"
        }
      ],
      "name": "setApprovalForAll",
      "outputs": [],
      "stateMutability": "nonpayable",
      "type": "function"
    },
    {
      "inputs": [
        {
          "internalType": "uint256",
          "name": "tokenId",
          "type": "uint256"
        },
        {
          "internalType": "bytes32",
          "name": "merkleRootHash",
          "type": "bytes32"
        }
      ],
      "name": "setMerkleRoot",
      "outputs": [],
      "stateMutability": "nonpayable",
      "type": "function"
    },
    {
      "inputs": [
        {
          "internalType": "bytes4",
          "name": "interfaceId",
          "type": "bytes4"
        }
      ],
      "name": "supportsInterface",
      "outputs": [
        {
          "internalType": "bool",
          "name": "",
          "type": "bool"
        }
      ],
      "stateMutability": "view",
      "type": "function"
    },
    {
      "inputs": [],
      "name": "symbol",
      "outputs": [
        {
          "internalType": "string",
          "name": "",
          "type": "string"
        }
      ],
      "stateMutability": "view",
      "type": "function"
    },
    {
      "inputs": [
        {
          "internalType": "address[]",
          "name": "toAdd",
          "type": "address[]"
        },
        {
          "internalType": "address[]",
          "name": "toRemove",
          "type": "address[]"
        }
      ],
      "name": "updateTokenIssuersBatch",
      "outputs": [],
      "stateMutability": "nonpayable",
      "type": "function"
    },
    {
      "inputs": [
        {
          "internalType": "uint256",
          "name": "tokenId",
          "type": "uint256"
        },
        {
          "internalType": "string",
          "name": "tokenURI",
          "type": "string"
        }
      ],
      "name": "updateTokenURI",
      "outputs": [],
      "stateMutability": "nonpayable",
      "type": "function"
    },
    {
      "inputs": [
        {
          "internalType": "uint256",
          "name": "tokenId",
          "type": "uint256"
        }
      ],
      "name": "uri",
      "outputs": [
        {
          "internalType": "string",
          "name": "",
          "type": "string"
        }
      ],
      "stateMutability": "view",
      "type": "function"
    }
  ],
  "bytecode": "0x6080604052604051806020016040528060008152506004908162000024919062000512565b503480156200003257600080fd5b5060405162005cee38038062005cee83398181016040528101906200005891906200075d565b806200006a81620000f060201b60201c565b5082600690816200007c919062000512565b5081600790816200008e919062000512565b50620000a0816200010560201b60201c565b620000b56000801b336200011e60201b60201c565b620000e77f114e74f6ea3bd819998f78687bfcb11b140da08e9b7d222fa9c1f1ba1f2aa122336200011e60201b60201c565b50505062000816565b806002908162000101919062000512565b5050565b6200011b816200021060201b620018e01760201c565b50565b6200013082826200022560201b60201c565b6200020c5760016003600084815260200190815260200160002060000160008373ffffffffffffffffffffffffffffffffffffffff1673ffffffffffffffffffffffffffffffffffffffff16815260200190815260200160002060006101000a81548160ff021916908315150217905550620001b16200029060201b60201c565b73ffffffffffffffffffffffffffffffffffffffff168173ffffffffffffffffffffffffffffffffffffffff16837f2f8788117e7eff1d82e926ec794901d17c78024a50270940304540a733656f0d60405160405180910390a45b5050565b806004908162000221919062000512565b5050565b60006003600084815260200190815260200160002060000160008373ffffffffffffffffffffffffffffffffffffffff1673ffffffffffffffffffffffffffffffffffffffff16815260200190815260200160002060009054906101000a900460ff16905092915050565b600033905090565b600081519050919050565b7f4e487b7100000000000000000000000000000000000000000000000000000000600052604160045260246000fd5b7f4e487b7100000000000000000000000000000000000000000000000000000000600052602260045260246000fd5b600060028204905060018216806200031a57607f821691505b60208210810362000330576200032f620002d2565b5b50919050565b60008190508160005260206000209050919050565b60006020601f8301049050919050565b600082821b905092915050565b6000600883026200039a7fffffffffffffffffffffffffffffffffffffffffffffffffffffffffffffffff826200035b565b620003a686836200035b565b95508019841693508086168417925050509392505050565b6000819050919050565b6000819050919050565b6000620003f3620003ed620003e784620003be565b620003c8565b620003be565b9050919050565b6000819050919050565b6200040f83620003d2565b620004276200041e82620003fa565b84845462000368565b825550505050565b600090565b6200043e6200042f565b6200044b81848462000404565b505050565b5b8181101562000473576200046760008262000434565b60018101905062000451565b5050565b601f821115620004c2576200048c8162000336565b62000497846200034b565b81016020851015620004a7578190505b620004bf620004b6856200034b565b83018262000450565b50505b505050565b600082821c905092915050565b6000620004e760001984600802620004c7565b1980831691505092915050565b6000620005028383620004d4565b9150826002028217905092915050565b6200051d8262000298565b67ffffffffffffffff811115620005395762000538620002a3565b5b62000545825462000301565b6200055282828562000477565b600060209050601f8311600181146200058a576000841562000575578287015190505b620005818582620004f4565b865550620005f1565b601f1984166200059a8662000336565b60005b82811015620005c4578489015182556001820191506020850194506020810190506200059d565b86831015620005e45784890151620005e0601f891682620004d4565b8355505b6001600288020188555050505b505050505050565b6000604051905090565b600080fd5b600080fd5b600080fd5b600080fd5b6000601f19601f8301169050919050565b620006338262000617565b810181811067ffffffffffffffff82111715620006555762000654620002a3565b5b80604052505050565b60006200066a620005f9565b905062000678828262000628565b919050565b600067ffffffffffffffff8211156200069b576200069a620002a3565b5b620006a68262000617565b9050602081019050919050565b60005b83811015620006d3578082015181840152602081019050620006b6565b60008484015250505050565b6000620006f6620006f0846200067d565b6200065e565b90508281526020810184848401111562000715576200071462000612565b5b62000722848285620006b3565b509392505050565b600082601f8301126200074257620007416200060d565b5b815162000754848260208601620006df565b91505092915050565b60008060006060848603121562000779576200077862000603565b5b600084015167ffffffffffffffff8111156200079a576200079962000608565b5b620007a8868287016200072a565b935050602084015167ffffffffffffffff811115620007cc57620007cb62000608565b5b620007da868287016200072a565b925050604084015167ffffffffffffffff811115620007fe57620007fd62000608565b5b6200080c868287016200072a565b9150509250925092565b6154c880620008266000396000f3fe608060405234801561001057600080fd5b506004361061018d5760003560e01c80635b3b136a116100de578063a217fddf11610097578063bb81f25c11610071578063bb81f25c14610480578063d547741f1461049c578063e985e9c5146104b8578063f242432a146104e85761018d565b8063a217fddf14610428578063a22cb46514610446578063a50d9983146104625761018d565b80635b3b136a14610364578063641ce140146103825780637107732b1461039e57806382aefa24146103bc57806391d14854146103da57806395d89b411461040a5761018d565b806318712c211161014b5780632eb2c2d6116101255780632eb2c2d6146102e05780632f2ff15d146102fc57806336568abe146103185780634e1273f4146103345761018d565b806318712c211461027857806318e97fd114610294578063248a9ca3146102b05761018d565b8062fdd58e1461019257806301ffc9a7146101c257806306fdde03146101f25780630e89341c146102105780630f35bb1014610240578063127884c71461025c575b600080fd5b6101ac60048036038101906101a79190613191565b610504565b6040516101b991906131e0565b60405180910390f35b6101dc60048036038101906101d79190613253565b6105cc565b6040516101e9919061329b565b60405180910390f35b6101fa6105de565b6040516102079190613346565b60405180910390f35b61022a60048036038101906102259190613368565b610670565b6040516102379190613346565b60405180910390f35b61025a600480360381019061025591906133fa565b610682565b005b610276600480360381019061027191906135e1565b6107d8565b005b610292600480360381019061028d919061363d565b610957565b005b6102ae60048036038101906102a9919061367d565b610a92565b005b6102ca60048036038101906102c591906136d9565b610b83565b6040516102d79190613715565b60405180910390f35b6102fa60048036038101906102f59190613894565b610ba3565b005b61031660048036038101906103119190613963565b610c44565b005b610332600480360381019061032d9190613963565b610c65565b005b61034e60048036038101906103499190613a66565b610ce8565b60405161035b9190613b9c565b60405180910390f35b61036c610e01565b6040516103799190613dd2565b60405180910390f35b61039c60048036038101906103979190613e4a565b6110fc565b005b6103a6611407565b6040516103b3919061329b565b60405180910390f35b6103c461141a565b6040516103d19190613715565b60405180910390f35b6103f460048036038101906103ef9190613963565b61143e565b604051610401919061329b565b60405180910390f35b6104126114a9565b60405161041f9190613346565b60405180910390f35b61043061153b565b60405161043d9190613715565b60405180910390f35b610460600480360381019061045b9190613eea565b611542565b005b61046a611558565b6040516104779190613dd2565b60405180910390f35b61049a60048036038101906104959190613f2a565b61175f565b005b6104b660048036038101906104b19190613963565b61178a565b005b6104d260048036038101906104cd9190613f57565b6117ab565b6040516104df919061329b565b60405180910390f35b61050260048036038101906104fd9190613f97565b61183f565b005b60008073ffffffffffffffffffffffffffffffffffffffff168373ffffffffffffffffffffffffffffffffffffffff1603610574576040517f08c379a000000000000000000000000000000000000000000000000000000000815260040161056b906140a0565b60405180910390fd5b60008083815260200190815260200160002060008473ffffffffffffffffffffffffffffffffffffffff1673ffffffffffffffffffffffffffffffffffffffff16815260200190815260200160002054905092915050565b60006105d7826118f3565b9050919050565b6060600680546105ed906140ef565b80601f0160208091040260200160405190810160405280929190818152602001828054610619906140ef565b80156106665780601f1061063b57610100808354040283529160200191610666565b820191906000526020600020905b81548152906001019060200180831161064957829003601f168201915b5050505050905090565b606061067b8261196d565b9050919050565b6000801b61068f81611a52565b60008060005b87879050811015610713576106f17f114e74f6ea3bd819998f78687bfcb11b140da08e9b7d222fa9c1f1ba1f2aa1228989848181106106d7576106d6614120565b5b90506020020160208101906106ec919061414f565b611a66565b6001836106fe91906141ab565b9250808061070b906141df565b915050610695565b5060005b85859050811015610795576107737f114e74f6ea3bd819998f78687bfcb11b140da08e9b7d222fa9c1f1ba1f2aa12287878481811061075957610758614120565b5b905060200201602081019061076e919061414f565b611b47565b60018261078091906141ab565b9150808061078d906141df565b915050610717565b507f04278866b0d6f498929e34b779b3e8a8bb641f8dd86bba2ba266221bcea912c382826040516107c7929190614227565b60405180910390a150505050505050565b7f114e74f6ea3bd819998f78687bfcb11b140da08e9b7d222fa9c1f1ba1f2aa12261080281611a52565b60001515600960009054906101000a900460ff161515148061082d575061082c6000801b3361143e565b5b61086c576040517f08c379a0000000000000000000000000000000000000000000000000000000008152600401610863906142c2565b60405180910390fd5b6108766008611c29565b60006108826008611c3f565b905061088e8185611c4d565b6000600a60008381526020019081526020016000209050818160000181905550338160010160006101000a81548173ffffffffffffffffffffffffffffffffffffffff021916908373ffffffffffffffffffffffffffffffffffffffff16021790555083816002018190555060018160030160006101000a81548160ff0219169083151502179055507fc331dc3e37e2ab4d6e65d42a119ffdfab8481b9be24d26704f9f4b4a331d4dd082336040516109489291906142f1565b60405180910390a15050505050565b7f114e74f6ea3bd819998f78687bfcb11b140da08e9b7d222fa9c1f1ba1f2aa12261098181611a52565b3373ffffffffffffffffffffffffffffffffffffffff16600a600085815260200190815260200160002060010160009054906101000a900473ffffffffffffffffffffffffffffffffffffffff1673ffffffffffffffffffffffffffffffffffffffff1614806109fa57506109f96000801b3361143e565b5b610a39576040517f08c379a0000000000000000000000000000000000000000000000000000000008152600401610a309061438c565b60405180910390fd5b81600a6000858152602001908152602001600020600201819055507fab7a725d533f85521366ed27c01a524d7b26c426eb6e7ab6dbb3376c4b30520a8333604051610a859291906142f1565b60405180910390a1505050565b7f114e74f6ea3bd819998f78687bfcb11b140da08e9b7d222fa9c1f1ba1f2aa122610abc81611a52565b3373ffffffffffffffffffffffffffffffffffffffff16600a600085815260200190815260200160002060010160009054906101000a900473ffffffffffffffffffffffffffffffffffffffff1673ffffffffffffffffffffffffffffffffffffffff161480610b355750610b346000801b3361143e565b5b610b74576040517f08c379a0000000000000000000000000000000000000000000000000000000008152600401610b6b9061441e565b60405180910390fd5b610b7e8383611c4d565b505050565b600060036000838152602001908152602001600020600101549050919050565b610bab611c94565b73ffffffffffffffffffffffffffffffffffffffff168573ffffffffffffffffffffffffffffffffffffffff161480610bf15750610bf085610beb611c94565b6117ab565b5b610c30576040517f08c379a0000000000000000000000000000000000000000000000000000000008152600401610c27906144b0565b60405180910390fd5b610c3d8585858585611c9c565b5050505050565b610c4d82610b83565b610c5681611a52565b610c608383611a66565b505050565b610c6d611c94565b73ffffffffffffffffffffffffffffffffffffffff168173ffffffffffffffffffffffffffffffffffffffff1614610cda576040517f08c379a0000000000000000000000000000000000000000000000000000000008152600401610cd190614542565b60405180910390fd5b610ce48282611b47565b5050565b60608151835114610d2e576040517f08c379a0000000000000000000000000000000000000000000000000000000008152600401610d25906145d4565b60405180910390fd5b6000835167ffffffffffffffff811115610d4b57610d4a613480565b5b604051908082528060200260200182016040528015610d795781602001602082028036833780820191505090505b50905060005b8451811015610df657610dc6858281518110610d9e57610d9d614120565b5b6020026020010151858381518110610db957610db8614120565b5b6020026020010151610504565b828281518110610dd957610dd8614120565b5b60200260200101818152505080610def906141df565b9050610d7f565b508091505092915050565b60606000610e0f6008611c3f565b90506000805b82811015610eaa576000600182610e2c91906141ab565b90506000600b600083815260200190815260200160002060003373ffffffffffffffffffffffffffffffffffffffff1673ffffffffffffffffffffffffffffffffffffffff1681526020019081526020016000205414610e9657600183610e9391906141ab565b92505b508080610ea2906141df565b915050610e15565b5060008167ffffffffffffffff811115610ec757610ec6613480565b5b604051908082528060200260200182016040528015610f0057816020015b610eed61309f565b815260200190600190039081610ee55790505b5090506000805b848110156110f1576000600182610f1e91906141ab565b90506000600b600083815260200190815260200160002060003373ffffffffffffffffffffffffffffffffffffffff1673ffffffffffffffffffffffffffffffffffffffff16815260200190815260200160002054146110dd576000600a60008381526020019081526020016000209050806040518060a0016040529081600082015481526020016001820160009054906101000a900473ffffffffffffffffffffffffffffffffffffffff1673ffffffffffffffffffffffffffffffffffffffff1673ffffffffffffffffffffffffffffffffffffffff168152602001600282015481526020016003820160009054906101000a900460ff16151515158152602001600482018054806020026020016040519081016040528092919081815260200182805480156110a557602002820191906000526020600020905b8160009054906101000a900473ffffffffffffffffffffffffffffffffffffffff1673ffffffffffffffffffffffffffffffffffffffff168152602001906001019080831161105b575b5050505050815250508585815181106110c1576110c0614120565b5b60200260200101819052506001846110d991906141ab565b9350505b5080806110e9906141df565b915050610f07565b508194505050505090565b6000801b61110981611a52565b6000600a60008681526020019081526020016000209050600073ffffffffffffffffffffffffffffffffffffffff168160010160009054906101000a900473ffffffffffffffffffffffffffffffffffffffff1673ffffffffffffffffffffffffffffffffffffffff16036111b3576040517f08c379a00000000000000000000000000000000000000000000000000000000081526004016111aa90614640565b60405180910390fd5b6000600b600087815260200190815260200160002060008873ffffffffffffffffffffffffffffffffffffffff1673ffffffffffffffffffffffffffffffffffffffff1681526020019081526020016000205414611246576040517f08c379a000000000000000000000000000000000000000000000000000000000815260040161123d906146d2565b60405180910390fd5b600115158160030160009054906101000a900460ff1615151461129e576040517f08c379a000000000000000000000000000000000000000000000000000000000815260040161129590614764565b60405180910390fd5b6112aa85878686611fbd565b6112e9576040517f08c379a00000000000000000000000000000000000000000000000000000000081526004016112e0906147f6565b60405180910390fd5b61130586866001604051806020016040528060008152506120ab565b80600401869080600181540180825580915050600190039060005260206000200160009091909190916101000a81548173ffffffffffffffffffffffffffffffffffffffff021916908373ffffffffffffffffffffffffffffffffffffffff1602179055508060040180549050600b600087815260200190815260200160002060008873ffffffffffffffffffffffffffffffffffffffff1673ffffffffffffffffffffffffffffffffffffffff168152602001908152602001600020819055507f1e0bb8ab2abf6f7333777a74ef4804b481fd910f8120c3b65adbdb6e09f6106985876040516113f79291906142f1565b60405180910390a1505050505050565b600960009054906101000a900460ff1681565b7f114e74f6ea3bd819998f78687bfcb11b140da08e9b7d222fa9c1f1ba1f2aa12281565b60006003600084815260200190815260200160002060000160008373ffffffffffffffffffffffffffffffffffffffff1673ffffffffffffffffffffffffffffffffffffffff16815260200190815260200160002060009054906101000a900460ff16905092915050565b6060600780546114b8906140ef565b80601f01602080910402602001604051908101604052809291908181526020018280546114e4906140ef565b80156115315780601f1061150657610100808354040283529160200191611531565b820191906000526020600020905b81548152906001019060200180831161151457829003601f168201915b5050505050905090565b6000801b81565b61155461154d611c94565b838361225b565b5050565b606060006115666008611c3f565b905060008167ffffffffffffffff81111561158457611583613480565b5b6040519080825280602002602001820160405280156115bd57816020015b6115aa61309f565b8152602001906001900390816115a25790505b5090506000805b838110156117555760006001826115db91906141ab565b90506000600a60008381526020019081526020016000209050806040518060a0016040529081600082015481526020016001820160009054906101000a900473ffffffffffffffffffffffffffffffffffffffff1673ffffffffffffffffffffffffffffffffffffffff1673ffffffffffffffffffffffffffffffffffffffff168152602001600282015481526020016003820160009054906101000a900460ff161515151581526020016004820180548060200260200160405190810160405280929190818152602001828054801561170a57602002820191906000526020600020905b8160009054906101000a900473ffffffffffffffffffffffffffffffffffffffff1673ffffffffffffffffffffffffffffffffffffffff16815260200190600101908083116116c0575b50505050508152505085858151811061172657611725614120565b5b602002602001018190525060018461173e91906141ab565b93505050808061174d906141df565b9150506115c4565b5081935050505090565b6000801b61176c81611a52565b81600960006101000a81548160ff0219169083151502179055505050565b61179382610b83565b61179c81611a52565b6117a68383611b47565b505050565b6000600160008473ffffffffffffffffffffffffffffffffffffffff1673ffffffffffffffffffffffffffffffffffffffff16815260200190815260200160002060008373ffffffffffffffffffffffffffffffffffffffff1673ffffffffffffffffffffffffffffffffffffffff16815260200190815260200160002060009054906101000a900460ff16905092915050565b611847611c94565b73ffffffffffffffffffffffffffffffffffffffff168573ffffffffffffffffffffffffffffffffffffffff16148061188d575061188c85611887611c94565b6117ab565b5b6118cc576040517f08c379a00000000000000000000000000000000000000000000000000000000081526004016118c3906144b0565b60405180910390fd5b6118d985858585856123c7565b5050505050565b80600490816118ef91906149c2565b5050565b60007f7965db0b000000000000000000000000000000000000000000000000000000007bffffffffffffffffffffffffffffffffffffffffffffffffffffffff1916827bffffffffffffffffffffffffffffffffffffffffffffffffffffffff19161480611966575061196582612662565b5b9050919050565b6060600060056000848152602001908152602001600020805461198f906140ef565b80601f01602080910402602001604051908101604052809291908181526020018280546119bb906140ef565b8015611a085780601f106119dd57610100808354040283529160200191611a08565b820191906000526020600020905b8154815290600101906020018083116119eb57829003601f168201915b505050505090506000815111611a2657611a2183612744565b611a4a565b600481604051602001611a3a929190614b53565b6040516020818303038152906040525b915050919050565b611a6381611a5e611c94565b6127d8565b50565b611a70828261143e565b611b435760016003600084815260200190815260200160002060000160008373ffffffffffffffffffffffffffffffffffffffff1673ffffffffffffffffffffffffffffffffffffffff16815260200190815260200160002060006101000a81548160ff021916908315150217905550611ae8611c94565b73ffffffffffffffffffffffffffffffffffffffff168173ffffffffffffffffffffffffffffffffffffffff16837f2f8788117e7eff1d82e926ec794901d17c78024a50270940304540a733656f0d60405160405180910390a45b5050565b611b51828261143e565b15611c255760006003600084815260200190815260200160002060000160008373ffffffffffffffffffffffffffffffffffffffff1673ffffffffffffffffffffffffffffffffffffffff16815260200190815260200160002060006101000a81548160ff021916908315150217905550611bca611c94565b73ffffffffffffffffffffffffffffffffffffffff168173ffffffffffffffffffffffffffffffffffffffff16837ff6391f5c32d9c69d2a47ea670b442974b53935d1edc7fd64eb21e047a839171b60405160405180910390a45b5050565b6001816000016000828254019250508190555050565b600081600001549050919050565b611c57828261285d565b7fcb8a581c366c006d079f78b3f29b10e2bf252c6a9df7fb60286aa83c09bbd0b18282604051611c88929190614b77565b60405180910390a15050565b600033905090565b8151835114611ce0576040517f08c379a0000000000000000000000000000000000000000000000000000000008152600401611cd790614c19565b60405180910390fd5b600073ffffffffffffffffffffffffffffffffffffffff168473ffffffffffffffffffffffffffffffffffffffff1603611d4f576040517f08c379a0000000000000000000000000000000000000000000000000000000008152600401611d4690614cab565b60405180910390fd5b6000611d59611c94565b9050611d698187878787876128c2565b60005b8451811015611f1a576000858281518110611d8a57611d89614120565b5b602002602001015190506000858381518110611da957611da8614120565b5b60200260200101519050600080600084815260200190815260200160002060008b73ffffffffffffffffffffffffffffffffffffffff1673ffffffffffffffffffffffffffffffffffffffff16815260200190815260200160002054905081811015611e4a576040517f08c379a0000000000000000000000000000000000000000000000000000000008152600401611e4190614d3d565b60405180910390fd5b81810360008085815260200190815260200160002060008c73ffffffffffffffffffffffffffffffffffffffff1673ffffffffffffffffffffffffffffffffffffffff168152602001908152602001600020819055508160008085815260200190815260200160002060008b73ffffffffffffffffffffffffffffffffffffffff1673ffffffffffffffffffffffffffffffffffffffff1681526020019081526020016000206000828254611eff91906141ab565b9250508190555050505080611f13906141df565b9050611d6c565b508473ffffffffffffffffffffffffffffffffffffffff168673ffffffffffffffffffffffffffffffffffffffff168273ffffffffffffffffffffffffffffffffffffffff167f4a39dc06d4c0dbc64b70af90fd698a233a518aa5d07e595d983b8c0526c8f7fb8787604051611f91929190614d5d565b60405180910390a4611fa78187878787876128ca565b611fb58187878787876128d2565b505050505050565b600080600a600087815260200190815260200160002090506000801b81600201540361201e576040517f08c379a000000000000000000000000000000000000000000000000000000000815260040161201590614e06565b60405180910390fd5b60008160020154905060008660405160200161203a9190614e6e565b60405160208183030381529060405280519060200120905061209e868680806020026020016040519081016040528093929190818152602001838360200280828437600081840152601f19601f820116905080830192505050505050508383612aa9565b9350505050949350505050565b600073ffffffffffffffffffffffffffffffffffffffff168473ffffffffffffffffffffffffffffffffffffffff160361211a576040517f08c379a000000000000000000000000000000000000000000000000000000000815260040161211190614efb565b60405180910390fd5b6000612124611c94565b9050600061213185612ac0565b9050600061213e85612ac0565b905061214f836000898585896128c2565b8460008088815260200190815260200160002060008973ffffffffffffffffffffffffffffffffffffffff1673ffffffffffffffffffffffffffffffffffffffff16815260200190815260200160002060008282546121ae91906141ab565b925050819055508673ffffffffffffffffffffffffffffffffffffffff16600073ffffffffffffffffffffffffffffffffffffffff168473ffffffffffffffffffffffffffffffffffffffff167fc3d58168c5ae7397731d063d5bbf3d657854427343f4c083240f7aacaa2d0f62898960405161222c929190614227565b60405180910390a4612243836000898585896128ca565b61225283600089898989612b3a565b50505050505050565b8173ffffffffffffffffffffffffffffffffffffffff168373ffffffffffffffffffffffffffffffffffffffff16036122c9576040517f08c379a00000000000000000000000000000000000000000000000000000000081526004016122c090614f8d565b60405180910390fd5b80600160008573ffffffffffffffffffffffffffffffffffffffff1673ffffffffffffffffffffffffffffffffffffffff16815260200190815260200160002060008473ffffffffffffffffffffffffffffffffffffffff1673ffffffffffffffffffffffffffffffffffffffff16815260200190815260200160002060006101000a81548160ff0219169083151502179055508173ffffffffffffffffffffffffffffffffffffffff168373ffffffffffffffffffffffffffffffffffffffff167f17307eab39ab6107e8899845ad3d59bd9653f200f220920489ca2b5937696c31836040516123ba919061329b565b60405180910390a3505050565b600073ffffffffffffffffffffffffffffffffffffffff168473ffffffffffffffffffffffffffffffffffffffff1603612436576040517f08c379a000000000000000000000000000000000000000000000000000000000815260040161242d90614cab565b60405180910390fd5b6000612440611c94565b9050600061244d85612ac0565b9050600061245a85612ac0565b905061246a8389898585896128c2565b600080600088815260200190815260200160002060008a73ffffffffffffffffffffffffffffffffffffffff1673ffffffffffffffffffffffffffffffffffffffff16815260200190815260200160002054905085811015612501576040517f08c379a00000000000000000000000000000000000000000000000000000000081526004016124f890614d3d565b60405180910390fd5b85810360008089815260200190815260200160002060008b73ffffffffffffffffffffffffffffffffffffffff1673ffffffffffffffffffffffffffffffffffffffff168152602001908152602001600020819055508560008089815260200190815260200160002060008a73ffffffffffffffffffffffffffffffffffffffff1673ffffffffffffffffffffffffffffffffffffffff16815260200190815260200160002060008282546125b691906141ab565b925050819055508773ffffffffffffffffffffffffffffffffffffffff168973ffffffffffffffffffffffffffffffffffffffff168573ffffffffffffffffffffffffffffffffffffffff167fc3d58168c5ae7397731d063d5bbf3d657854427343f4c083240f7aacaa2d0f628a8a604051612633929190614227565b60405180910390a4612649848a8a86868a6128ca565b612657848a8a8a8a8a612b3a565b505050505050505050565b60007fd9b67a26000000000000000000000000000000000000000000000000000000007bffffffffffffffffffffffffffffffffffffffffffffffffffffffff1916827bffffffffffffffffffffffffffffffffffffffffffffffffffffffff1916148061272d57507f0e89341c000000000000000000000000000000000000000000000000000000007bffffffffffffffffffffffffffffffffffffffffffffffffffffffff1916827bffffffffffffffffffffffffffffffffffffffffffffffffffffffff1916145b8061273d575061273c82612d11565b5b9050919050565b606060028054612753906140ef565b80601f016020809104026020016040519081016040528092919081815260200182805461277f906140ef565b80156127cc5780601f106127a1576101008083540402835291602001916127cc565b820191906000526020600020905b8154815290600101906020018083116127af57829003601f168201915b50505050509050919050565b6127e2828261143e565b612859576127ef81612d7b565b6127fd8360001c6020612da8565b60405160200161280e929190615045565b6040516020818303038152906040526040517f08c379a00000000000000000000000000000000000000000000000000000000081526004016128509190613346565b60405180910390fd5b5050565b8060056000848152602001908152602001600020908161287d91906149c2565b50817f6bb7ff708619ba0610cba295a58592e0451dee2622938c8755667688daf3529b6128a984610670565b6040516128b69190613346565b60405180910390a25050565b505050505050565b505050505050565b6128f18473ffffffffffffffffffffffffffffffffffffffff16612fe4565b15612aa1578373ffffffffffffffffffffffffffffffffffffffff1663bc197c8187878686866040518663ffffffff1660e01b81526004016129379594939291906150d4565b6020604051808303816000875af192505050801561297357506040513d601f19601f820116820180604052508101906129709190615151565b60015b612a185761297f61518b565b806308c379a0036129db57506129936151ad565b8061299e57506129dd565b806040517f08c379a00000000000000000000000000000000000000000000000000000000081526004016129d29190613346565b60405180910390fd5b505b6040517f08c379a0000000000000000000000000000000000000000000000000000000008152600401612a0f906152af565b60405180910390fd5b63bc197c8160e01b7bffffffffffffffffffffffffffffffffffffffffffffffffffffffff1916817bffffffffffffffffffffffffffffffffffffffffffffffffffffffff191614612a9f576040517f08c379a0000000000000000000000000000000000000000000000000000000008152600401612a9690615341565b60405180910390fd5b505b505050505050565b600082612ab68584613007565b1490509392505050565b60606000600167ffffffffffffffff811115612adf57612ade613480565b5b604051908082528060200260200182016040528015612b0d5781602001602082028036833780820191505090505b5090508281600081518110612b2557612b24614120565b5b60200260200101818152505080915050919050565b612b598473ffffffffffffffffffffffffffffffffffffffff16612fe4565b15612d09578373ffffffffffffffffffffffffffffffffffffffff1663f23a6e6187878686866040518663ffffffff1660e01b8152600401612b9f959493929190615361565b6020604051808303816000875af1925050508015612bdb57506040513d601f19601f82011682018060405250810190612bd89190615151565b60015b612c8057612be761518b565b806308c379a003612c435750612bfb6151ad565b80612c065750612c45565b806040517f08c379a0000000000000000000000000000000000000000000000000000000008152600401612c3a9190613346565b60405180910390fd5b505b6040517f08c379a0000000000000000000000000000000000000000000000000000000008152600401612c77906152af565b60405180910390fd5b63f23a6e6160e01b7bffffffffffffffffffffffffffffffffffffffffffffffffffffffff1916817bffffffffffffffffffffffffffffffffffffffffffffffffffffffff191614612d07576040517f08c379a0000000000000000000000000000000000000000000000000000000008152600401612cfe90615341565b60405180910390fd5b505b505050505050565b60007f01ffc9a7000000000000000000000000000000000000000000000000000000007bffffffffffffffffffffffffffffffffffffffffffffffffffffffff1916827bffffffffffffffffffffffffffffffffffffffffffffffffffffffff1916149050919050565b6060612da18273ffffffffffffffffffffffffffffffffffffffff16601460ff16612da8565b9050919050565b606060006002836002612dbb91906153bb565b612dc591906141ab565b67ffffffffffffffff811115612dde57612ddd613480565b5b6040519080825280601f01601f191660200182016040528015612e105781602001600182028036833780820191505090505b5090507f300000000000000000000000000000000000000000000000000000000000000081600081518110612e4857612e47614120565b5b60200101907effffffffffffffffffffffffffffffffffffffffffffffffffffffffffffff1916908160001a9053507f780000000000000000000000000000000000000000000000000000000000000081600181518110612eac57612eab614120565b5b60200101907effffffffffffffffffffffffffffffffffffffffffffffffffffffffffffff1916908160001a90535060006001846002612eec91906153bb565b612ef691906141ab565b90505b6001811115612f96577f3031323334353637383961626364656600000000000000000000000000000000600f861660108110612f3857612f37614120565b5b1a60f81b828281518110612f4f57612f4e614120565b5b60200101907effffffffffffffffffffffffffffffffffffffffffffffffffffffffffffff1916908160001a905350600485901c945080612f8f906153fd565b9050612ef9565b5060008414612fda576040517f08c379a0000000000000000000000000000000000000000000000000000000008152600401612fd190615472565b60405180910390fd5b8091505092915050565b6000808273ffffffffffffffffffffffffffffffffffffffff163b119050919050565b60008082905060005b84518110156130525761303d828683815181106130305761302f614120565b5b602002602001015161305d565b9150808061304a906141df565b915050613010565b508091505092915050565b6000818310613075576130708284613088565b613080565b61307f8383613088565b5b905092915050565b600082600052816020526040600020905092915050565b6040518060a0016040528060008152602001600073ffffffffffffffffffffffffffffffffffffffff16815260200160008019168152602001600015158152602001606081525090565b6000604051905090565b600080fd5b600080fd5b600073ffffffffffffffffffffffffffffffffffffffff82169050919050565b6000613128826130fd565b9050919050565b6131388161311d565b811461314357600080fd5b50565b6000813590506131558161312f565b92915050565b6000819050919050565b61316e8161315b565b811461317957600080fd5b50565b60008135905061318b81613165565b92915050565b600080604083850312156131a8576131a76130f3565b5b60006131b685828601613146565b92505060206131c78582860161317c565b9150509250929050565b6131da8161315b565b82525050565b60006020820190506131f560008301846131d1565b92915050565b60007fffffffff0000000000000000000000000000000000000000000000000000000082169050919050565b613230816131fb565b811461323b57600080fd5b50565b60008135905061324d81613227565b92915050565b600060208284031215613269576132686130f3565b5b60006132778482850161323e565b91505092915050565b60008115159050919050565b61329581613280565b82525050565b60006020820190506132b0600083018461328c565b92915050565b600081519050919050565b600082825260208201905092915050565b60005b838110156132f05780820151818401526020810190506132d5565b60008484015250505050565b6000601f19601f8301169050919050565b6000613318826132b6565b61332281856132c1565b93506133328185602086016132d2565b61333b816132fc565b840191505092915050565b60006020820190508181036000830152613360818461330d565b905092915050565b60006020828403121561337e5761337d6130f3565b5b600061338c8482850161317c565b91505092915050565b600080fd5b600080fd5b600080fd5b60008083601f8401126133ba576133b9613395565b5b8235905067ffffffffffffffff8111156133d7576133d661339a565b5b6020830191508360208202830111156133f3576133f261339f565b5b9250929050565b60008060008060408587031215613414576134136130f3565b5b600085013567ffffffffffffffff811115613432576134316130f8565b5b61343e878288016133a4565b9450945050602085013567ffffffffffffffff811115613461576134606130f8565b5b61346d878288016133a4565b925092505092959194509250565b600080fd5b7f4e487b7100000000000000000000000000000000000000000000000000000000600052604160045260246000fd5b6134b8826132fc565b810181811067ffffffffffffffff821117156134d7576134d6613480565b5b80604052505050565b60006134ea6130e9565b90506134f682826134af565b919050565b600067ffffffffffffffff82111561351657613515613480565b5b61351f826132fc565b9050602081019050919050565b82818337600083830152505050565b600061354e613549846134fb565b6134e0565b90508281526020810184848401111561356a5761356961347b565b5b61357584828561352c565b509392505050565b600082601f83011261359257613591613395565b5b81356135a284826020860161353b565b91505092915050565b6000819050919050565b6135be816135ab565b81146135c957600080fd5b50565b6000813590506135db816135b5565b92915050565b600080604083850312156135f8576135f76130f3565b5b600083013567ffffffffffffffff811115613616576136156130f8565b5b6136228582860161357d565b9250506020613633858286016135cc565b9150509250929050565b60008060408385031215613654576136536130f3565b5b60006136628582860161317c565b9250506020613673858286016135cc565b9150509250929050565b60008060408385031215613694576136936130f3565b5b60006136a28582860161317c565b925050602083013567ffffffffffffffff8111156136c3576136c26130f8565b5b6136cf8582860161357d565b9150509250929050565b6000602082840312156136ef576136ee6130f3565b5b60006136fd848285016135cc565b91505092915050565b61370f816135ab565b82525050565b600060208201905061372a6000830184613706565b92915050565b600067ffffffffffffffff82111561374b5761374a613480565b5b602082029050602081019050919050565b600061376f61376a84613730565b6134e0565b905080838252602082019050602084028301858111156137925761379161339f565b5b835b818110156137bb57806137a7888261317c565b845260208401935050602081019050613794565b5050509392505050565b600082601f8301126137da576137d9613395565b5b81356137ea84826020860161375c565b91505092915050565b600067ffffffffffffffff82111561380e5761380d613480565b5b613817826132fc565b9050602081019050919050565b6000613837613832846137f3565b6134e0565b9050828152602081018484840111156138535761385261347b565b5b61385e84828561352c565b509392505050565b600082601f83011261387b5761387a613395565b5b813561388b848260208601613824565b91505092915050565b600080600080600060a086880312156138b0576138af6130f3565b5b60006138be88828901613146565b95505060206138cf88828901613146565b945050604086013567ffffffffffffffff8111156138f0576138ef6130f8565b5b6138fc888289016137c5565b935050606086013567ffffffffffffffff81111561391d5761391c6130f8565b5b613929888289016137c5565b925050608086013567ffffffffffffffff81111561394a576139496130f8565b5b61395688828901613866565b9150509295509295909350565b6000806040838503121561397a576139796130f3565b5b6000613988858286016135cc565b925050602061399985828601613146565b9150509250929050565b600067ffffffffffffffff8211156139be576139bd613480565b5b602082029050602081019050919050565b60006139e26139dd846139a3565b6134e0565b90508083825260208201905060208402830185811115613a0557613a0461339f565b5b835b81811015613a2e5780613a1a8882613146565b845260208401935050602081019050613a07565b5050509392505050565b600082601f830112613a4d57613a4c613395565b5b8135613a5d8482602086016139cf565b91505092915050565b60008060408385031215613a7d57613a7c6130f3565b5b600083013567ffffffffffffffff811115613a9b57613a9a6130f8565b5b613aa785828601613a38565b925050602083013567ffffffffffffffff811115613ac857613ac76130f8565b5b613ad4858286016137c5565b9150509250929050565b600081519050919050565b600082825260208201905092915050565b6000819050602082019050919050565b613b138161315b565b82525050565b6000613b258383613b0a565b60208301905092915050565b6000602082019050919050565b6000613b4982613ade565b613b538185613ae9565b9350613b5e83613afa565b8060005b83811015613b8f578151613b768882613b19565b9750613b8183613b31565b925050600181019050613b62565b5085935050505092915050565b60006020820190508181036000830152613bb68184613b3e565b905092915050565b600081519050919050565b600082825260208201905092915050565b6000819050602082019050919050565b613bf38161311d565b82525050565b613c02816135ab565b82525050565b613c1181613280565b82525050565b600081519050919050565b600082825260208201905092915050565b6000819050602082019050919050565b6000613c4f8383613bea565b60208301905092915050565b6000602082019050919050565b6000613c7382613c17565b613c7d8185613c22565b9350613c8883613c33565b8060005b83811015613cb9578151613ca08882613c43565b9750613cab83613c5b565b925050600181019050613c8c565b5085935050505092915050565b600060a083016000830151613cde6000860182613b0a565b506020830151613cf16020860182613bea565b506040830151613d046040860182613bf9565b506060830151613d176060860182613c08565b5060808301518482036080860152613d2f8282613c68565b9150508091505092915050565b6000613d488383613cc6565b905092915050565b6000602082019050919050565b6000613d6882613bbe565b613d728185613bc9565b935083602082028501613d8485613bda565b8060005b85811015613dc05784840389528151613da18582613d3c565b9450613dac83613d50565b925060208a01995050600181019050613d88565b50829750879550505050505092915050565b60006020820190508181036000830152613dec8184613d5d565b905092915050565b60008083601f840112613e0a57613e09613395565b5b8235905067ffffffffffffffff811115613e2757613e2661339a565b5b602083019150836020820283011115613e4357613e4261339f565b5b9250929050565b60008060008060608587031215613e6457613e636130f3565b5b6000613e7287828801613146565b9450506020613e838782880161317c565b935050604085013567ffffffffffffffff811115613ea457613ea36130f8565b5b613eb087828801613df4565b925092505092959194509250565b613ec781613280565b8114613ed257600080fd5b50565b600081359050613ee481613ebe565b92915050565b60008060408385031215613f0157613f006130f3565b5b6000613f0f85828601613146565b9250506020613f2085828601613ed5565b9150509250929050565b600060208284031215613f4057613f3f6130f3565b5b6000613f4e84828501613ed5565b91505092915050565b60008060408385031215613f6e57613f6d6130f3565b5b6000613f7c85828601613146565b9250506020613f8d85828601613146565b9150509250929050565b600080600080600060a08688031215613fb357613fb26130f3565b5b6000613fc188828901613146565b9550506020613fd288828901613146565b9450506040613fe38882890161317c565b9350506060613ff48882890161317c565b925050608086013567ffffffffffffffff811115614015576140146130f8565b5b61402188828901613866565b9150509295509295909350565b7f455243313135353a2061646472657373207a65726f206973206e6f742061207660008201527f616c6964206f776e657200000000000000000000000000000000000000000000602082015250565b600061408a602a836132c1565b91506140958261402e565b604082019050919050565b600060208201905081810360008301526140b98161407d565b9050919050565b7f4e487b7100000000000000000000000000000000000000000000000000000000600052602260045260246000fd5b6000600282049050600182168061410757607f821691505b60208210810361411a576141196140c0565b5b50919050565b7f4e487b7100000000000000000000000000000000000000000000000000000000600052603260045260246000fd5b600060208284031215614165576141646130f3565b5b600061417384828501613146565b91505092915050565b7f4e487b7100000000000000000000000000000000000000000000000000000000600052601160045260246000fd5b60006141b68261315b565b91506141c18361315b565b92508282019050808211156141d9576141d861417c565b5b92915050565b60006141ea8261315b565b91507fffffffffffffffffffffffffffffffffffffffffffffffffffffffffffffffff820361421c5761421b61417c565b5b600182019050919050565b600060408201905061423c60008301856131d1565b61424960208301846131d1565b9392505050565b7f43616e6e6f742063726561746520746f6b656e7320617420746869732074696d60008201527f652e000000000000000000000000000000000000000000000000000000000000602082015250565b60006142ac6022836132c1565b91506142b782614250565b604082019050919050565b600060208201905081810360008301526142db8161429f565b9050919050565b6142eb8161311d565b82525050565b600060408201905061430660008301856131d1565b61431360208301846142e2565b9392505050565b7f416374696f6e206e6f7420616c6c6f7765643a20736574206d65726b6c65207260008201527f6f6f740000000000000000000000000000000000000000000000000000000000602082015250565b60006143766023836132c1565b91506143818261431a565b604082019050919050565b600060208201905081810360008301526143a581614369565b9050919050565b7f416374696f6e206e6f7420616c6c6f7765643a20757064617465546f6b656e5560008201527f5249000000000000000000000000000000000000000000000000000000000000602082015250565b60006144086022836132c1565b9150614413826143ac565b604082019050919050565b60006020820190508181036000830152614437816143fb565b9050919050565b7f455243313135353a2063616c6c6572206973206e6f7420746f6b656e206f776e60008201527f6572206f7220617070726f766564000000000000000000000000000000000000602082015250565b600061449a602e836132c1565b91506144a58261443e565b604082019050919050565b600060208201905081810360008301526144c98161448d565b9050919050565b7f416363657373436f6e74726f6c3a2063616e206f6e6c792072656e6f756e636560008201527f20726f6c657320666f722073656c660000000000000000000000000000000000602082015250565b600061452c602f836132c1565b9150614537826144d0565b604082019050919050565b6000602082019050818103600083015261455b8161451f565b9050919050565b7f455243313135353a206163636f756e747320616e6420696473206c656e67746860008201527f206d69736d617463680000000000000000000000000000000000000000000000602082015250565b60006145be6029836132c1565b91506145c982614562565b604082019050919050565b600060208201905081810360008301526145ed816145b1565b9050919050565b7f496e76616c696420746f6b656e20696400000000000000000000000000000000600082015250565b600061462a6010836132c1565b9150614635826145f4565b602082019050919050565b600060208201905081810360008301526146598161461d565b9050919050565b7f546f6b656e20616c726561647920636c61696d6564206279207468697320776160008201527f6c6c657400000000000000000000000000000000000000000000000000000000602082015250565b60006146bc6024836132c1565b91506146c782614660565b604082019050919050565b600060208201905081810360008301526146eb816146af565b9050919050565b7f546f6b656e206973206e6f7420636c61696d61626c652061742074686973206d60008201527f6f6d656e74000000000000000000000000000000000000000000000000000000602082015250565b600061474e6025836132c1565b9150614759826146f2565b604082019050919050565b6000602082019050818103600083015261477d81614741565b9050919050565b7f41646472657373206973206e6f7420616c6c6f77656420746f20636c61696d2060008201527f7468652072657175657374656420746f6b656e00000000000000000000000000602082015250565b60006147e06033836132c1565b91506147eb82614784565b604082019050919050565b6000602082019050818103600083015261480f816147d3565b9050919050565b60008190508160005260206000209050919050565b60006020601f8301049050919050565b600082821b905092915050565b6000600883026148787fffffffffffffffffffffffffffffffffffffffffffffffffffffffffffffffff8261483b565b614882868361483b565b95508019841693508086168417925050509392505050565b6000819050919050565b60006148bf6148ba6148b58461315b565b61489a565b61315b565b9050919050565b6000819050919050565b6148d9836148a4565b6148ed6148e5826148c6565b848454614848565b825550505050565b600090565b6149026148f5565b61490d8184846148d0565b505050565b5b81811015614931576149266000826148fa565b600181019050614913565b5050565b601f8211156149765761494781614816565b6149508461482b565b8101602085101561495f578190505b61497361496b8561482b565b830182614912565b50505b505050565b600082821c905092915050565b60006149996000198460080261497b565b1980831691505092915050565b60006149b28383614988565b9150826002028217905092915050565b6149cb826132b6565b67ffffffffffffffff8111156149e4576149e3613480565b5b6149ee82546140ef565b6149f9828285614935565b600060209050601f831160018114614a2c5760008415614a1a578287015190505b614a2485826149a6565b865550614a8c565b601f198416614a3a86614816565b60005b82811015614a6257848901518255600182019150602085019450602081019050614a3d565b86831015614a7f5784890151614a7b601f891682614988565b8355505b6001600288020188555050505b505050505050565b600081905092915050565b60008154614aac816140ef565b614ab68186614a94565b94506001821660008114614ad15760018114614ae657614b19565b60ff1983168652811515820286019350614b19565b614aef85614816565b60005b83811015614b1157815481890152600182019150602081019050614af2565b838801955050505b50505092915050565b6000614b2d826132b6565b614b378185614a94565b9350614b478185602086016132d2565b80840191505092915050565b6000614b5f8285614a9f565b9150614b6b8284614b22565b91508190509392505050565b6000604082019050614b8c60008301856131d1565b8181036020830152614b9e818461330d565b90509392505050565b7f455243313135353a2069647320616e6420616d6f756e7473206c656e6774682060008201527f6d69736d61746368000000000000000000000000000000000000000000000000602082015250565b6000614c036028836132c1565b9150614c0e82614ba7565b604082019050919050565b60006020820190508181036000830152614c3281614bf6565b9050919050565b7f455243313135353a207472616e7366657220746f20746865207a65726f20616460008201527f6472657373000000000000000000000000000000000000000000000000000000602082015250565b6000614c956025836132c1565b9150614ca082614c39565b604082019050919050565b60006020820190508181036000830152614cc481614c88565b9050919050565b7f455243313135353a20696e73756666696369656e742062616c616e636520666f60008201527f72207472616e7366657200000000000000000000000000000000000000000000602082015250565b6000614d27602a836132c1565b9150614d3282614ccb565b604082019050919050565b60006020820190508181036000830152614d5681614d1a565b9050919050565b60006040820190508181036000830152614d778185613b3e565b90508181036020830152614d8b8184613b3e565b90509392505050565b7f4e6f2077686974656c69737420666f756e6420666f722072657175657374656460008201527f20746f6b656e0000000000000000000000000000000000000000000000000000602082015250565b6000614df06026836132c1565b9150614dfb82614d94565b604082019050919050565b60006020820190508181036000830152614e1f81614de3565b9050919050565b60008160601b9050919050565b6000614e3e82614e26565b9050919050565b6000614e5082614e33565b9050919050565b614e68614e638261311d565b614e45565b82525050565b6000614e7a8284614e57565b60148201915081905092915050565b7f455243313135353a206d696e7420746f20746865207a65726f2061646472657360008201527f7300000000000000000000000000000000000000000000000000000000000000602082015250565b6000614ee56021836132c1565b9150614ef082614e89565b604082019050919050565b60006020820190508181036000830152614f1481614ed8565b9050919050565b7f455243313135353a2073657474696e6720617070726f76616c2073746174757360008201527f20666f722073656c660000000000000000000000000000000000000000000000602082015250565b6000614f776029836132c1565b9150614f8282614f1b565b604082019050919050565b60006020820190508181036000830152614fa681614f6a565b9050919050565b7f416363657373436f6e74726f6c3a206163636f756e7420000000000000000000600082015250565b6000614fe3601783614a94565b9150614fee82614fad565b601782019050919050565b7f206973206d697373696e6720726f6c6520000000000000000000000000000000600082015250565b600061502f601183614a94565b915061503a82614ff9565b601182019050919050565b600061505082614fd6565b915061505c8285614b22565b915061506782615022565b91506150738284614b22565b91508190509392505050565b600081519050919050565b600082825260208201905092915050565b60006150a68261507f565b6150b0818561508a565b93506150c08185602086016132d2565b6150c9816132fc565b840191505092915050565b600060a0820190506150e960008301886142e2565b6150f660208301876142e2565b81810360408301526151088186613b3e565b9050818103606083015261511c8185613b3e565b90508181036080830152615130818461509b565b90509695505050505050565b60008151905061514b81613227565b92915050565b600060208284031215615167576151666130f3565b5b60006151758482850161513c565b91505092915050565b60008160e01c9050919050565b600060033d11156151aa5760046000803e6151a760005161517e565b90505b90565b600060443d1061523a576151bf6130e9565b60043d036004823e80513d602482011167ffffffffffffffff821117156151e757505061523a565b808201805167ffffffffffffffff811115615205575050505061523a565b80602083010160043d03850181111561522257505050505061523a565b615231826020018501866134af565b82955050505050505b90565b7f455243313135353a207472616e7366657220746f206e6f6e2d4552433131353560008201527f526563656976657220696d706c656d656e746572000000000000000000000000602082015250565b60006152996034836132c1565b91506152a48261523d565b604082019050919050565b600060208201905081810360008301526152c88161528c565b9050919050565b7f455243313135353a204552433131353552656365697665722072656a6563746560008201527f6420746f6b656e73000000000000000000000000000000000000000000000000602082015250565b600061532b6028836132c1565b9150615336826152cf565b604082019050919050565b6000602082019050818103600083015261535a8161531e565b9050919050565b600060a08201905061537660008301886142e2565b61538360208301876142e2565b61539060408301866131d1565b61539d60608301856131d1565b81810360808301526153af818461509b565b90509695505050505050565b60006153c68261315b565b91506153d18361315b565b92508282026153df8161315b565b915082820484148315176153f6576153f561417c565b5b5092915050565b60006154088261315b565b91506000820361541b5761541a61417c565b5b600182039050919050565b7f537472696e67733a20686578206c656e67746820696e73756666696369656e74600082015250565b600061545c6020836132c1565b915061546782615426565b602082019050919050565b6000602082019050818103600083015261548b8161544f565b905091905056fea2646970667358221220bcda82f1f4ff2349b1eba79fe33024883d30d35733a6f65fc650a7f7df5b657664736f6c63430008120033",
  "linkReferences": {},
  "deployedLinkReferences": {}
}